:100000006F00005A000000001C0300001E030000E7
:1000100000000000000000000000000000000000E0
:1000200000000000000000000000000000000000D0
:100030009E050000000000009E050000000000007A
:100040009E0500009E0500009E0500009E05000024
:100050009E0500009E0500009E0500009E05000014
:100060009E0500009E0500009E0500009E05000004
:100070009E0500009E0500009E0500009E050000F4
:100080009E0500009E0500009E0500009E050000E4
:100090009E0500009E0500009E0500000000000077
:1000A000511126C022C206C4828282441244A24058
:1000B000310182802A86014593F6150091C232955E
:1000C00085810606F5F9828000000000634E050276
:1000D00063C305042E86AA857D5515C285466378BF
:1000E000B6006356C00006068606E36CB6FE014500
:1000F00063E4C500918D558D85820582F5FA828075
:100100008682C93F2E8582823305A04063D70500D1
:10011000B305B040C1B7B305B0408682653F330533
:10012000A0408282868263C70500634905005D376F
:100130002E858282B305B040E35B05FE3305A04007
:10014000513F3305B04082820000EFF27FF5AA8470
:100150000546A14537150140B123214493978401F9
:10016000E187054663C30700014693050004371580
:1001700001400D2B054693050002371501401D2354
:100180007D1486040146930500023715014013745F
:10019000F40F93F4F40F392371F00146A14537159C
:1001A0000140092319B7EFF2BFEFA945AA84893F9F
:1001B000056442051304049041812295082171379A
:1001C0009305400626852D3F4205A94541811937F3
:1001D00042054181229508211375F507BD37930526
:1001E000803E2685313F4205930540064181DD353D
:1001F0004205418122950821893F9305803E26854D
:10020000D13D420541812A94082081371305F00F22
:100210002D3F61BDEFF2DFE821447D141305F00F9F
:100220001374F40F1D3775F849B5EFF27FE75111DC
:1002300085451305000202C002C202C43D23C14726
:100240007C8037150140C1473EC48A858547130528
:1002500005403EC2D12E310189BDEFF27FE4B744A3
:100260000140AA851385048009251304903E9384D8
:100270000480930500082685092509E57D144204BC
:10028000418011E01DB50545252DE5B7EFF25FE191
:10029000511113051003D137B747014093870780E9
:1002A00081441304803E3EC00245E1235C00A697D2
:1002B00088A3024593050002C92311E131E88504B2
:1002C000A147E393F4FE5C0093069100B8338507E1
:1002D000130707FDB8A3E39BF6FE1C8498831395D0
:1002E00017003E950E053E9593175700998F8A0784
:1002F000BA978E070A0598843E959C8531013E95F4
:1003000093172700BA9786073E954205418171BB36
:100310007D14420405454180652361BF01A001A011
:10032000EFF21FD851118545414502C002C202C4F7
:100330002D290D44C144A1478A85371501407C8091
:1003400026C422C2D524930700028A8537150140AE
:100350007C8026C422C2C92C930700048A853715E5
:1003600001407C8026C422C2C12431013DBBEFF292
:100370003FD31165111185451305050202C002C264
:1003800002C402C602C802CA02CCC52693070002F4
:100390007C80371401408D473EC28A85E1471305B2
:1003A00004403EC45124930700047C808A85914711
:1003B000130504403EC48D2C896737440140938760
:1003C00007583EC66C00B7070C00130504803ECAF0
:1003D00002C8231C01004D2E8545130504809D296C
:1003E0007101E1B1EFF2DFCB0545D124A9220D3F28
:1003F0005129B53F1D3D393D513D753313058025CC
:10040000C121DDBFEFF2DFC9371402401C403707BE
:10041000FFF8611193E717001CC05C404145F98F5C
:100420005CC01C403707F7FE7D17F98F1CC01C40CD
:100430003707FCFF7D17F98F1CC05C4041777D17A3
:10044000F98F5CC0B7079F001CC4BD241C4C370645
:10045000020093E707021CCCB717014003A707402F
:10046000938607401377F7F023A0E74003A70740E0
:100470001367070823A0E74089479CCA02C002C24D
:100480001C4C37070140A16693E717001CCC5C4366
:10049000D58F5CC31C404167B7160240D98F1CC082
:1004A00009679C42F18F3EC2824785073EC0924752
:1004B00081E78247E397E7FEB71702409C43139713
:1004C000E7006358070685473EC212478547631019
:1004D000F706B72702409843C176FD16719B98C373
:1004E00098431367170098C3B7170240D843D8C37F
:1004F000D843758FD8C3D843C166558FD8C39843A6
:10050000B7060001558F98C3984393166700E3DD43
:1005100006FED843B7160240719BD8C3D843136771
:100520002700D8C32147DC42B18BE39EE7FE2101BF
:10053000ADBE02C259BFEFF2BFB6371702405C43EF
:10054000370400209146B18B130404016385D70062
:10055000A1466380D704B7376E01938707601CC03C
:10056000B7160240DC420840918313F7F700B70743
:10057000002093870700BA978C23DC4293F5F50F90
:1005800093F707083357B50099E3A9362A8718C0AF
:1005900029BE5C43B777DC02938707C0C9B701A0C7
:1005A0009701002093818129138181FC17050000A8
:1005B00013050536970500209385C5A4170600206E
:1005C0001306C6A763FAC5008322050023A05500C1
:1005D00011059105E3EAC5FE17050020130505A6E0
:1005E000938581806377B500232005001105E36DB5
:1005F000B5FEB722000093820288739002308D42CC
:1006000073904280970200009382C29F93E232006F
:1006100073905230EFF01FDF970200009382C2DC2C
:100620007390123473002030944593F7060193F2CF
:10063000F60081C7DC41B3E2F20083D3050093F7F3
:10064000F30FA5C303230500611122C226C0814711
:10065000130480029304800405473316F70033F730
:10066000C3006312E602939527003D473317B70096
:100670001347F7FF33736700B395B20033E36500A8
:10068000639D860050C985072147E397E7FC124424
:1006900023206500824421018280E39696FE10C9E2
:1006A000DDB7828019C20CC982804CC98280B7072D
:1006B000002023ACA7028280371702401C430E059E
:1006C00093F777F05D8D08C38280EFF27F9D371737
:1006D00002405C4391462A84B18B6385D700A146D2
:1006E000638FD706B7376E01938707601CC0B716B4
:1006F0000240DC42918313F7F700B707002093878D
:100700008702BA978C23DC42184093F5F50F93F7D4
:1007100007083355B70099E33A856D3A48C008C4D5
:1007200048C4B7170240DC438D46AD83FD8B13D719
:1007300037008A07F18BD98F13F6370113F737008B
:1007400063F4C600138747FFB7070020938747016C
:10075000BA978C23EFF01F9808C86FF01F955C4381
:10076000B777DC02938707C051B799C537170240A6
:100770001C4F5D8D08CF8280B7170240984F1345FC
:10078000F5FF798D88CF8280EFF29F911629F5775A
:10079000FD17F58FF621DA252111D58F1EA95625D3
:1007A000FD779387379FF58FD6212A842EC0D58F6A
:1007B0009625D58FB625D58F5EA55E29C207C18344
:1007C00093F7F7CF5D8F5AA948000137B74701402B
:1007D0009387078082456312F406C2475A24139513
:1007E00017003E9542070E0541873E958C416358A0
:1007F00007048605EFF01F8E930540062AC0EFF030
:100800007F8D824793144500930540063E85EFF0A7
:100810003F8F5E24C207C18763D507020E0593058B
:10082000400613052503EFF0FF8A1D89C98CC20419
:10083000C18006A461016FF05F87B24745B78A05A2
:1008400055BF12059305400613052503EFF09F8859
:100850003D89E9BF91C55E250967D98F5EA5828074
:100860005A25F977FD17F98FD5BF93F5F51F4EA1DE
:1008700082804A211375F51F82800A216D8D3335E0
:10088000A0008280EFF2DF81B707002003A50701F7
:10089000B7157A0093850520EFF0DF831375F50F08
:1008A000B7070020238FA70293175500898F8A0767
:1008B0003E950E05B7070020239EA7026FF0EFFEBE
:1008C000EFF20FFE37F400E05C40AA85F99B5CC0B4
:1008D000B707002003D5C703EFF0CFFD08C82324D6
:1008E00004001C4093E717001CC0B7F700E0D84392
:1008F000058B75DF9843799B98C36FF00FFB000061
:0C090000C0F9A4B0999282F88090000029
:10090C000102030405060708010203040506070893
:10091C00006CDC020204060804080C1008101820F5
:10092C0010203040204060800102030405060708B7
:08093C0001020304050607088F
:00000001FF
