:100000006F00A06B00000000FA030000FE03000078
:1000100000000000000000000000000000000000E0
:1000200000000000000000000000000000000000D0
:1000300088060000000000008A06000000000000A2
:100040008C0600008E06000090060000920600005C
:100050009406000096060000980600009A0600002C
:100060009C0600009E060000A0060000A2060000FC
:10007000A4060000A6060000A8060000AA060000CC
:10008000AC060000AE060000B0060000B20600009C
:10009000B4060000B6060000B8060000000000002C
:1000A000511126C022C206C4828282441244A24058
:1000B000310182802A86014593F6150091C232955E
:1000C00085810606F5F9828000000000634E050276
:1000D00063C305042E86AA857D5515C285466378BF
:1000E000B6006356C00006068606E36CB6FE014500
:1000F00063E4C500918D558D85820582F5FA828075
:100100008682C93F2E8582823305A04063D70500D1
:10011000B305B040C1B7B305B0408682653F330533
:10012000A0408282868263C70500634905005D376F
:100130002E858282B305B040E35B05FE3305A04007
:10014000513F3305B04082820000EFF27FF501118C
:100150002AC08545454502C202C402C602C802CA79
:1001600002CC02CEEF007010854537052000EF006D
:10017000B0111147F1440D444C003715014078820D
:1001800026C622C46D2B09474C00371501407882E2
:1001900026C622C46D238247375400400C083EC84F
:1001A000B707FFBF3ECAB70700043ECC13050440A3
:1001B0009167FC86EF00A066130504408545EF00BB
:1001C0002074854513050440EF0040780561F1BDBA
:1001D000EFF21FED37040020130484030C2049457F
:1001E00093E525020CA0192A0545EF0050200C20AC
:1001F000494593F5F50D0CA011220545EF00301F80
:100200006DB5EFF2FFE9AA854D45CD28D13771BD17
:10021000EFF21FE9B707002083C6870305462A844B
:100220009387870313E726086384C50013F7F6074F
:10023000BA85494598A3D9202285E137BDB5EFF2AB
:100240003FE66165B70700201305056A238C0702A6
:10025000ED3D51228145130580035D3F2945EF00A7
:10026000101981451305800365372945EF003018C3
:10027000814513058003693F81453145513F8145E3
:100280000545793781451945613705B5EFF25FE1DD
:1002900081450545B53F814509459D3F39B5EFF29B
:1002A0003FE089476381F5028D476380F50285470A
:1002B0006390F50213050504136505F88145137570
:1002C000F50FB937DDB35105C5BF13054505EDB7CA
:1002D000814513650508F5B7EFF29FDC8545137579
:1002E000F50F3D37D9B3EFF2BFDB32844D3F030545
:1002F000040011E15DBB0504C537D5BFEFF25FDA3D
:10030000B75700402A84AE84938607403685B705E8
:1003100002004125B7570040054793860740E30791
:10032000E5FE85453685CD2BB70703008507375792
:100330000040BE85130507409125B70703003757D6
:10034000004085076DD5014693050004130507405D
:10035000292DB70707009387270837570040BE8528
:1003600013050740212DB707070037570040938733
:10037000270865D5A28513050740F523B7070700B1
:100380009387470837540040BE8513050440FD237A
:10039000B70707009387470875D5B7050010938501
:1003A000050813050440F52385476316F500A68567
:1003B000130504404D2B3704070013044408B754B9
:1003C0000040A28513850440552B75D985451385BA
:1003D00004408523D9B9EFF2BFCCE1452945393F27
:1003E00081450145213F81450545093F81454945F5
:1003F000313781454D4519374DB97300203001A083
:10040000EFF21FCA511185451305000202C002C256
:1004100002C4A12DC1477C8037150140C1473EC4AD
:100420008A858D47130505403EC2112E3101B5B9AD
:10043000EFF21FC751112A84AE8405458545A925D1
:100440003705004002C002C223140100592D3705B0
:100450000040EF002073814537050040EF008073B6
:100460007D148A85FD143705004064806082231165
:100470000100231301006525854537050040FD2552
:10048000310125B1EFF2DFC141110945252B792258
:10049000853F89650565938505711305052C493FE1
:1004A000292F713BE53337160000130606238145DB
:1004B0000545153D0144B7140000228693850424A8
:1004C0000A85EF0090540A8685451945293D370570
:1004D0000040C92D8567938707962A84054663E304
:1004E000A700014637150140C145130505401D26EB
:1004F000E9B7B71702409843B706FFFC61111367CD
:10050000170098C3D843758FD8C39843B706F7FE32
:10051000FD16758F98C39843B706FCFFFD16758FBF
:1005200098C3D843C176FD16758FD8C337079F008F
:1005300098C7984F1367070298CF37170140832653
:1005400007401306074093F6F6F02320D740832692
:10055000074093E606082320D740094718CA02C07F
:1005600002C2984FB706014021661367170098CF63
:10057000D842518FD8C29843C16637060200558FC2
:1005800098C3B716024009679C42F18F3EC282476A
:1005900085073EC0924781E78247E397E7FEB7179A
:1005A00002409C431397E7006358070685473EC205
:1005B000124785476310F706B72702409843C17674
:1005C000FD16719B98C398431367170098C3B7171C
:1005D0000240D843D8C3D843758FD8C3D843C16627
:1005E000558FD8C39843B7060001558F98C39843D9
:1005F00093166700E3DD06FED843B7160240719BF1
:10060000D8C3D84313672700D8C32147DC42B18B36
:10061000E39EE7FE2101828002C259BFEFF25FA88C
:10062000371702405C43370400209146B18B130416
:1006300004016385D700A1466380D704B7376E01F4
:10064000938707601CC0B7160240DC4208409183C4
:1006500013F7F700B707002093870700BA978C239A
:10066000DC4293F5F50F93F707083357B50099E38C
:1006700095342A8718C015BC5C43B777DC02938792
:1006800007C0C9B701A001A001A001A001A001A05D
:1006900001A001A001A001A001A001A001A001A052
:1006A00001A001A001A001A001A001A001A001A042
:1006B00001A001A001A001A001A097010020938149
:1006C000E117138181FC17150000130565B8970524
:1006D000002093852593170600201306269663FABB
:1006E000C5008322050023A0550011059105E3EA0A
:1006F000C5FE17050020130565949385C1806377B7
:10070000B500232005001105E36DB5FE9302000836
:10071000739002308D427390428097020000938262
:10072000628E93E2320073905230EFF09FDC9702BA
:100730000000938262D573901234730020309C4580
:10074000611122C226C013F7070113F3F70001C796
:10075000D8413363E30092211377F60F29C783232F
:100760000500014713048002930480048546B39575
:10077000E600B376B6006392D50293122700BD4619
:10078000B396560093C6F6FFB3F37600B312530048
:10079000B3E37200639787064CC90507A146E317C8
:1007A000D7FC232075001307F00F6378C704832359
:1007B0004500A14613048002930480040547B31248
:1007C000D700337756006394E2021397260001178F
:1007D000BD45B395E50093C5F5FFB3F37500331739
:1007E000E300B363770063928702232A55008506EE
:1007F0004147E395E6FC232275001244824421011F
:100800008280E39C97F80CC949BFE39297FE2328A6
:100810005500F1BF19C20CC982804CC98280EFF229
:100820003F88111146212A8428002EC04D22C2463D
:10083000C204C18093F404FCB7450F0093850524DE
:100840003685C20436C2C180EFF0DF88458D42058F
:1008500041814AA01E209246C207C183F99BC2076C
:10086000C1831EA082479043E1679387076A93156F
:10087000160063E6C7043685EFF0DF85AA874205D8
:10088000418191466373D5009147139507014181DA
:100890004AAC1E20024793E717001EA01E205623D5
:1008A0003227C207C183D18E93F757BFD58F1EA0C1
:1008B00016275E27D58F1EA471016FF00FFF8247A8
:1008C000EA23B167FD176310F502B2953685EFF0A4
:1008D0007F80420541819317450199E31365150017
:1008E000A1675D8D75B7B387C5008E07B385C70057
:1008F0003685EFF02FFE4205418191675D8DE1BFA6
:100900001E2189C593E717001EA18280C207C183FB
:10091000F99BC207C183CDBF1E2189C593E707108C
:100920001EA18280C207C18393F7F7EFC207C1837C
:10093000C5BF1E2189C593E707201EA18280C2077B
:10094000C18393F7F7DFC207C183C5BF1E2189C5E5
:1009500093E707401EA18280C207C18393F7F7BFC8
:10096000C207C183C5BF0EA9828093F7E50F19C2E4
:1009700093E71500C207C1831EA982805E290A2D54
:1009800042055D8D6D8D220521810D8D133515007C
:100990008280611102C002C293D7C5012AC23EC043
:1009A0008247A205A18199CB9247D1073EC29247C7
:1009B000884321016D8D3335A00082809247C1812B
:1009C000E107EDB7B707002023AEA7028280EFF260
:1009D0002FED371702405C4391462A84B18B638523
:1009E000D700A146638DD706B7376E01938707609E
:1009F0001CC0B7160240DC42918313F7F700B7071B
:100A0000002093878702BA978C23DC42184093F525
:100A1000F50F93F707083355B70081E73A85EFF0F4
:100A20006FEB48C008C448C4B7170240DC43AD832D
:100A3000FD8B13D737008A07F18BD98F93F63701D7
:100A40000D476373D700D1173707002013074701FD
:100A5000BA978C23EFF00FE808C86FF00FE55C43FE
:100A6000B777DC02938707C061B799C53717024093
:100A70001C4F5D8D08CF8280B7170240984F1345F9
:100A8000F5FF798D88CF828099C5371702405C4F7A
:100A90005D8D48CF8280B7170240D84F1345F5FFD0
:100AA000798DC8CF828099C5371702405C475D8D2C
:100AB00048C78280B7170240D8471345F5FF798DA4
:100AC000C8C7828099C5371702401C4B5D8D08CB83
:100AD0008280B7170240984B1345F5FF798D88CB7C
:100AE0008280EFF2EFDBB7370140938707C0631DC9
:100AF000F5000564854513050480753781451305A8
:100B0000048055376FF06FDAB7070040E31CF5FE3D
:100B100085450545453F814505456D37E5B71E21AE
:100B200037370140130707C0C207C1836306E500DA
:100B3000370700406316E500BA2193F7F7F8D98F1D
:100B4000FA2193F7F7CFC207C183D98F1EA1DE2107
:100B50005EB59E211EB5B7370140938707C0631469
:100B6000F5009C251EB985475EA982801E2189C596
:100B700093E717001EA18280C207C183F99BC207B9
:100B8000C183CDBF1E25C207C183E19BC207C183BC
:100B90001EA582801E25C207C18393F7F7F8DD8D5D
:100BA0000EA582804A31828093F5F51F4EA1828086
:100BB0000A216D8D3335A0008280EFF26FCEB7072A
:100BC000002003A50701B7157A0093850520EFF0F3
:100BD0006FD01375F50F2385A18093175500898F6A
:100BE0008A073E950E052394A1806FF00FCCEFF29B
:100BF0002FCB37F400E05C40AA85F99B5CC003D59D
:100C00008180EFF02FCB08C8232404001C4093E719
:100C100017001CC0B7F700E0D843058B75DF984379
:100C2000799B98C36FF06FC8EFF28FC77111AE84D4
:100C30000144635DC402B7470140138707803A85CA
:100C40009305000432C0AD37B747014013870780D2
:100C5000024675D533878400830507001385078016
:100C60000504C205C18189370246E1B73285110109
:100C70006FF0AFC3411106C62EC00DCD1841AA8733
:100C800005C358417D5511CB8546631BD700984756
:100C90002300070023A207000545B24041018280DE
:100CA0009847824614A39847050798C7D8437D17ED
:100CB000D8C3DDB705468A85853FF9BF011122CC2F
:100CC0002EC206CE26CA2A848147930500026345B8
:100CD00006029245BE95838505008DE563D8C7025F
:100CE00063D4E702198E1305000293F526002AC08B
:100CF00089C501E7930500032EC0858A814495EAE2
:100D0000B2840DA08507F1B71D8EF1BF0146E1BF8A
:100D1000824522853AC832C63EC4A93FA247324620
:100D20004247FD14E34690FEB284635306008144BB
:100D3000058E63C7E702A6879246338797403697AA
:100D40008305070095EDB284634490046353060065
:100D50000146F2406244D2443305F60005618280C8
:100D60001D8FBA8793050003228532C83EC63AC458
:100D70001137B24722474246FD17EDF7BA9465BFD7
:100D8000228532C63EC4FD35A247324685076DB77F
:100D90008245228532C43EC2F13DFD14224692476F
:100DA00065B7397106DE22DC26DA3EC232833A8626
:100DB00089ED92469307000301476C08FC86FD3DD0
:100DC000F2506254D25421618280AA843684AE8764
:100DD00091CA294701446317E30063D50500B307AF
:100DE000B04005448646A3090102130731039386E8
:100DF00066FC36C49A853E8532CA3AC81AC63EC0D9
:100E0000EFF00FB0A546824732434247524663D4C3
:100E1000A600A2463695130505039306F7FFA30F18
:100E2000A7FE9A853E8532CC3ACA1AC83EC636C05D
:100E3000EFF04FAAB24742435247624663F9670454
:100E400001CC29CA9247898BB1C79305D002268568
:100E500032C40D3522467D169247918B95C30647C5
:100E60009307100632C4930500032685631EF7021C
:100E70001135930580072685F53B2246090479162E
:100E80001647924682452685153D229515BFAA87AD
:100E900002478DB782469307D0020144A38FF6FE26
:100EA0009307E7FF3EC04DBFF13393058005E1B7DF
:100EB0000145828001458280130181FD22D026CE2A
:100EC00006D22AC4AE82328402C6814483850200DF
:100ED00089EDA24781C781453E85693B9250025406
:100EE0002685F244130181028280930750026388B1
:100EF000F500224516C88504B53BC24239A8838750
:100F0000120013871200639CB7002245930550021C
:100F10003AC88D3342478504BA82850245BFD5DB86
:100F20009306B0026389D70463C8F60093063002C3
:100F30006386D704814705A09306D002638AD70051
:100F400093060003E398D7FE13872200894721A068
:100F5000138722008547830607001306B0026383C8
:100F6000C6046341D60213063002638BC602BA82FE
:100F70000145A54681A0138722006DBF138722007B
:100F80009147D1BF1306D0026389C6001306000340
:100F9000E39FC6FC93E7270031A005078547C1BF43
:100FA00093E747000507E1B71316250032950605BC
:100FB0003A95850203860200130706FD9375F70F25
:100FC000E3F4B6FE1307E0029946631EE6008502CD
:100FD0008146A54503860200130606FD1377F60F2A
:100FE00063F5E50236C6038702001306A006630D0B
:100FF000C70A6343E6021306C0046307C70A130661
:101000008006630CC70881452DA813972600BA9661
:101010008606B29685027DBF130640076306C708A1
:101020001306A0076302C7081306C0068145631AAA
:10103000C700038612008D456314E60085029145C2
:10104000850203860200930300061307100663C49B
:10105000C300130710049303700663C4C30693030D
:101060005006635376189303700463C1C304930559
:101070005004635BB61613073004E310E6EA184029
:101080009303440016CA230CE1001EC8A30C010000
:101090000147BE862A862C0849A80386120081458E
:1010A000E311E6FA890271BF8502B1BF93063006EB
:1010B000E307D6FC63CEC606930680056303D6021B
:1010C000A9BD930630076304D60463CBC60293061A
:1010D000F0066302D60E9306000793E74700E31E6F
:1010E000D6E29146639FD50A930384000C4050409A
:1010F00016CA3AC23EC01EC8AA870147C146B9A057
:10110000930650076308D6069306800745BF18402C
:10111000B7160000930344009385462411C3BA8593
:10112000324716CA1EC8BE862A862245413E0DA0F9
:1011300091466394D502930384000C40504016CA34
:101140003AC23EC01EC8AA870547A94622458D332C
:10115000C243AA941E84D242C9B3B2460C4016C8F8
:1011600036C23AC011042A878546294622451539D8
:10117000AA9461B39146639DD500930384000C400B
:10118000504016CA3AC23EC01EC8AA87014775BF62
:10119000B2460C4016C836C23AC011042A878146AE
:1011A000E9B7B24616C80C40414636C23AC01104EF
:1011B0002A87814665BF9146639ED50093038400CC
:1011C0000C40504016CA3AC23EC01EC8AA8701470A
:1011D000A146ADBFB2460C4016C836C23AC0110493
:1011E0002A878146214659B70C40130684004040A7
:1011F0003AC22A87224532C83EC02286B687A9460F
:1012000016CA4D39AA944244B9B7130141FD32CEF2
:101210003ED42AC67008FD57480006CC36D03AD2D4
:1012200002C23EC432C04939E2401301C102828089
:10123000574348333220434833325630303300006E
:0C12400025752000286E756C6C290000DC
:10124C00010203040506070801020304050607084A
:10125C00006CDC020204060804080C1008101820AC
:10126C00102030402040608001020304050607086E
:08127C00010203040506070846
:00000001FF
