:100000006F00006300000000DA030000DC03000062
:1000100000000000000000000000000000000000E0
:1000200000000000000000000000000000000000D0
:100030002E060000000000002E0600000000000058
:100040002E0600002E0600002E0600002E060000E0
:100050002E0600002E0600002E0600002E060000D0
:100060002E0600002E0600002E0600002E060000C0
:100070002E0600002E0600002E0600002E060000B0
:100080002E0600002E0600002E0600002E060000A0
:100090002E0600002E0600002E06000000000000C4
:1000A000511126C022C206C4828282441244A24058
:1000B000310182802A86014593F6150091C232955E
:1000C00085810606F5F9828000000000634E050276
:1000D00063C305042E86AA857D5515C285466378BF
:1000E000B6006356C00006068606E36CB6FE014500
:1000F00063E4C500918D558D85820582F5FA828075
:100100008682C93F2E8582823305A04063D70500D1
:10011000B305B040C1B7B305B0408682653F330533
:10012000A0408282868263C70500634905005D376F
:100130002E858282B305B040E35B05FE3305A04007
:10014000513F3305B04082820000EFF27FF501118C
:100150002AC08545454502C202C402C602C802CA79
:1001600002CC02CEEF005003854537052000EF009A
:1001700090041147F1440D444C003715014078823A
:1001800026C622C4152B09474C003715014078823A
:1001900026C622C415238247375400400C083EC8A7
:1001A000B707FFBF3ECAB70700043ECC13050440A3
:1001B0009167FC864123130504408545EF00A06547
:1001C000854513050440EF00C0690561F9BDEFF2F4
:1001D0003FED370400201304940308201365450005
:1001E00008A09D220545EF00B01308201375950F58
:1001F00008A0992A0545EF00B01245BDEFF25FEA6D
:100200003704002013049403AA84082093F704FF02
:1002100092043D895D8D08A0052A553F08203D893F
:10022000458D1375F50F08A005225537BDBDEFF2BA
:100230003FE7B707002003C797032A8493879703F4
:100240009DC585466388D50237070020834687030E
:10025000982385C60546136787006381C6028823F5
:10026000E5202285613F0545EF00900B3DBD519B88
:1002700098A3D9BF13671700E5BF5D9B98A3C5B7C7
:10028000EFF21FE20547B707002037040020616541
:10029000238CE7021304940391471305056A1CA0FD
:1002A0006D35082055202945EF009007814513053D
:1002B0003003B53F814513052003953F8145130564
:1002C0008002B537814531459D37814505458537E4
:1002D00081451945A93FD1BBEFF29FDC85451375D8
:1002E000F50FB137D9B3EFF2BFDB81450545813753
:1002F000814509452D3F55BBEFF29FDA8947638160
:10030000F5028D476380F50285476390F50213057A
:100310000504136505F881451375F50F093F71B3A1
:100320005105C5BF13054505EDB7814513650508A2
:10033000F5B7EFF2FFD63284C1370305040011E1AF
:10034000ADB30504513FD5BFEFF29FD53754004000
:10035000AA84130704403A85B7050200B123375732
:100360000040854713070740E307F5FE13050440E7
:1003700085453704030065290504B75700401385F8
:100380000740A2853923B757004065D90146930538
:10039000E0041385074037040700DD211304240817
:1003A000B757004013850740A285E521B7570040A5
:1003B00065D9A6851385074037040700C1211304BA
:1003C0004408B7540040A28513850440D92175D94B
:1003D0008545138504408D29C9B901A001A0EFF21C
:1003E0003FCC51112A84AE8405458545E923370564
:1003F000004002C002C223140100192D370500403D
:100400004D2D8145370500406D2D7D148A85FD14E5
:10041000370500406480608223110100231301002E
:100420003525310159B1EFF2BFC75111054575218D
:10043000592A6D2D416593050003130585DE453767
:1004400081355535371600001306461681450D4592
:10045000CD350144B7140000814537050040952D86
:10046000854537050040152D2286938504170A859A
:10047000EF00D04C0A8685451945653D8145370515
:100480000040212D37050040B9252A8413050019A5
:10049000412DD9B7EFF2DFC0371402401C403707B7
:1004A000FFF8611193E717001CC05C404145F98FCC
:1004B0005CC01C403707F7FE7D17F98F1CC01C403D
:1004C0003707FCFF7D17F98F1CC05C4041777D1713
:1004D000F98F5CC0B7079F001CC429211C4C37064C
:1004E000020093E707021CCCB717014003A707409F
:1004F000938607401377F7F023A0E74003A7074050
:100500001367070823A0E74089479CCA02C002C2BC
:100510001C4C37070140A16693E717001CCC5C43D5
:10052000D58F5CC31C404167B7160240D98F1CC0F1
:1005300009679C42F18F3EC2824785073EC09247C1
:1005400081E78247E397E7FEB71702409C43139782
:10055000E7006358070685473EC212478547631088
:10056000F706B72702409843C176FD16719B98C3E2
:1005700098431367170098C3B7170240D843D8C3EE
:10058000D843758FD8C3D843C166558FD8C3984315
:10059000B7060001558F98C3984393166700E3DDB3
:1005A00006FED843B7160240719BD8C3D8431367E1
:1005B0002700D8C32147DC42B18BE39EE7FE21012F
:1005C000EDB402C259BFEFF2BFAD371702405C4332
:1005D000370400209146B18B130404016385D700D2
:1005E000A1466380D704B7376E01938707601CC0AC
:1005F000B7160240DC420840918313F7F700B707B3
:10060000002093870700BA978C23DC4293F5F50FFF
:1006100093F707083357B50099E36D3C2A8718C054
:1006200069B45C43B777DC02938707C0C9B701A000
:100630009701002093818120138181FC1715000010
:10064000130505B4970500209385C59B1706002068
:100650001306C69E63FAC5008322050023A0550039
:1006600011059105E3EAC5FE170500201305059D58
:100670009385C1806377B500232005001105E36DE4
:10068000B5FEB722000093820288739002308D423B
:1006900073904280970200009382C29693E23200E8
:1006A00073905230EFF01FDF970200009382E2D781
:1006B0007390123473002030944593F7060193F23F
:1006C000F60081C7DC41B3E2F20083D3050093F763
:1006D000F30FA5C303230500611122C226C0814781
:1006E000130480029304800405473316F70033F7A0
:1006F000C3006312E602939527003D473317B70006
:100700001347F7FF33736700B395B20033E3650017
:10071000639D860050C985072147E397E7FC124493
:1007200023206500824421018280E39696FE10C951
:10073000DDB78280EFF2DF96111146212A8428006E
:100740002EC0552AC246C204C18093F404FCB745AA
:100750000F00938505243685C20436C2C180EFF0B0
:100760007F97458D420541814AA01E209246C207CF
:10077000C183F99BC207C1831EA082479043E167F2
:100780009387076A9315160063E6C7043685EFF072
:100790007F94AA874205418191466373D5009147B2
:1007A0001395070141814AAC1E20024793E71700C9
:1007B0001EA01E2056233227C207C183D18E93F775
:1007C00057BFD58F1EA016275E27D58F1EA4710197
:1007D0006FF0BF8D8247EA23B167FD176310F50202
:1007E000B2953685EFF01F8F420541819317450181
:1007F00099E313651500A1675D8D75B7B387C500D3
:100800008E07B385C7003685EFF0DF8C4205418146
:1008100091675D8DE1BF1E2189C593E717001EA179
:100820008280C207C183F99BC207C183CDBF1E214D
:1008300089C593E707101EA18280C207C18393F781
:10084000F7EFC207C183C5BF1E2189C593E7072003
:100850001EA18280C207C18393F7F7DFC207C1835D
:10086000C5BF1E2189C593E707401EA18280C2072C
:10087000C18393F7F7BFC207C183C5BF0EA98280AA
:1008800093F7E50F19C293E71500C207C1831EA9AC
:1008900082805E290A2D42055D8D6D8D22052181A4
:1008A0000D8D133515008280611102C002C293D7ED
:1008B000C5012AC23EC08247A205A18199CB9247B9
:1008C000D1073EC29247884321016D8D3335A00088
:1008D00082809247C181E107EDB7B707002023AEC0
:1008E000A7028280371702401C430E0593F777F06A
:1008F0005D8D08C38280EFF2AFFA371702405C4388
:1009000091462A84B18B6385D700A1466380D708BE
:10091000B7376E01938707601CC0B7160240DC42F0
:10092000918313F7F700B707002093878702BA97E0
:100930008C23DC42184093F5F50F93F707083355E5
:10094000B70081E73A85EFF0EFF848C008C448C423
:10095000B7170240DC438D46AD83FD8B13D73700BC
:100960008A07F18BD98F13F6370113F7370063F439
:10097000C600138747FFB707002093874701BA9740
:100980008C23EFF02FF508C86FF02FF25C43B77798
:10099000DC02938707C049B799C5371702401C4F3F
:1009A0005D8D08CF8280B7170240984F1345F5FF41
:1009B000798D88CF828099C5371702405C4F5D8D55
:1009C00048CF8280B7170240D84F1345F5FF798D85
:1009D000C8CF828099C5371702405C475D8D48C7F4
:1009E0008280B7170240D8471345F5FF798DC8C7F5
:1009F000828099C5371702401C4B5D8D08CB8280E1
:100A0000B7170240984B1345F5FF798D88CB82804C
:100A1000EFF20FE9B7370140938707C0631DF50078
:100A200005648545130504807537814513050480E9
:100A300055376FF08FE7B7070040E31CF5FE85459B
:100A40000545453F814505456D37E5B71E213737DB
:100A50000140130707C0C207C1836306E5003707DB
:100A600000406316E500BA2193F7F7F8D98FFA2111
:100A700093F7F7CFC207C183D98F1EA1DE215EB5E0
:100A80009E211EB5B7370140938707C06314F50058
:100A90009C251EB985475EA982801E2189C593E7E2
:100AA00017001EA18280C207C183F99BC207C183C0
:100AB000CDBF1E25C207C183E19BC207C1831EA50E
:100AC00082801E25C207C18393F7F7F8DD8D0EA53E
:100AD00082804EB182804A31828093F5F51F4EA10B
:100AE00082800A216D8D3335A0008280EFF24FDBCA
:100AF000B707002003A50701B7157A0093850520E5
:100B0000EFF04FDD1375F50F2385A1809317550086
:100B1000898F8A073E950E052394A1806FF0EFD848
:100B2000EFF20FD837F400E05C40AA85F99B5CC077
:100B300003D58180EFF00FD808C8232404001C409F
:100B400093E717001CC0B7F700E0D843058B75DFAB
:100B50009843799B98C36FF04FD5EFF26FD4711122
:100B6000AE840144635DC402B74701401387078028
:100B70003A859305000432C0AD37B747014013876B
:100B80000780024675D533878400830507001385E7
:100B900007800504C205C18189370246E1B7328565
:100BA00011016FF08FD0411106C62EC00DCD184136
:100BB000AA8705C358417D5511CB8546631BD700D5
:100BC00098472300070023A207000545B2404101D2
:100BD00082809847824614A39847050798C7D84350
:100BE0007D17D8C3DDB705468A85853FF9BF01115A
:100BF00022CC2EC206CE26CA2A8481479305000243
:100C0000634506029245BE95838505008DE563D850
:100C1000C70263D4E702198E1305000293F526007C
:100C20002AC089C501E7930500032EC0858A814447
:100C300095EAB2840DA08507F1B71D8EF1BF01467C
:100C4000E1BF824522853AC832C63EC4A93FA247C9
:100C500032464247FD14E34690FEB28463530600D9
:100C60008144058E63C7E702A68792463387974083
:100C700036978305070095EDB2846344900463536F
:100C800006000146F2406244D2443305F600056195
:100C900082801D8FBA8793050003228532C83EC625
:100CA0003AC41137B24722474246FD17EDF7BA94CE
:100CB00065BF228532C63EC4FD35A2473246850750
:100CC0006DB78245228532C43EC2F13DFD142246F5
:100CD000924765B7397106DE22DC26DA3EC23283DE
:100CE0003A8689ED92469307000301476C08FC861B
:100CF000FD3DF2506254D25421618280AA84368430
:100D0000AE8791CA294701446317E30063D5050004
:100D1000B307B04005448646A30901021307310317
:100D2000938666FC36C49A853E8532CA3AC81AC68E
:100D30003EC0EFF0EFBCA5468247324342475246E1
:100D400063D4A600A2463695130505039306F7FF64
:100D5000A30FA7FE9A853E8532CC3ACA1AC83EC672
:100D600036C0EFF02FB7B24742435247624663F9AD
:100D7000670401CC29CA9247898BB1C79305D00279
:100D8000268532C40D3522467D169247918B95C338
:100D900006479307100632C4930500032685631E99
:100DA000F7021135930580072685F53B2246090495
:100DB00079161647924682452685153D229515BF20
:100DC000AA8702478DB782469307D0020144A38FBA
:100DD000F6FE9307E7FF3EC04DBFF1339305800554
:100DE000E1B70145828001458280130181FD22D057
:100DF00026CE06D22AC4AE82328402C681448385BE
:100E0000020089EDA24781C781453E85693B92502A
:100E100002542685F2441301810282809307500216
:100E20006388F500224516C88504B53BC24239A83F
:100E30008387120013871200639CB7002245930535
:100E400050023AC88D3342478504BA82850245BFB5
:100E5000D5DB9306B0026389D70463C8F600930616
:100E600030026386D704814705A09306D002638AC7
:100E7000D70093060003E398D7FE13872200894723
:100E800021A0138722008547830607001306B002BE
:100E90006383C6046341D60213063002638BC60225
:100EA000BA820145A54681A0138722006DBF138732
:100EB00022009147D1BF1306D0026389C6001306F2
:100EC0000003E39FC6FC93E7270031A00507854791
:100ED000C1BF93E747000507E1B713162500329518
:100EE00006053A95850203860200130706FD9375F1
:100EF000F70FE3F4B6FE1307E0029946631EE6001F
:100F000085028146A54503860200130606FD137778
:100F1000F60F63F5E50236C6038702001306A00646
:100F2000630DC70A6343E6021306C0046307C70ADA
:100F300013068006630CC70881452DA81397260069
:100F4000BA968606B29685027DBF130640076306F1
:100F5000C7081306A0076302C7081306C006814529
:100F6000631AC700038612008D456314E6008502EC
:100F700091458502038602009303000613071006BD
:100F800063C4C300130710049303700663C4C3064D
:100F900093035006635376189303700463C1C3042C
:100FA00093055004635BB61613073004E310E6EABA
:100FB00018409303440016CA230CE1001EC8A30C7A
:100FC00001000147BE862A862C0849A80386120024
:100FD0008145E311E6FA890271BF8502B1BF93062C
:100FE0003006E307D6FC63CEC6069306800563038E
:100FF000D602A9BD930630076304D60463CBC602AC
:101000009306F0066302D60E9306000793E74700A7
:10101000E31ED6E29146639FD50A930384000C40F9
:10102000504016CA3AC23EC01EC8AA870147C146F0
:10103000B9A0930650076308D6069306800745BFFC
:101040001840B7160000930344009385461711C358
:10105000BA85324716CA1EC8BE862A862245413E38
:101060000DA091466394D502930384000C40504038
:1010700016CA3AC23EC01EC8AA870547A9462245DD
:101080008D33C243AA941E84D242C9B3B2460C40E7
:1010900016C836C23AC011042A8785462946224519
:1010A0001539AA9461B39146639DD50093038400DA
:1010B0000C40504016CA3AC23EC01EC8AA8701471B
:1010C00075BFB2460C4016C836C23AC011042A8712
:1010D0008146E9B7B24616C80C40414636C23AC00E
:1010E00011042A87814665BF9146639ED50093030C
:1010F00084000C40504016CA3AC23EC01EC8AA879F
:101100000147A146ADBFB2460C4016C836C23AC030
:1011100011042A878146214659B70C4013068400E2
:1011200040403AC22A87224532C83EC02286B6874E
:10113000A94616CA4D39AA944244B9B7130141FDD4
:1011400032CE3ED42AC67008FD57480006CC36D0B1
:101150003AD202C23EC432C04939E2401301C10250
:1011600082800000485720493243204C434400000D
:0C11700025642000286E756C6C290000BE
:10117C00010203040506070801020304050607081B
:10118C00006CDC020204060804080C10081018207D
:10119C00102030402040608001020304050607083F
:0811AC00010203040506070817
:00000001FF
