:100000006F008055000000004A0100004E01000012
:1000100000000000000000000000000000000000E0
:1000200000000000000000000000000000000000D0
:100030002605000000000000280500000000000068
:100040002A0500002C0500002E05000030050000E8
:1000500032050000340500003605000038050000B8
:100060003A0500003C0500003E0500004005000088
:100070004205000044050000460500004805000058
:100080004A0500004C0500004E0500005005000028
:100090005205000054050000560500000000000055
:1000A000511126C022C206C4828282441244A24058
:1000B000310182802A86014593F6150091C232955E
:1000C00085810606F5F9828000000000634E050276
:1000D00063C305042E86AA857D5515C285466378BF
:1000E000B6006356C00006068606E36CB6FE014500
:1000F00063E4C500918D558D85820582F5FA828075
:100100008682C93F2E8582823305A04063D70500D1
:10011000B305B040C1B7B305B0408682653F330533
:10012000A0408282868263C70500634905005D376F
:100130002E858282B305B040E35B05FE3305A04007
:10014000513F3305B040828200007300203001A08F
:10015000EFF21FF551118545414502C002C202C4AC
:100160004D2B8545130500026D2337150140AD2148
:1001700037140140130504408521930700087C8053
:100180008A8593078004371501403EC44929F14709
:100190007C80C1473EC48A858947130504403EC21E
:1001A000BD29310119B7EFF2BFEF61110945A92B44
:1001B00001442126692B693F02C0930500083715C9
:1001C00001400D2B39E1B71401400546C1451385A7
:1001D0000440352313058002452B014691451385C4
:1001E0000440312B0146A14513850440092B050429
:1001F0001374F40F914763F38700014437150140EE
:100200000146C14513050540DD298947630DF40CFE
:1002100063EB870485476304F40A9947B7140140E8
:1002200001469145138504403EC2D1290546A145AA
:1002300013850440E9211305C003B9230546914500
:10024000138504406D290146A145138504404529C5
:100250001305C003152B9247FD1793F7F70FDDFF2A
:1002600013054010BDA88D476303F40A1147994751
:10027000E316E4FAB714014005469145138504409E
:100280003EC2B5290546A145138504408D291305B5
:100290008002DD2901469145138504408D210146E8
:1002A000A14513850440A12913058002F129924735
:1002B000FD1793F7F70FDDFF1305C0121DA00246CF
:1002C000B7140140914513850440152982471385D1
:1002D0000440A14593C717003E863EC00D2113057B
:1002E000000A5D21D9BD0246B7140140914513852E
:1002F000044031210246A14513850440092113051C
:10030000000A5921824793C717003EC07DB53715B3
:1003100001400146A14513050540D5268D44B71778
:1003200001401385074005469145D12E1305C003B2
:10033000A129B71701401385074001469145C12601
:100340001305C003FD14892193F4F40FB71701407E
:10035000F9F401469145138507405526A284B71745
:100360000140138507400546A145512E1305C003E2
:100370002129B7170140138507400146A1454126B1
:10038000FD141305C00393F4F40FFD2EE9F835B501
:10039000B71702409843B706FFFC611113671700B7
:1003A00098C3D843758FD8C39843B706F7FEFD1698
:1003B000758F98C39843B706FCFFFD16758F98C3D9
:1003C000D843C176FD16758FD8C337079F0098C7ED
:1003D000984F1367070298CF3717014083260740CD
:1003E0001306074093F6F6F02320D74083260740F4
:1003F00093E606082320D740094718CA02C002C264
:10040000984FB706014021661367170098CFD8426E
:10041000518FD8C29843C16637060200558F98C3E2
:10042000B716024009679C42F18F3EC2824785079A
:100430003EC0924781E78247E397E7FEB717024045
:100440009C431397E7006358070685473EC212474F
:1004500085476310F706B72702409843C176FD161B
:10046000719B98C398431367170098C3B71702404E
:10047000D843D8C3D843758FD8C3D843C166558FE6
:10048000D8C39843B7060001558F98C39843931675
:100490006700E3DD06FED843B7160240719BD8C360
:1004A000D84313672700D8C32147DC42B18BE39EB2
:1004B000E7FE2101828002C259BFEFF27FBE3717EB
:1004C00002405C43370400209146B18B13040401C1
:1004D0006385D700A1466380D704B7376E01938741
:1004E00007601CC0B7160240DC420840918313F736
:1004F000F700B707002093870700BA978C23DC42E8
:1005000093F5F50F93F707083357B50099E3D936FC
:100510002A8718C059BE5C43B777DC02938707C0AF
:10052000C9B701A001A001A001A001A001A001A0E4
:1005300001A001A001A001A001A001A001A001A0B3
:1005400001A001A001A001A001A001A001A001A0A3
:1005500001A001A001A001A0970100209381012C1E
:10056000138181FE1305807C97050020938585A962
:1005700017060020130686AA63FAC5008322050029
:1005800023A0550011059105E3EAC5FE17050020DB
:100590001305C5A8938581806377B50023200500E6
:1005A0001105E36DB5FE93020008739002308D4291
:1005B00073904280970200009382C2A493E23200BB
:1005C00073905230EFF0DFDC970200009382E2BDBF
:1005D0007390123473002030EFF29FACB7170140D4
:1005E000138707806319E5008545114591228145F0
:1005F00011453D2A5DBC6318F500854541450D2A2E
:1006000081454145FDB793870740E315F5FE8545D4
:1006100013050002312A814513050002D9BF9C450C
:10062000611122C226C013F7070113F3F70001C7B7
:10063000D8413363E30092211377F60F29C7832350
:100640000500014713048002930480048546B39596
:10065000E600B376B6006392D50293122700BD463A
:10066000B396560093C6F6FFB3F37600B312530069
:10067000B3E37200639787064CC90507A146E317E9
:10068000D7FC232075001307F00F6378C70483237A
:100690004500A14613048002930480040547B31269
:1006A000D700337756006394E202139726000117B0
:1006B000BD45B395E50093C5F5FFB3F3750033175A
:1006C000E300B363770063928702232A550085060F
:1006D0004147E395E6FC2322750012448244210140
:1006E0008280E39C97F80CC949BFE39297FE2328C8
:1006F0005500F1BF08456D8D3335A000828019C2C9
:100700000CC982804CC98280B707002023ACA700A7
:10071000828099C5371702401C4F5D8D08CF8280BB
:10072000B7170240984F1345F5FF798D88CF828027
:1007300099C5371702405C475D8D48C78280B7175F
:100740000240D8471345F5FF798DC8C78280EFF284
:100750003F95B707002003A50701B7157A009385D9
:1007600005208D3A1375F50FB7070020238FA700DA
:1007700093175500898F8A073E950E05B70700200D
:10078000239EA7006FF07F92EFF29F9137F400E075
:100790005C40AA85F99B5CC0B707002003D5C70160
:1007A000EFF05F9108C8232404001C4093E7170072
:1007B0001CC0B7F700E0D843058B75DF9843799BE1
:0807C00098C36FF09F8E00004A
:1007C80001020304050607080102030405060708D9
:0807D800006CDC0200000000CF
:00000001FF
