:100000006F00502E000000001404000016040000D1
:1000100000000000000000000000000000000000E0
:1000200000000000000000000000000000000000D0
:10003000E20A000000000000E20A000000000000E8
:10004000E20A0000E20A0000E20A0000E20A000000
:1000500034050000E20A0000E20A0000E20A0000A3
:10006000E20A0000E20A0000E20A0000E20A0000E0
:10007000E20A0000E20A0000E20A0000E20A0000D0
:10008000E20A0000E20A0000E20A0000E20A0000C0
:10009000E20A0000E20A0000E20A0000000000009C
:1000A000511126C022C206C4828282441244A24058
:1000B000310182802A86014593F6150091C232955E
:1000C00085810606F5F9828000000000634E050276
:1000D00063C305042E86AA857D5515C285466378BF
:1000E000B6006356C00006068606E36CB6FE014500
:1000F00063E4C500918D558D85820582F5FA828075
:100100008682C93F2E8582823305A04063D70500D1
:10011000B305B040C1B7B305B0408682653F330533
:10012000A0408282868263C70500634905005D376F
:100130002E858282B305B040E35B05FE3305A04007
:10014000513F3305B04082820000EFF27FF501118C
:100150002AC08545454502C202C402C602C802CA79
:1001600002CC02CEEF00D063854537052000EF00BA
:1001700010651147F1440D444C0037150140788259
:1001800026C622C4EF00302C09474C003715014029
:10019000788226C622C4EF00102B824737540040D5
:1001A0000C083EC8B707FFBF3ECAB70700043ECCE5
:1001B000130504409167FC86EF005033130504409B
:1001C0008545EF00D040854513050440EF00F0441D
:1001D0000561E1BDEFF2DFEC370400201304840376
:1001E0000C20494593E525020CA0192A0545EF008E
:1001F000B0730C20494593F5F50D0CA0112205456F
:10020000EF0090725DB5EFF2BFE9AA854D45CD28AC
:10021000D13761BDEFF2DFE8B707002083C687035F
:1002200005462A849387870313E726086384C5005D
:1002300013F7F607BA85494598A3D9202285E137F7
:10024000ADB5EFF2FFE56165B70700201305056A5C
:10025000238C0702DD3D692A8145130580035D3F3C
:100260002945EF00706C81451305800365372945EA
:10027000EF00906B814513058003693F814531454F
:10028000513F81450545793781451945613731BD74
:10029000EFF21FE181450545B53F814509459D3F89
:1002A00029B5EFF2FFDF89476381F5028D4763804F
:1002B000F50285476390F50213050504136505F8FB
:1002C00081451375F50FB937CDB35105C5BF13057A
:1002D0004505EDB7814513650508F5B7EFF25FDC1D
:1002E00085451375F50F3D37C9B3EFF27FDB3284D7
:1002F0004D3F0305040011E14DBB0504C537D5BFD3
:10030000EFF21FDAB75700402A84AE849386074085
:100310003685B7050200EF00B034B75700400547F7
:1003200093860740E306E5FE85453685EF00B02B52
:10033000B7070300850737570040BE851305074000
:10034000EF00B030B707030037570040850765D589
:1003500001469305000413050740EF00F02DB70791
:1003600007009387270837570040BE8513050740CD
:10037000EF00B02DB70707003757004093872708D5
:100380007DD1A28513050740EF00D02AB7070700EB
:100390009387470837540040BE8513050440EF009B
:1003A000D02AB7070700938747086DD5B705001017
:1003B0009385050813050440EF00902A85476317CD
:1003C000F500A68513050440EF00D026370407008A
:1003D00013044408B7540040A28513850440EF007D
:1003E000D0266DD9854513850440EF00702175B97D
:1003F000EFF21FCBE14529452137814501450937FA
:1004000081450545F53D81454945DD3D81454D45E4
:10041000C53D61B901A001A0EFF29FC8511185450A
:100420001305100202C002C202C4EF0070378547F4
:10043000371501407C808A859307800413050540A9
:100440003EC4EF00500081450D45EF00100831011A
:10045000A9B9EFF2FFC451118145054502C002C29E
:1004600002C4EF00F033854513050002EF0050335E
:100470003714014013050440EF00607885477C8005
:10048000D1473EC48A858D47130504403EC2EF0024
:10049000807B310119B9EFF2BFC0511185451305B9
:1004A00000023714014002C002C202C4EF00502F04
:1004B00013050440EF00A074C1477C80C1473EC4CF
:1004C0008A858D47130504403EC2EF00C077310195
:1004D000E9BEEFF2FFBC21110544C147280022C448
:1004E0003EC822CA02C602C002C2EF0020689307BB
:1004F00040317C800A858D475C8122C2EF00D01993
:10050000610165B6EFF2DFB9211185473EC42800CD
:10051000C1473EC802C602CA02C002C2812D93076B
:1005200040317C800A858D475C8102C2EF00D01685
:100530006101A5BE5111054522C426C2EF00A06984
:1005400051C903C78185938781853EC0B7070020C5
:100550009384A1851384970315EF373501408145B6
:10056000130505C0EF00703796201307700C6376F3
:10057000D7041307A00218A03735014081451305A1
:1005800005C0EF001032BD3FB70700200547238D9F
:10059000E7020DA837350140130505C0EF003034E0
:1005A0001420370700201307C7031396160032974D
:1005B00085068AA00AA314A045BF182093079002BD
:1005C000E3ECE7FA8247024705459C2393C7F7FF10
:1005D0001CA30D2522449244310173002030EFF218
:1005E0003FAC05655111854513050580EF00501B93
:1005F00037340140130504C002C002C223140100B5
:10060000EF009021130504C0EF00302B130504C048
:100610008145EF00902B9D473EC0C167938777DEF1
:100620008A85130504C03EC2EF00D022854513051C
:1006300004C0EF00102731018DBCEFF27FA6371404
:100640000140C14513050440BD2D213585451305E5
:100650000440952D4945EF00302D85451305044094
:100660008D255D3BBD35A53F37350140130505C0E0
:10067000EF00F0269307700C63F8A700B70700207F
:100680001307A002A38CE7020DB4EFF27FA1B70716
:1006900000209387C7031387470523900700890726
:1006A000E39DE7FE238C018437350140B707002026
:1006B000A38C07028145130505C0239D0184EF002B
:1006C000D0216FF09F9EB706002081479386C60316
:1006D0004143A94263F4A5003E85828013171500AB
:1006E00036971A238607E207130627FC4206418243
:1006F000E1876368C30093E7170005051375F50FDD
:10070000D1BF311742074183E3F9E2FE930790F826
:10071000E1B7B7070020A38C0702B707002083D7F3
:10072000C7032947938707FBC207C1836362F7109A
:10073000EFF21F97130181FD2EC4AA84A145054540
:1007400059372A84C1452545BD3F3307A400931777
:100750000701C1872AC23EC0130790F86398E700DB
:10076000130590F8130181026FF03F9480A0E145DA
:100770004545913FAA84930500026545A937B38793
:10078000A400C207C1872AC83EC6130790F8E389B0
:10079000E7FCA247930580021305100284A32537C6
:1007A0002286131705013714000041879305C4768C
:1007B00048083AC4EF003079500889451945353664
:1007C00012469305C4764808EF00F0775008894533
:1007D0002545213E26869305C4764808EF00B0766D
:1007E000500889453145113642439305C47648087F
:1007F0001A86EF005075500889453D45FD34224763
:100800009305C47648089374F70F2686EF00B073FB
:10081000494550088945D13C0247B2471305B0F815
:10082000BA9793F7F70FE38FF4F21305A0F81DBF03
:10083000130580F88280EFF2BF863111054523034E
:100840000100A3030100B1253D24B131EF00900A5E
:10085000EFF03F9FEFF0DFA3371600001306467757
:1008600081450145EFF07FA8371600001306C677D3
:1008700085450145EFF07FA737160000130646783F
:1008800089450145EFF07FA6370400207D3383477B
:10089000A4039304A403E1C7930561001305710049
:1008A0008D3D130790F86304E5041307A0F8630B6C
:1008B000E500130780F86311E504371600001306FE
:1008C000C67A29A0371600001306C6788D45014563
:1008D000EFF0BFA1B71700001386477D814549455A
:1008E000EFF0BFA0B71700001386477DA1A8371609
:1008F00000001306C679D9BF371600002AC01306B8
:10090000C67B8D450145EFF05F9E82471307B0F827
:10091000E392E7FC03067100B71700009385C77CDC
:100920002800EF005062300081454945EFF0FF9B01
:1009300003066100B71700009385C77C2800EF000D
:100940009060300085454945EFF03F9A3D3B3715B3
:100950000140C14513050540AD2623800400130561
:10096000803EEF00607C1DB7EFF28FF3371402403A
:100970001C403707FFF8611193E717001CC05C406B
:100980004145F98F5CC01C403707F7FE7D17F98F92
:100990001CC01C403707FCFF7D17F98F1CC05C4052
:1009A00041777D17F98F5CC0B7079F001CC43D2BB2
:1009B0001C4C3706020093E707021CCCB717014016
:1009C00003A70740938607401377F7F023A0E7407B
:1009D00003A707401367070823A0E74089479CCA7D
:1009E00002C002C21C4C37070140A16693E7170002
:1009F0001CCC5C43D58F5CC31C404167B7160240DA
:100A0000D98F1CC009679C42F18F3EC2824785077F
:100A10003EC0924781E78247E397E7FEB71702405F
:100A20009C431397E7006356070485473EC212476D
:100A30008547631DF702B72702409843B716024067
:100A4000719B98C3984398C3B7170240D843136764
:100A50000702D8C3D843719BD8C3D8431367170084
:100A6000D8C31147DC42B18BE39EE7FE21016FF052
:100A7000CFE302C26DBFEFF2AFE2371702405C4333
:100A8000370400209146B18B130404016385D7001D
:100A9000A1466382D704B7376E01938707601CC0F5
:100AA000B7160240DC420840918313F7F700B707FE
:100AB000002093870700BA978C23DC4293F5F50F4B
:100AC00093F707083357B50081E7EFF0AFE02A87C7
:100AD00018C06FF08FDD5C43B777DC02938707C0E7
:100AE0007DBF01A097010020938141D5138181FC36
:100AF00017150000130505CF97F5FF1F9385855047
:100B000017F6FF1F1306865363FAC50083220500FC
:100B100023A0550011059105E3EAC5FE17F5FF1F57
:100B20001305C551938541866377B50023200500E1
:100B30001105E36DB5FEB722000093820288739021
:100B400002308D427390428097F2FFFF9382824B76
:100B500093E2320073905230EFF01FE197020000F1
:100B60009382A2CD73901234730020305841032336
:100B700005004C4537060140930706403E979346D3
:100B8000F3FFB1C583250640F58D2320B640D04341
:100B9000F18ED4C31443B3E6660014C318419047E2
:100BA0009346F7FF758E90C7D047F18ED4C7144592
:100BB00041466399C6009447D98E94C7D447558F50
:100BC000D8C78280B6979443558F98C382801C43C0
:100BD000F58F1CC38280B70701401387074083A7A6
:100BE0000740584B698F09C77D8D3335A00082803F
:100BF00001458280B707014023AAA7408280EFF217
:100C00002FCAB717014013870780631AE50085458F
:100C10001145E92681451145D1266FF00FC96318AA
:100C2000F500854541455D2E81454145F5B79387E2
:100C30000740E314F5FE854513050002452681456E
:100C400013050002D1BF944593F7060193F2F60015
:100C500081C7DC41B3E2F20083D3050093F7F30FC1
:100C6000A5C303230500611122C226C081471304D6
:100C700080029304800405473316F70033F7C3005E
:100C80006312E602939527003D473317B7001347D9
:100C9000F7FF33736700B395B20033E36500639DDC
:100CA000860050C985072147E397E7FC12442320BB
:100CB0006500824421018280E39696FE10C9DDB76B
:100CC00082800CC982804CC982803707014014475A
:100CD00086058D47B397B70093C7F7FFF58F1CC7FD
:100CE0001C47B315B500DD8D0CC78280EFF24FBBFA
:100CF000111146212A8428002EC01124C246C204A4
:100D0000C18093F404FCB7450F0093850524368514
:100D1000C20436C2C180EFF0EFBB458D4205418170
:100D20004AA01E209246C207C183F99BC207C18315
:100D30001EA082479043E1679387076A93151600C8
:100D400063E6C7043685EFF0EFB8AA874205418114
:100D500091466373D50091471395070141814AACD1
:100D60001E20024793E717001EA01E20562332279D
:100D7000C207C183D18E93F757BFD58F1EA0162708
:100D80005E27D58F1EA471016FF02FB28247EA2330
:100D9000B167FD176310F502B2953685EFF08FB39A
:100DA000420541819317450199E313651500A16739
:100DB0005D8D75B7B387C5008E07B385C7003685CF
:100DC000EFF04FB14205418191675D8DE1BF1E217A
:100DD00089C593E717001EA18280C207C183F99BD2
:100DE000C207C183CDBF1E2189C593E707101EA18D
:100DF0008280C207C18393F7F7EFC207C183C5BFE3
:100E00001E2189C593E707201EA18280C207C183E6
:100E100093F7F7DFC207C183C5BF1E2189C593E7DA
:100E200007401EA18280C207C18393F7F7BFC207A4
:100E3000C183C5BF0EA9828093F7E50F19C293E75E
:100E40001500C207C1831EA982805E290A2D4205B2
:100E50005D8D6D8D220521810D8D133515008280EC
:100E6000611102C002C293D7C5012AC23EC08247A7
:100E7000A205A18199CB9247D1073EC292478843F0
:100E800021016D8D3335A00082809247C181E10739
:100E9000EDB723AEA184828083A6C1858547182142
:100EA0006390F6021C31639CD7023C219A0793E7BA
:100EB00007F8B7E600E093F7F70FBA962380F640FD
:100EC0008546935757003397E600544189CE938760
:100ED00007048A07B7E600E0B69798C38280EDF36F
:100EE0003C219A07F9B793870706E5B73717024001
:100EF0001C430E0593F777F05D8D08C38280EFF2F7
:100F00002F9A371702405C4391462A84B18B638540
:100F1000D700A1466380D708B7376E019387076073
:100F20001CC0B7160240DC42918313F7F700B707E5
:100F3000002093878702BA978C23DC42184093F5F0
:100F4000F50F93F707083355B70081E73A85EFF0BF
:100F50006F9848C008C448C4B7170240DC438D46A8
:100F6000AD83FD8B13D737008A07F18BD98F13F62A
:100F7000370113F7370063F4C600138747FFB7073D
:100F8000002093874701BA978C23EFF0AF9408C8ED
:100F90006FF0AF915C43B777DC02938707C049B726
:100FA00099C5371702401C4F5D8D08CF8280B71757
:100FB0000240984F1345F5FF798D88CF828099C5FF
:100FC000371702405C4F5D8D48CF8280B7170240D3
:100FD000D84F1345F5FF798DC8CF828099C5371753
:100FE00002405C475D8D48C78280B7170240D847F2
:100FF0001345F5FF798DC8C7828099C53717024020
:101000001C4B5D8D08CB8280B7170240984B13456F
:10101000F5FF798D88CB8280EFF28F88B73701405A
:10102000938707C0631DF50005648545130504809B
:10103000753781451305048055376FF00F87B70763
:101040000040E31CF5FE85450545453F81450545C6
:101050006D37E5B71E2137370140130707C0C207B8
:10106000C1836306E500370700406316E500BA2137
:1010700093F7F7F8D98FFA2193F7F7CFC207C18317
:10108000D98F1EA1DE215EB59E211EB5B737014066
:10109000938707C06314F5009C251EB985475EA998
:1010A00082801E2189C593E717001EA18280C20796
:1010B000C183F99BC207C183CDBF1E25C207C1836F
:1010C000E19BC207C1831EA582801E25C207C18382
:1010D00093F7F7F8DD8D0EA582804EB182804A31FC
:1010E000828093F5F51F4EA182800A216D8D3335E4
:1010F000A0008280EFE2DFFAB707002003A5070116
:10110000B7157A0093850520EFE0DFFC1375F50F26
:101110002381A18693175500898F8A073E950E0576
:101120002390A1866FE07FF8EFE29FF737F400E0AD
:101130005C40AA85F99B5CC003D50186EFE09FF770
:1011400008C8232404001C4093E717001CC0B7F70D
:1011500000E0D843058B75DF9843799B98C36FE017
:10116000DFF4EFE2FFF37111AE840144635DC4026A
:10117000B7470140138707803A859305000432C0C2
:10118000AD37B747014013870780024675D53387CF
:10119000840083050700138507800504C205C1810B
:1011A00089370246E1B7328511016FE01FF0411126
:1011B00006C62EC00DCD1841AA8705C358417D55DE
:1011C00011CB8546631BD70098472300070023A255
:1011D00007000545B240410182809847824614A32A
:1011E0009847050798C7D8437D17D8C3DDB705468C
:1011F0008A85853FF9BF011122CC2EC206CE26CAB0
:101200002A84814793050002634506029245BE95F4
:10121000838505008DE563D8C70263D4E702198E84
:101220001305000293F526002AC089C501E793053E
:1012300000032EC0858A814495EAB2840DA08507FB
:10124000F1B71D8EF1BF0146E1BF824522853AC844
:1012500032C63EC4A93FA24732464247FD14E34688
:1012600090FEB284635306008144058E63C7E70293
:10127000A68792463387974036978305070095EDFA
:10128000B28463449004635306000146F240624412
:10129000D2443305F600056182801D8FBA8793051D
:1012A0000003228532C83EC63AC41137B2472247EE
:1012B0004246FD17EDF7BA9465BF228532C63EC49B
:1012C000FD35A247324685076DB78245228532C477
:1012D0003EC2F13DFD142246924765B7397106DEE4
:1012E00022DC26DA3EC232833A8689ED92469307A3
:1012F000000301476C08FC86FD3DF2506254D25455
:1013000021618280AA843684AE8791CA294701442C
:101310006317E30063D50500B307B0400544864674
:10132000A309010213073103938666FC36C49A852C
:101330003E8532CA3AC81AC63EC0EFE07FDCA546F9
:10134000824732434247524663D4A600A2463695AE
:10135000130505039306F7FFA30FA7FE9A853E85A5
:1013600032CC3ACA1AC83EC636C0EFE0BFD6B24742
:1013700042435247624663F9670401CC29CA924747
:10138000898BB1C79305D002268532C40D3522461C
:101390007D169247918B95C306479307100632C47A
:1013A000930500032685631EF70211359305800718
:1013B0002685F53B22460904791616479246824552
:1013C0002685153D229515BFAA8702478DB782460F
:1013D0009307D0020144A38FF6FE9307E7FF3EC0B8
:1013E0004DBFF13393058005E1B70145828001458A
:1013F0008280130181FD22D026CE06D22AC4AE827D
:10140000328402C681448385020089EDA24781C7E8
:1014100081453E85693B925002542685F244130172
:1014200081028280930750026388F500224516C826
:101430008504B53BC24239A8838712001387120086
:10144000639CB7002245930550023AC88D3342474A
:101450008504BA82850245BFD5DB9306B002638955
:10146000D70463C8F600930630026386D704814729
:1014700005A09306D002638AD70093060003E39881
:10148000D7FE13872200894721A0138722008547B2
:10149000830607001306B0026383C6046341D602C5
:1014A00013063002638BC602BA820145A54681A0AD
:1014B000138722006DBF138722009147D1BF130607
:1014C000D0026389C60013060003E39FC6FC93E7BE
:1014D000270031A005078547C1BF93E747000507EF
:1014E000E1B713162500329506053A958502038665
:1014F0000200130706FD9375F70FE3F4B6FE13071A
:10150000E0029946631EE60085028146A5450386F2
:101510000200130606FD1377F60F63F5E50236C6E3
:10152000038702001306A006630DC70A6343E602A1
:101530001306C0046307C70A13068006630CC708B6
:1015400081452DA813972600BA968606B296850285
:101550007DBF130640076306C7081306A007630292
:10156000C7081306C0068145631AC7000386120028
:101570008D456314E60085029145850203860200CD
:10158000930300061307100663C4C3001307100477
:101590009303700663C4C30693035006635476181E
:1015A0009303700463C1C30493055004635CB616CF
:1015B00013073004E310E6EA18409303440016CA08
:1015C000230CE1001EC8A30C01000147BE862A8639
:1015D0002C0849A8038612008145E311E6FA890226
:1015E00071BF8502B1BF93063006E307D6FC63CF17
:1015F000C606930680056303D602A9BD930630078D
:101600006304D60463CBC6029306F0066303D60ECA
:101610009306000793E74700E31ED6E291466390E6
:10162000D50C930384000C40504016CA3AC23EC009
:101630001EC8AA870147C14681A8930650076309BF
:10164000D6069306800745BF1840B71600009303DF
:1016500044009385867D11C3BA85324716CA1EC8D9
:10166000BE862A862245EFF01FB90DA091466394ED
:10167000D502930384000C40504016CA3AC23EC0C3
:101680001EC8AA870547A94622458533C243AA94A6
:101690001E84D242C1B3B2460C4016C836C23AC00C
:1016A00011042A878546294622450D39AA9459B343
:1016B0009146639DD500930384000C40504016CAA8
:1016C0003AC23EC01EC8AA87014775BFB2460C4049
:1016D00016C836C23AC011042A878146E9B7B24615
:1016E00016C80C40414636C23AC011042A878146CA
:1016F00065BF9146639ED500930384000C40504023
:1017000016CA3AC23EC01EC8AA870147A146ADBF4D
:10171000B2460C4016C836C23AC011042A87814628
:10172000214659B70C401306840040403AC22A872C
:10173000224532C83EC02286B687A94616CA453918
:10174000AA944244B9B7130141FD32CE3ED42AC611
:101750007008FD57480006CC36D03AD202C23EC4CB
:1017600032C04139E2401301C10282802530325833
:1017700000000000522E482F253A000054612F2708
:10178000433A00005261773A000000004352432080
:101790004572726F722120202000000053796E6321
:1017A000204572726F7221202000000053656E7315
:1017B0006F72204572726F7221000000416C6C20C4
:1017C0006F6B61792E2020202000000025303264CC
:1017D000000000002D2D0000286E756C6C290000A3
:1017E00001020304050607080102030405060708B1
:1017F00000127A000204060804080C1008101820D1
:1018000010203040204060800102030405060708D4
:081810000102030405060708AC
:00000001FF
