:100000006F00B030000000002A0500002C05000041
:1000100000000000000000000000000000000000E0
:1000200000000000000000000000000000000000D0
:10003000080B000000000000080B0000000000009A
:10004000080B0000080B0000080B0000080B000064
:10005000080B0000080B0000080B0000080B000054
:10006000080B0000080B0000080B0000080B000044
:10007000080B00002E050000080B0000080B000014
:10008000080B0000080B0000080B0000080B000024
:10009000080B0000080B0000080B00000000000027
:1000A000511126C022C206C4828282441244A24058
:1000B000310182802A86014593F6150091C232955E
:1000C00085810606F5F9828000000000634E050276
:1000D00063C305042E86AA857D5515C285466378BF
:1000E000B6006356C00006068606E36CB6FE014500
:1000F00063E4C500918D558D85820582F5FA828075
:100100008682C93F2E8582823305A04063D70500D1
:10011000B305B040C1B7B305B0408682653F330533
:10012000A0408282868263C70500634905005D376F
:100130002E858282B305B040E35B05FE3305A04007
:10014000513F3305B040828200003D432A876373EC
:10015000C3029377F700BDEFADE5937606FF3D8AC6
:10016000BA960CC34CC30CC74CC74107E36BD7FE10
:1001700011E28280B306C3408A0697020000969679
:100180006780A6002307B700A306B7002306B700C1
:10019000A305B7002305B700A304B7002304B700E5
:1001A000A303B7002303B700A302B7002302B700DD
:1001B000A301B7002301B700A300B7002300B700D5
:1001C000828093F5F50F93968500D58D9396050162
:1001D000D58D61B793962700970200009696868288
:1001E000E78086FA9680C1171D8F3E96E374C3F8A8
:1001F000A5B7EFF2FFEA37040020130494010820AA
:100200001365450008A085220545EF001070082001
:100210001375950F08A0812A0545EF00106F71B581
:10022000EFF21FE83704002013049401AA84082089
:1002300093F704FF92043D895D8D08A02D22553F60
:1002400008203D89458D1375F50F08A0292A5537DB
:10025000A9BDEFF2FFE4B707002003C797012A8486
:10026000938797019DC585466388D502370700208F
:1002700083468701982385C60546136787006381F7
:10028000C6028823CD202285613F0545EF00F06737
:1002900029BD519B98A3D9BF13671700E5BF5D9B8C
:1002A00098A3C5B7EFF2DFDF0547B7070020370493
:1002B0000020238CE7001304940191471CA0DD204B
:1002C000082055202945EF0050648145130530036F
:1002D0004937814513052003AD3F81451305800251
:1002E0008D3F81453145B537814505459D37814570
:1002F000194585375DBBEFF2BFDA85451375F50FFC
:10030000893F65B3EFF2DFD98145054599378145CE
:100310000945813759BBEFF2BFD889476381F502A0
:100320008D476380F50285476390F5021305050448
:10033000136505F881451375F50F213FBDB35105D0
:10034000C5BF13054505EDB7814513650508F5B72C
:10035000EFF21FD53284C1370305040011E1B1B3B8
:100360000504513FD5BFEFF2BFD32A8451201305B6
:10037000E004FD2885222285E528A92A552835B3E1
:10038000EFF21FD2511199477C80D1473EC48A8534
:100390008D47371501403EC223110100EF00B02800
:1003A000310121B3EFF2DFCF85454145EF00103930
:1003B000C13FE5B9EFF2DFCE5111114489478A857B
:1003C000371501407C8022C4231101002312010053
:1003D00023130100EF003025D1473EC48A858D47A5
:1003E0003715014060803EC2EF00F023310175B93E
:1003F000EFF21FCB7137894537150140EF00102B05
:10040000914537150140EF00702A13058002EF0077
:10041000304C894537150140EF00902913058002C3
:10042000EF00104B914537150140EF007028B5B92A
:10043000EFF21FC7B137894537150140EF0050274C
:10044000914537150140EF00702613058002EF003B
:100450003048894537150140EF0050259145371543
:100460000140EF00B02413058002EF00704635B95B
:10047000EFF21FC3AA842937914537150140EF00D9
:100480003023214493978401E18789453715014042
:1004900063DF0702EF0090215145EF007043914563
:1004A00037150140EF0090205145EF007042914513
:1004B00037150140EF00D01F7D1486045145137499
:1004C000F40F93F4F40FEF00B0404DFCF9BEEF00D1
:1004D000301ED9B7EFF2DFBC6535894537150140CD
:1004E000EF00D01C2945EF00B03E91453715014083
:1004F000EF00D01B29453D64EF00903D130414A686
:10050000553D894537150140EF00B01901E9371510
:1005100001409145EF00D019014539A07D144204F6
:10052000418065F03137054549B601A001A0711140
:1005300022C0372401409305002213050440EF0038
:10054000F00A85476313F502B7070020238DA70043
:1005500037150140C14513050540EF00701593059F
:10056000002213050440EF00300A372401409305B0
:10057000004813050440EF00700785476313F50238
:10058000B7070020A38DA70037150140C14513050B
:100590000540EF00B0119305004813050440EF003B
:1005A000B0060244110173002030EFF27FAF511109
:1005B00085451305000202C002C202C4EF001018F4
:1005C000C1477C8037150140D1473EC48A858D479D
:1005D000130505403EC2EF0010053101F9B4EFF2FA
:1005E0003FAC130141FD614681454808B93E854550
:1005F000414502C402C602C802C002C2EF00101484
:10060000854513050002EF00701385451305002092
:10061000EF00D0123165EF003011C1472C003715C3
:1006200001407C8402C8EF00100037150140A1474B
:100630002C0013050540372401407C8402C8EF00DC
:10064000807E13050440B1239D673ED04C0885474A
:10065000130504402304F10202CA02CC02CE02D2E6
:10066000A12B854513050440EF0040759D460546C6
:10067000894513050440CD2B9D460546914513053C
:100680000440EF00006C9307D0217C800A858547E9
:100690003EC223010100EF009002B70500021305DE
:1006A0000440EF000077054693050022130504403F
:1006B0009D2305469305004813050440A92B854555
:1006C000130504408923130504408D23930404403B
:1006D0002685952375FD13050440372401408523A5
:1006E0001304044022858D2375FD1301C1026FF0B0
:1006F000DF9BEFF2FF9AAA840565130141FD2E846A
:1007000013050582854532C002C802CA02CC02CE5A
:1007100002D002D202D402C202C423160100EF00AA
:10072000F0019147FC8037150140E1473ECC0C08B1
:100730008D47130505407D143ECAF5256082373488
:1007400001404C00130504C06484231501002313E9
:100750000100EF0070020246C167938707066C082C
:10076000130504C03ECE2311C10223120102EF0083
:100770009005130504C08545EF00100D130504C056
:100780008145EF00700F130504C08545EF00300D63
:100790008545130504C0EF00B0091301C1026FF0D5
:1007A000DF90EFF2FF8F011105452927C52CEF00DF
:1007B000F00EE53B2D350565014685451305853869
:1007C0000D3FCD348136371600001306067581457E
:1007D0000145BD3E371600001306C6758545014527
:1007E000853E014402C08144B7270140138507407C
:1007F0008545B92913058002EF003011B7070020A5
:100800001387A7011423B727014085C2138507402A
:10081000092B181093971400BA972392A7FEB707D5
:1008200000201387A7012300070037270140130585
:1008300007408545DD29B70700209387B70194233A
:100840003727014085C613050740D145512313972B
:1008500014001C103E97B707002085049387B7014A
:100860002316A7FE93F4F40F238007008D4763F44B
:10087000970A814781440145A14658003E971A23B3
:100880003A9578003E971A2342058907BA94C20424
:100890004181C180E393D7FEA1679385870E0981CB
:1008A00002C202C6EFF01F819305F03FEFF01F82F6
:1008B00093170501C1833EC0A1679385870E13D5A9
:1008C0002400EFF02FFF9305F03FEFF03F8042054B
:1008D00085674181938777D463EDA70605041317D5
:1008E00004014183931707019306301FC187130446
:1008F000401F63E8E6003E8463D3070001444204DE
:1009000041849315040137350140C181130505C0A9
:10091000EF00607781440246B71700009385877621
:100920004808EF007060500881452D45EFF05FA248
:10093000B71700009385877622864808EF00D05EBF
:10094000500885452D45EFF0BFA02945EF00E07B1D
:1009500061BD1307401FA287635487009307401FA0
:10096000FD17C207C18741BFEFF28FF33714024072
:100970001C403707FFF8611193E717001CC05C406B
:100980004145F98F5CC01C403707F7FE7D17F98F92
:100990001CC01C403707FCFF7D17F98F1CC05C4052
:1009A00041777D17F98F5CC0B7079F001CC4A52352
:1009B0001C4C3706020093E707021CCCB717014016
:1009C00003A70740938607401377F7F023A0E7407B
:1009D00003A707401367070823A0E74089479CCA7D
:1009E00002C002C21C4C37070140A16693E7170002
:1009F0001CCC5C43D58F5CC31C404167B7160240DA
:100A0000D98F1CC009679C42F18F3EC2824785077F
:100A10003EC0924781E78247E397E7FEB71702405F
:100A20009C431397E7006359070685473EC2124768
:100A300085476310F706B72702409843C176FD1635
:100A4000719B98C398431367170098C3B717024068
:100A5000D843D8C3D843758FD8C3D843C166558F00
:100A6000D8C39843B7060001558F98C3984393168F
:100A70006700E3DD06FED843B7160240719BD8C37A
:100A8000D84313672700D8C32147DC42B18BE39ECC
:100A9000E7FE21016FF06FE102C251BFEFF24FE0BC
:100AA000371702405C43370400209146B18B130492
:100AB00004016385D700A1466382D704B7376E016E
:100AC000938707601CC0B7160240DC420840918340
:100AD00013F7F700B707002093870700BA978C2316
:100AE000DC4293F5F50F93F707083357B50081E71C
:100AF000EFF04FDE2A8718C06FF02FDB5C43B7772B
:100B0000DC02938707C07DBF01A09701002093817D
:100B1000E1D0138181FE17150000130525C697F556
:100B2000FF1F9385254E17F6FF1F1306264F63FA06
:100B3000C5008322050023A0550011059105E3EAB5
:100B4000C5FE17F5FF1F1305654D9385C1806377BB
:100B5000B500232005001105E36DB5FEB7220000A6
:100B600093820288739002308D427390428097F294
:100B7000FFFF9382224993E2320073905230EFF0EC
:100B8000BFDE97020000938202C27390123473009A
:100B90002030B727014093870740631EF500EFF22E
:100BA0002FD08545130500204D2E814513050020CB
:100BB0006D266FF08FCF82805C413707F1FF1307FE
:100BC000F7EF7D8FDC419441A207D58FD98F5CC1AF
:100BD0001C4537F7F1FF1307D77FD4457D8F9C491C
:100BE000D58F94458606D58FD98F1CC55C553707A0
:100BF00010FF7D177D8FDC29FD1793F7F70FD207C4
:100C0000D98F5CD582801C4589C593E717001CC528
:100C10008280F99BEDBF5C4193F5F50F01C6DD8D38
:100C20004CC1828093C5F5FFFD8DDDBF1C4593E768
:100C300087001CC5828008450D81058982801C457E
:100C400093E747001CC58280084509810589828099
:100C50001C4591C537075000D98F1CC582803707C6
:100C6000B0FF7D17F98FD5BFA54763F8B704138789
:100C700065FF931717008322C500BA971D433313EE
:100C8000F3001343F3FF33735300B397F600B3E756
:100C900067005CC5994763E3C7047D169317260078
:100CA0003E965859FD47B397C70093C7F7FFF98F92
:100CB000B395C500DD8D4CD9828093971500032331
:100CC0000501AE971D473317F7001347F7FF33773A
:100CD0006700B397F6005D8F18C96DBFB14763E237
:100CE000C7026516931726003E961859FD47B3971D
:100CF000C70093C7F7FFF98FB395C500DD8D0CD9F9
:100D000082804D161317260054553A96FD47B39727
:100D1000C70093C7F7FFF58FB395C500DD8D4CD5A0
:100D2000828068454205418182801C4591C5378794
:100D30002000D98F1CC582803787DFFF7D17F98F90
:100D4000D5BFA54763FBB704138765FF931717004B
:100D50008322C500BA971D433313F3001343F3FFF7
:100D600033735300B397F600B3E767005CC5185DB3
:100D70000906935747018D8B1D8E1376F60F931737
:100D800026003E96FD47B397C70093C7F7FFF98F3C
:100D9000B395C500DD8D0CDD82809397150003238C
:100DA0000501AE971D473317F7001347F7FF337759
:100DB0006700B397F6005D8F18C955BF1C5D3707F4
:100DC000D0FF7D17FD15F98FD205DD8D0CDD8280FA
:100DD000711102C02AC0824793878702BE952EC038
:100DE0008247884311014205418182805841144164
:100DF00093D78500F58F99C713F5F50F798D3335A6
:100E0000A000828001458280A18193C5F5FF0CC1BD
:100E100082805C41370700FA7D17F98F5CC15C4125
:100E2000DD8D4CC18280944593F7060193F2F60064
:100E300081C7DC41B3E2F20083D3050093F7F30FDF
:100E4000A5C303230500611122C226C081471304F4
:100E500080029304800405473316F70033F7C3007C
:100E60006312E602939527003D473317B7001347F7
:100E7000F7FF33736700B395B20033E36500639DFA
:100E8000860050C985072147E397E7FC12442320D9
:100E90006500824421018280E39696FE10C9DDB789
:100EA000828008456D8D3335A00082800CC9828018
:100EB0004CC98280B707002023AEA7008280B70705
:100EC000002083A6C701854718216390F6021C31D4
:100ED000639CD7023C219A0793E707F8B7E600E046
:100EE00093F7F70FBA962380F6408546935757003D
:100EF0003397E600544189CE938707048A07B7E603
:100F000000E0B69798C38280EDF33C219A07F9B7C9
:100F100093870706E5B7371702401C430E0593F782
:100F200077F05D8D08C38280B7160240DC424177BE
:100F30001307F77FF98F5D8DC8C2828099C5371777
:100F400002401C4F5D8D08CF8280B7170240984F3A
:100F50001345F5FF798D88CF828099C537170240F8
:100F60005C475D8D48C78280B7170240D84713455C
:100F7000F5FF798DC8C782801E21373701401307DE
:100F800007C0C207C1836306E50037070040631648
:100F9000E500BA2193F7F7F8D98FFA2193F7F7CF45
:100FA000C207C183D98F1EA1DE215EB59E211EB569
:100FB000B7370140938707C06314F5009C251EB91D
:100FC00085475EA982801E31922103D32500C20786
:100FD000C183F99BC207C1831EB11E3156211A2D50
:100FE000C207C183420741831377C7F8518F922507
:100FF000F59BC20633666600D18F37360140130673
:1010000006C0C1826310C502B225DD9B03D3E50093
:10101000D18FD221ED9B93F6F6CFD18FD2253366B7
:101020006600D18E56A11AADFA2158D91EB1828020
:101030001E2189C593E717001EA18280C207C183C4
:10104000F99BC207C183CDBF8357450491C5216772
:10105000D98F2312F5048280C607C583DDBF1E2108
:1010600089C593E707081EA18280C207C18393F751
:10107000F7F7C207C183C5BF1E2DC207C183DD9B21
:10108000DD8D0EAD82804CD9828093F5F51F4EA187
:1010900082800A216D8D3335A0008280EFF24F806F
:1010A000B707002003A50701B7157A00938505202F
:1010B000EFF04F821375F50F2385A180931755002C
:1010C000898F8A073E950E052394A1806FE0FFFD6E
:1010D000EFE21FFD37F400E05C40AA85F99B5CC09D
:1010E00003C5A180EFE01FFD08C8232404001C40B5
:1010F00093E717001CC0B7F700E0D843058B75DFF6
:101100009843799B98C36FE05FFAEFE27FF937F479
:1011100000E05C40AA85F99B5CC003D58180EFE0CC
:101120007FF908C8232404001C4093E717001CC063
:10113000B7F700E0D843058B75DF9843799B98C3D8
:101140006FE0BFF6EFE2DFF57111AE840144635D3D
:10115000C402B7470140138707803A85930500040E
:1011600032C0053FB747014013870780024675D557
:101170003387840083050700138507800504C205B3
:10118000C18121370246E1B7328511016FE0FFF1DD
:10119000411106C62EC00DCD1841AA8705C358417E
:1011A0007D5511CB8546631BD70098472300070068
:1011B00023A207000545B24041018280984782463C
:1011C00014A39847050798C7D8437D17D8C3DDB740
:1011D00005468A85853FF9BF011122CC2EC206CE75
:1011E00026CA2A8481479305000263450602924578
:1011F000BE95838505008DE563D8C70263D4E702F9
:10120000198E1305000293F526002AC089C501E74F
:10121000930500032EC0858A814495EAB2840DA00F
:101220008507F1B71D8EF1BF0146E1BF82452285DA
:101230003AC832C63EC4A93FA24732464247FD14CF
:10124000E34690FEB284635306008144058E63C773
:10125000E702A687924633879740369783050700B3
:1012600095EDB28463449004635306000146F24056
:101270006244D2443305F600056182801D8FBA872F
:1012800093050003228532C83EC63AC41137B247DF
:1012900022474246FD17EDF7BA9465BF228532C654
:1012A0003EC4FD35A247324685076DB7824522858B
:1012B00032C43EC2F13DFD142246924765B73971F2
:1012C00006DE22DC26DA3EC232833A8689ED924679
:1012D0009307000301476C08FC86FD3DF250625401
:1012E000D25421618280AA843684AE8791CA29476C
:1012F00001446317E30063D50500B307B04005441C
:101300008646A309010213073103938666FC36C49F
:101310009A853E8532CA3AC81AC63EC0EFE05FDE03
:10132000A546824732434247524663D4A600A246AE
:101330003695130505039306F7FFA30FA7FE9A85BD
:101340003E8532CC3ACA1AC83EC636C0EFE09FD8B6
:10135000B24742435247624663F9670401CC29CA47
:101360009247898BB1C79305D002268532C40D35CB
:1013700022467D169247918B95C306479307100628
:1013800032C4930500032685631EF70211359305C9
:1013900080072685F53B22460904791616479246B2
:1013A00082452685153D229515BFAA8702478DB730
:1013B00082469307D0020144A38FF6FE9307E7FF0E
:1013C0003EC04DBFF13393058005E1B701458280F2
:1013D00001458280130181FD22D026CE06D22AC487
:1013E000AE82328402C681448385020089EDA24721
:1013F00081C781453E85693B925002542685F2445F
:10140000130181028280930750026388F500224510
:1014100016C88504B53BC24239A8838712001387DA
:101420001200639CB7002245930550023AC88D33E1
:1014300042478504BA82850245BFD5DB9306B002D8
:101440006389D70463C8F600930630026386D70425
:10145000814705A09306D002638AD7009306000354
:10146000E398D7FE13872200894721A01387220023
:101470008547830607001306B0026383C6046341F1
:10148000D60213063002638BC602BA820145A54616
:1014900081A0138722006DBF138722009147D1BF1F
:1014A0001306D0026389C60013060003E39FC6FC3F
:1014B00093E7270031A005078547C1BF93E74700A1
:1014C0000507E1B713162500329506053A95850202
:1014D00003860200130706FD9375F70FE3F4B6FECB
:1014E0001307E0029946631EE60085028146A54582
:1014F00003860200130606FD1377F60F63F5E50277
:1015000036C6038702001306A006630DC70A6343AD
:10151000E6021306C0046307C70A13068006630CBD
:10152000C70881452DA813972600BA968606B2965D
:1015300085027DBF130640076306C7081306A00790
:101540006302C7081306C0068145631AC7000386F5
:1015500012008D456314E6008502914585020386DD
:101560000200930300061307100663C4C3001307A9
:1015700010049303700663C4C306930350066354B8
:1015800076189303700463C1C30493055004635C2D
:10159000B61613073004E310E6EA1840930344003C
:1015A00016CA230CE1001EC8A30C01000147BE8629
:1015B0002A862C0849A8038612008145E311E6FA21
:1015C000890271BF8502B1BF93063006E307D6FCDE
:1015D00063CFC606930680056303D602A9BD9306B2
:1015E00030076304D60463CBC6029306F006630398
:1015F000D60E9306000793E74700E31ED6E2914616
:101600006390D50C930384000C40504016CA3AC234
:101610003EC01EC8AA870147C14681A8930650074D
:101620006309D6069306800745BF1840B716000029
:10163000930344009385067711C3BA85324716CACF
:101640001EC8BE862A862245EFF01FB90DA091461E
:101650006394D502930384000C40504016CA3AC2EA
:101660003EC01EC8AA870547A94622458533C24306
:10167000AA941E84D242C1B3B2460C4016C836C2E8
:101680003AC011042A878546294622450D39AA9475
:1016900059B39146639DD500930384000C4050409C
:1016A00016CA3AC23EC01EC8AA87014775BFB246D5
:1016B0000C4016C836C23AC011042A878146E9B7E1
:1016C000B24616C80C40414636C23AC011042A87B9
:1016D000814665BF9146639ED500930384000C400C
:1016E000504016CA3AC23EC01EC8AA870147A1464A
:1016F000ADBFB2460C4016C836C23AC011042A87A4
:101700008146214659B70C401306840040403AC236
:101710002A87224532C83EC02286B687A94616CA05
:101720004539AA944244B9B7130141FD32CE3ED4A3
:101730002AC67008FD57480006CC36D03AD202C2FD
:101740003EC432C04139E2401301C1028280000030
:1017500056494E20286D56293A00000050574D201A
:10176000447574793A0000002534642000000000BC
:08177000286E756C6C29000065
:101778000102030405060708010203040506070819
:08178800006CDC02000000000F
:00000001FF
