:100000006F00E037000000004A0100004E010000D0
:1000100000000000000000000000000000000000E0
:1000200000000000000000000000000000000000D0
:100030004C030000000000004E0300000000000020
:100040005003000052030000540300005603000058
:10005000580300005A0300005C0300005E03000028
:1000600060030000620300006403000066030000F8
:10007000680300006A0300006C0300006E030000C8
:100080007003000072030000740300007603000098
:10009000780300007A0300007C03000000000000E9
:1000A000511126C022C206C4828282441244A24058
:1000B000310182802A86014593F6150091C232955E
:1000C00085810606F5F9828000000000634E050276
:1000D00063C305042E86AA857D5515C285466378BF
:1000E000B6006356C00006068606E36CB6FE014500
:1000F00063E4C500918D558D85820582F5FA828075
:100100008682C93F2E8582823305A04063D70500D1
:10011000B305B040C1B7B305B0408682653F330533
:10012000A0408282868263C70500634905005D376F
:100130002E858282B305B040E35B05FE3305A04007
:10014000513F3305B040828200007300203001A08F
:10015000EFF21FF551118545414502C002C202C4AC
:1001600061268545130500024126E14741443EC40E
:100170008A858D473715014060803EC24924C147BA
:10018000371501403EC48A858547130505406080C8
:100190003EC2B524310111BFEFF29FF0094581261F
:1001A0008122B52675371945B7140140A92E01449F
:1001B0009384044022862685C145292E1344F4FFEA
:1001C000130540061374F40FBD2EEDB7B7170240A8
:1001D0009843B706FFFC61111367170098C3D84313
:1001E000758FD8C39843B706F7FEFD16758F98C371
:1001F0009843B706FCFFFD16758F98C3D843C176A8
:10020000FD16758FD8C337079F0098C7984F13679F
:10021000070298CF3717014083260740130607408F
:1002200093F6F6F02320D7408326074093E606088E
:100230002320D740094718CA02C002C2984FB70608
:10024000014021661367170098CFD842518FD8C25A
:100250009843C16637060200558F98C3B71602400F
:1002600009679C42F18F3EC2824785073EC0924794
:1002700081E78247E397E7FEB7170240984FB7063A
:10028000014021661367170098CFD842518FD8C21A
:100290009C431397E7006353070485473EC2124708
:1002A0008547631BF702B72702409843B716024001
:1002B000719B98C3984398C3B7170240D843D8C3DB
:1002C000D843719BD8C3D84313671700D8C31147CD
:1002D000DC42B18BE39EE7FE2101828002C2C1B7FE
:1002E000EFF21FDC371702405C43370400209146D1
:1002F000B18B130404016385D700A1466380D70442
:10030000B7376E01938707601CC0B7160240DC4206
:100310000840918313F7F700B70700209387070081
:10032000BA978C23DC4293F5F50F93F70708335700
:10033000B50099E345332A8718C085BB5C43B7777E
:10034000DC02938707C0C9B701A001A001A001A0EA
:1003500001A001A001A001A001A001A001A001A095
:1003600001A001A001A001A001A001A001A001A085
:1003700001A001A001A001A001A001A001A097017E
:1003800000209381A149138181FE13050058970530
:100390000020938525C717060020130626C863FA98
:1003A000C5008322050023A0550011059105E3EA4D
:1003B000C5FE17050020130565C693858180637708
:1003C000B500232005001105E36DB5FE930200087A
:1003D000739002308D4273904280970200009382A6
:1003E00062C293E2320073905230EFF03FDE970228
:1003F00000009382A2DA73901234730020309C457F
:10040000611122C226C013F7070113F3F70001C7D9
:10041000D8413363E30092211377F60F29C7832372
:100420000500014713048002930480048546B395B8
:10043000E600B376B6006392D50293122700BD465C
:10044000B396560093C6F6FFB3F37600B31253008B
:10045000B3E37200639787064CC90507A146E3170B
:10046000D7FC232075001307F00F6378C70483239C
:100470004500A14613048002930480040547B3128B
:10048000D700337756006394E202139726000117D2
:10049000BD45B395E50093C5F5FFB3F3750033177C
:1004A000E300B363770063928702232A5500850631
:1004B0004147E395E6FC2322750012448244210162
:1004C0008280E39C97F80CC949BFE39297FE2328EA
:1004D0005500F1BF19C20CC982804CC98280B70790
:1004E000002023ACA700828099C5371702401C4F1B
:1004F0005D8D08CF8280B7170240984F1345F5FFF6
:10050000798D88CF8280B7170240E8B38280EFF2FE
:100510003FB9B707002003A50701B7157A009385F7
:1005200005204D3E1375F50FB7070020238FA70058
:1005300093175500898F8A073E950E05B70700204F
:10054000239EA7009DB6EFF2BFB537F400E05C40F4
:10055000AA85F99B5CC0B707002003D5C701993E67
:1005600008C8232404001C4093E717001CC0B7F7F9
:1005700000E0D843058B75DF9843799B98C335B667
:100580000102030405060708010203040506070823
:0805900000366E0100000000BE
:00000001FF
