:100000006F00300F00000000BC040000BE040000C0
:1000100000000000000000000000000000000000E0
:1000200000000000000000000000000000000000D0
:10003000F008000000000000F008000000000000D0
:10004000F0080000F0080000F0080000F0080000D0
:10005000F0080000F0080000F0080000F0080000C0
:10006000F0080000F0080000F0080000F0080000B0
:10007000F0080000F0080000F0080000F0080000A0
:10008000F0080000F0080000F0080000F008000090
:10009000F0080000F0080000F00800000000000078
:1000A000511126C022C206C4828282441244A24058
:1000B000310182802A86014593F6150091C232955E
:1000C00085810606F5F9828000000000634E050276
:1000D00063C305042E86AA857D5515C285466378BF
:1000E000B6006356C00006068606E36CB6FE014500
:1000F00063E4C500918D558D85820582F5FA828075
:100100008682C93F2E8582823305A04063D70500D1
:10011000B305B040C1B7B305B0408682653F330533
:10012000A0408282868263C70500634905005D376F
:100130002E858282B305B040E35B05FE3305A04007
:10014000513F3305B040828200003D432A876373EC
:10015000C3029377F700BDEFADE5937606FF3D8AC6
:10016000BA960CC34CC30CC74CC74107E36BD7FE10
:1001700011E28280B306C3408A0697020000969679
:100180006780A6002307B700A306B7002306B700C1
:10019000A305B7002305B700A304B7002304B700E5
:1001A000A303B7002303B700A302B7002302B700DD
:1001B000A301B7002301B700A300B7002300B700D5
:1001C000828093F5F50F93968500D58D9396050162
:1001D000D58D61B793962700970200009696868288
:1001E000E78086FA9680C1171D8F3E96E374C3F8A8
:1001F000A5B7EFF2FFEA01112AC08545454502C2C5
:1002000002C402C602C802CA02CC02CEEF003050BD
:10021000854537052000EF0070511147F1440D442A
:100220004C0037150140788226C622C4EF00D01C4E
:1002300009474C0037150140788226C622C4EF00DA
:10024000B01B8247375400400C083EC8B707FFBFB9
:100250003ECAB70700043ECC130504409167FC86F4
:10026000EF00D021130504408545EF00502F854550
:1002700013050440EF007033056105BDEFF25FE246
:1002800037040020130484030C20494593E525021C
:100290000CA0192A0545EF0090510C20494593F513
:1002A000F50D0CA011220545EF007050FDBBEFF2DB
:1002B0003FDFAA854D45CD28D137C5BBEFF25FDEC4
:1002C000B707002083C6870305462A8493878703E0
:1002D00013E726086384C50013F7F607BA85494576
:1002E00098A3D9202285E137C9B3EFF27FDB61659E
:1002F000B70700201305056A238C0702DD3D692A34
:100300008145130580035D3F2945EF00504A814533
:100310001305800365372945EF00704981451305B2
:100320008003693F81453145513F81450545793716
:1003300081451945613795BBEFF29FD6814505454B
:10034000B53F814509459D3F8DB3EFF27FD5894784
:100350006381F5028D476380F50285476390F5025E
:1003600013050504136505F881451375F50FB937B5
:100370002DBB5105C5BF13054505EDB78145136577
:100380000508F5B7EFF2DFD185451375F50F3D3759
:1003900029BBEFF2FFD032844D3F0305040011E189
:1003A00029B30504C537D5BFEFF29FCFB75700403B
:1003B0002A84AE84938607403685B7050200EF0095
:1003C0003023B7570040054793860740E306E5FE14
:1003D00085453685EF00301AB70703008507375784
:1003E0000040BE8513050740EF00301FB70703002C
:1003F00037570040850765D501469305000413056E
:100400000740EF00701CB70707009387270837578E
:100410000040BE8513050740EF00301CB7070700FA
:1004200037570040938727087DD1A28513050740E1
:10043000EF005019B707070093874708375400406B
:10044000BE8513050440EF005019B70707009387D6
:1004500047086DD5B70500109385050813050440BE
:10046000EF00101985476317F500A68513050440B2
:10047000EF0050153704070013044408B754004038
:10048000A28513850440EF0050156DD9854513856D
:100490000440EF00F00F11B9EFF29FC0E14529458C
:1004A000213781450145093781450545F53D8145A0
:1004B0004945DD3D81454D45C53DC5BE01A001A075
:1004C000EFF21FBE51118545414502C002C202C470
:1004D000EF00F023C1477C8037150140C1473EC47F
:1004E0008A858D47130505403EC2EF00E07031015B
:1004F0006DBEEFF2FFBA1301C1FD61468145680090
:10050000A93185451305000202C002C202C4EF00F2
:100510001020854513050020EF00701F3165EF00A6
:10052000D01137150140B1478A851305054037249E
:1005300001407C8002C4EF00206C13050440352983
:1005400085473EC8B7070E003ECC6C0089471305AF
:1005500004402300F10202C602CA02CE91219D4648
:1005600005468D4513050440D5219D460946914514
:1005700013050440E129B705000413050440612375
:10058000854513050440A5298545130504408521AB
:1005900013050440B529930404402685BD2975FD43
:1005A0001305044037240140AD291304044022857B
:1005B000B52975FD13014102CDBCEFF27FAE797113
:1005C0001306C0022AC0AE8448008145BD3E854561
:1005D0000545EF00F0113704024013058400352B68
:1005E00082474C00130584003EC289473EC89307EA
:1005F00000083ECC930700103ECE930700403ED04B
:10060000930700023ED289673ED426C402C602CABE
:1006100002D6692B854513058400E923456171B431
:10062000EFF21FA821110545EF00A07FA12CEF00DC
:10063000D01479357D3D37040020372501409305DE
:10064000C4031305C544953F4D31FD3137260000E5
:100650001306C6D2814501452D3B372600001306FF
:1006600046D3854501453533B727000083A707D218
:1006700022C03EC2A1478144014437160140130500
:100680000640C1453EC4CD2BB72601401385064028
:1006900085454D261305C003EF007011B7260140B4
:1006A0001385064081457926824737160140130598
:1006B00006409385C70396213307D400B621C14570
:1006C00013140701B6947D231305C003EF00300E09
:1006D000A247C2044184FD1793F7F70FC184D1FFED
:1006E00013553440EF1060509245EF007070EF10DA
:1006F000C049B72700009385C7D32A866800EF005A
:10070000D06C700081453545693113D53440EF1008
:10071000C04D37270000832547D2EF00706D372783
:100720000000832587D2EF10401DEF100046B72749
:1007300000009385C7D32A866800EF001069700017
:1007400085453545B93113058025EF0050061DB7A5
:10075000EFF21F95371402401C403707FFF8611174
:1007600093E717001CC05C404145F98F5CC01C40FA
:100770003707F7FE7D17F98F1CC01C403707FCFFB9
:100780007D17F98F1CC05C4041777D17F98F5CC0E5
:10079000B7079F001CC4492D1C4C3706020093E785
:1007A00007021CCCB717014003A7074093860740F8
:1007B0001377F7F023A0E74003A707401367070864
:1007C00023A0E74089479CCA02C002C21C4C3707DD
:1007D0000140A16693E717001CCC5C43D58F5CC336
:1007E0001C404167B7160240D98F1CC009679C4264
:1007F000F18F3EC2824785073EC0924781E782471C
:10080000E397E7FEB71702409C431397E70063594D
:10081000070685473EC2124785476310F706B7278C
:1008200002409843C176FD16719B98C398431367A5
:10083000170098C3B7170240D843D8C3D843758F61
:10084000D8C3D843C166558FD8C39843B7060001B3
:10085000558F98C3984393166700E3DD06FED8438F
:10086000B7160240719BD8C3D84313672700D8C37B
:100870002147DC42B18BE39EE7FE21016FF0FF824E
:1008800002C251BFEFF2DF81371702405C433704E9
:1008900000209146B18B130404016385D700A14663
:1008A0006382D704B7376E01938707601CC0B71601
:1008B0000240DC420840918313F7F700B70700209D
:1008C00093870700BA978C23DC4293F5F50F93F7D3
:1008D00007083357B50081E7EFF0CFFF2A8718C02C
:1008E0006FF0AFFC5C43B777DC02938707C07DBF36
:1008F00001A097010020938161F4138181FC1715F9
:1009000000001305A56097F5FF1F9385A56F17F6E7
:10091000FF1F1306A67263FAC5008322050023A0F9
:10092000550011059105E3EAC5FE17F5FF1F1305F4
:10093000E570938501816377B500232005001105DB
:10094000E36DB5FEB72200009382028873900230F7
:100950008D427390428097F2FFFF9382A26A93E2E6
:10096000320073905230EFF0BFDE970200009382A6
:1009700062CB7390123473002030B7270140938705
:100980000740631EF500EFF2AFF185451305002027
:100990006D2B8145130500204D2B6FF00FF18280E8
:1009A0005C413707F1FF1307F7EF7D8FDC4194417E
:1009B000A207D58FD98F5CC11C4537F7F1FF13070C
:1009C000D77FD4457D8F9C49D58F94458606D58F9A
:1009D000D98F1CC55C55370710FF7D177D8FDC292B
:1009E000FD1793F7F70FD207D98F5CD582801C458E
:1009F00089C593E717001CC58280F99BEDBF1C4594
:100A000089C593E707101CC5828093F7F7EFE5BF10
:100A10001C4593E787001CC5828008450D81058928
:100A200082801C4593E747001CC5828008450981E8
:100A3000058982801C4591C537075000D98F1CC598
:100A400082803707B0FF7D17F98FD5BFA54763F8C0
:100A5000B704138765FF931717008322C500BA9761
:100A60001D433313F3001343F3FF33735300B39762
:100A7000F600B3E767005CC5994763E3C7047D16DA
:100A8000931726003E965859FD47B397C70093C762
:100A9000F7FFF98FB395C500DD8D4CD98280939710
:100AA000150003230501AE971D473317F7001347C1
:100AB000F7FF33776700B397F6005D8F18C96DBFF6
:100AC000B14763E2C7026516931726003E96185990
:100AD000FD47B397C70093C7F7FFF98FB395C500DC
:100AE000DD8D0CD982804D161317260054553A9689
:100AF000FD47B397C70093C7F7FFF58FB395C500C0
:100B0000DD8D4CD582805C41370700FA7D17F98F67
:100B10005CC15C41DD8D4CC182801C41416779170D
:100B2000F98F1CC123200500232205002324050082
:100B3000B707024023260500138787006317E500E7
:100B4000D8431367F700D8C382801387C7016316A1
:100B5000E500D8431367070FFDB713870703631832
:100B6000E500D8438566938606F0558FE9BF138765
:100B700047046315E500D843BD66C5BF13878705E5
:100B80006316E500D843B7060F00C5B71387C7063D
:100B90006316E500D843B706F000C1BF1387070806
:100BA000E314E5FAD843B706000FC1B71841E1775F
:100BB000BD0794517D8F9C45D58F9449D58FD449DD
:100BC000D58F944DD58FD44DD58FD451D58F945585
:100BD000D58FD98F1CC1DC455CC19C411CC5DC4153
:100BE0005CC582801C4189C593E717001CC18280C7
:100BF00041677917F98FDDBF944593F7060193F2AA
:100C0000F60081C7DC41B3E2F20083D3050093F71D
:100C1000F30FA5C303230500611122C226C081473B
:100C2000130480029304800405473316F70033F75A
:100C3000C3006312E602939527003D473317B700C0
:100C40001347F7FF33736700B395B20033E36500D2
:100C5000639D860050C985072147E397E7FC12444E
:100C600023206500824421018280E39696FE10C90C
:100C7000DDB782800CC982804CC98280EFF24FC2FE
:100C8000111146212A8428002EC0D122C246C20456
:100C9000C18093F404FCB7450F0093850524368585
:100CA000C20436C2C180EFF0EFC2458D42054181DA
:100CB0004AA01E209246C207C183F99BC207C18386
:100CC0001EA082479043E1679387076A9315160039
:100CD00063E6C7043685EFF0EFBFAA87420541817E
:100CE00091466373D50091471395070141814AAC42
:100CF0001E20024793E717001EA01E20562332270E
:100D0000C207C183D18E93F757BFD58F1EA0162778
:100D10005E27D58F1EA471016FF02FB98247EA2399
:100D2000B167FD176310F502B2953685EFF08FBA03
:100D3000420541819317450199E313651500A167A9
:100D40005D8D75B7B387C5008E07B385C70036853F
:100D5000EFF04FB84205418191675D8DE1BF1E21E3
:100D600089C593E717001EA18280C207C183F99B42
:100D7000C207C183CDBF1E2189C593E707101EA1FD
:100D80008280C207C18393F7F7EFC207C183C5BF53
:100D90001E2189C593E707201EA18280C207C18357
:100DA00093F7F7DFC207C183C5BF1E2189C593E74B
:100DB00007401EA18280C207C18393F7F7BFC20715
:100DC000C183C5BF0EA9828093F7E50F19C293E7CF
:100DD0001500C207C1831EA982805E290A2D420523
:100DE0005D8D6D8D220521810D8D1335150082805D
:100DF000611102C002C293D7C5012AC23EC0824718
:100E0000A205A18199CB9247D1073EC29247884360
:100E100021016D8D3335A00082809247C181E107A9
:100E2000EDB723A4A1808280371702401C430E0532
:100E300093F777F05D8D08C38280B7160240DC42DD
:100E400041771307F77FF98F5D8DC8C28280EFF27B
:100E50002FA5371702405C4391462A84B18B6385E6
:100E6000D700A1466380D708B7376E019387076024
:100E70001CC0B7160240DC42918313F7F700B70796
:100E8000002093878702BA978C23DC42184093F5A1
:100E9000F50F93F707083355B70081E73A85EFF070
:100EA0006FA348C008C448C4B7170240DC438D464E
:100EB000AD83FD8B13D737008A07F18BD98F13F6DB
:100EC000370113F7370063F4C600138747FFB707EE
:100ED000002093874701BA978C23EFF0AF9F08C893
:100EE0006FF0AF9C5C43B777DC02938707C049B7CC
:100EF00099C5371702405C4B5D8D48CB8280B71790
:100F00000240D84B1345F5FF798DC8CB828099C537
:100F1000371702401C4F5D8D08CF8280B717024003
:100F2000984F1345F5FF798D88CF828099C5371783
:100F300002405C4F5D8D48CF8280B7170240D84F8A
:100F40001345F5FF798DC8CF828099C537170240C8
:100F50005C475D8D48C78280B7170240D84713456C
:100F6000F5FF798DC8C7828093F5F51F4EA1828069
:100F70000A216D8D3335A0008280EFF26F92B707A2
:100F8000002003A50701B7157A0093850520EFF02F
:100F90006F941375F50F2387A18093175500898FE0
:100FA0008A073E950E052396A1806FF00F90EFF211
:100FB0002F8F37F400E05C40AA85F99B5CC003D515
:100FC000C180EFF02F8F08C8232404001C4093E752
:100FD00017001CC0B7F700E0D843058B75DF9843B6
:100FE000799B98C36FF06F8CEFF28F8B7111AE8489
:100FF0000144635DC402B7470140138707803A8507
:101000009305000432C0AD37B7470140138707800E
:10101000024675D533878400830507001385078052
:101020000504C205C18189370246E1B73285110145
:101030006FF0AF87411106C62EC00DCD1841AA87AB
:1010400005C358417D5511CB8546631BD700984792
:101050002300070023A207000545B240410182801A
:101060009847824614A39847050798C7D8437D1729
:10107000D8C3DDB705468A85853FF9BF011122CC6B
:101080002EC206CE26CA2A848147930500026345F4
:1010900006029245BE95838505008DE563D8C7029B
:1010A00063D4E702198E1305000293F526002AC0C7
:1010B00089C501E7930500032EC0858A814495EA1E
:1010C000B2840DA08507F1B71D8EF1BF0146E1BFC7
:1010D000824522853AC832C63EC4A93FA24732465D
:1010E0004247FD14E34690FEB284635306008144F8
:1010F000058E63C7E702A6879246338797403697E7
:101100008305070095EDB2846344900463530600A1
:101110000146F2406244D2443305F6000561828004
:101120001D8FBA8793050003228532C83EC63AC494
:101130001137B24722474246FD17EDF7BA9465BF13
:10114000228532C63EC4FD35A247324685076DB7BB
:101150008245228532C43EC2F13DFD1422469247AB
:1011600065B7397106DE22DC26DA3EC232833A8662
:1011700089ED92469307000301476C08FC86FD3D0C
:10118000F2506254D25421618280AA843684AE87A0
:1011900091CA294701446317E30063D50500B307EB
:1011A000B04005448646A309010213073103938624
:1011B00066FC36C49A853E8532CA3AC81AC63EC015
:1011C000EFE01FF4A546824732434247524663D4BC
:1011D000A600A2463695130505039306F7FFA30F55
:1011E000A7FE9A853E8532CC3ACA1AC83EC636C09A
:1011F000EFE05FEEB24742435247624663F967044D
:1012000001CC29CA9247898BB1C79305D0022685A4
:1012100032C40D3522467D169247918B95C3064701
:101220009307100632C4930500032685631EF70258
:101230001135930580072685F53B2246090479166A
:101240001647924682452685153D229515BFAA87E9
:1012500002478DB782469307D0020144A38FF6FE62
:101260009307E7FF3EC04DBFF13393058005E1B71B
:101270000145828001458280130181FD22D026CE66
:1012800006D22AC4AE82328402C68144838502001B
:1012900089EDA24781C781453E85693B9250025442
:1012A0002685F244130181028280930750026388ED
:1012B000F500224516C88504B53BC24239A883878C
:1012C000120013871200639CB70022459305500259
:1012D0003AC88D3342478504BA82850245BFD5DBC3
:1012E0009306B0026389D70463C8F6009306300200
:1012F0006386D704814705A09306D002638AD7008E
:1013000093060003E398D7FE13872200894721A0A4
:10131000138722008547830607001306B002638304
:10132000C6046341D60213063002638BC602BA823A
:101330000145A54681A0138722006DBF13872200B7
:101340009147D1BF1306D0026389C600130600037C
:10135000E39FC6FC93E7270031A005078547C1BF7F
:1013600093E747000507E1B71316250032950605F8
:101370003A95850203860200130706FD9375F70F61
:10138000E3F4B6FE1307E0029946631EE600850209
:101390008146A54503860200130606FD1377F60F66
:1013A00063F5E50236C6038702001306A006630D47
:1013B000C70A6343E6021306C0046307C70A13069D
:1013C0008006630CC70881452DA813972600BA969E
:1013D0008606B29685027DBF130640076306C708DE
:1013E0001306A0076302C7081306C0068145631AE7
:1013F000C700038612008D456314E60085029145FF
:10140000850203860200930300061307100663C4D7
:10141000C300130710049303700663C4C306930349
:101420005006635376189303700463C1C304930595
:101430005004635BB61613073004E310E6EA184065
:101440009303440016CA230CE1001EC8A30C01003C
:101450000147BE862A862C0849A8038612008145CA
:10146000E311E6FA890271BF8502B1BF9306300627
:10147000E307D6FC63CEC606930680056303D60257
:10148000A9BD930630076304D60463CBC602930656
:10149000F0066302D60E9306000793E74700E31EAB
:1014A000D6E29146639FD50A930384000C405040D6
:1014B00016CA3AC23EC01EC8AA870147C146B9A093
:1014C000930650076308D6069306800745BF184069
:1014D000B726000093034400938506D411C3BA8550
:1014E000324716CA1EC8BE862A862245413E0DA036
:1014F00091466394D502930384000C40504016CA71
:101500003AC23EC01EC8AA870547A94622458D3368
:10151000C243AA941E84D242C9B3B2460C4016C834
:1015200036C23AC011042A87854629462245153914
:10153000AA9461B39146639DD500930384000C4047
:10154000504016CA3AC23EC01EC8AA87014775BF9E
:10155000B2460C4016C836C23AC011042A878146EA
:10156000E9B7B24616C80C40414636C23AC011042B
:101570002A87814665BF9146639ED5009303840008
:101580000C40504016CA3AC23EC01EC8AA87014746
:10159000A146ADBFB2460C4016C836C23AC01104CF
:1015A0002A878146214659B70C40130684004040E3
:1015B0003AC22A87224532C83EC02286B687A9464B
:1015C00016CA4D39AA944244B9B7130141FD32CE2F
:1015D0003ED42AC67008FD57480006CC36D03AD211
:1015E00002C23EC432C04939E2401301C1028280C6
:1015F0001301C1FD9356750126CC13169500935423
:10160000F50106D022CE93F6F60F2582A682638BD3
:1016100006109307F00F638CF6100E06B707000450
:101620005D8E938616F80144814393D77501139319
:10163000950093F7F70F13539300FD81E5C313074C
:10164000F00F6386E702938717F80E03370700044D
:101650009D8E3363E30081475D8C17050000130501
:10166000E56E0A042A940040AD8C2295028593868B
:1016700016F06314030C89475D8C170500001305F1
:10168000E5700A042A9403230400AD8C1A950285A0
:1016900081449305F00FB7074000139597008250DF
:1016A0007244939775012581FE045D8D458DE2445A
:1016B0001301410282809305F00F8147F9BF1A861A
:1016C000AE82BE8389476384F3228D47E382F3FCB5
:1016D00085476384F30C9385F60793F412006356F1
:1016E000B0189377760099C79377F6001145638316
:1016F000A70011069317460063D80700B70700F844
:10170000FD177D8E938506089307E00FE3C5B7FAB2
:1017100093176600A58393F5F50F41B7631803048B
:10172000854799BF15E2114481468543FDBD01EA15
:1017300021449306F00F8943CDBD8D4731BF31441D
:101740009306F00F8D43D5B532852EC432C026C224
:10175000852302469307B5FF9306A0F83316F600DB
:10176000898E014481439242A245C1B51A8536CA89
:1017700016C832C61EC42EC21AC01D2BD246024342
:101780009307B5FFAA963313F30093866607814744
:101790009245A2433246C242C1B593F4120081453C
:1017A0008147E5BDC16713175300FD17F98F3ACA8A
:1017B0003EC213540701637D660E3285A28536C68C
:1017C00032C4EFE03F9192452AC0EFE0BF8E22463F
:1017D000B246AA873283FD160146A2851A8536C80D
:1017E0003EC632C4EFE0DF912246B2474205518D3A
:1017F000C246637FF500524782453A951386F5FF4E
:101800006362E50E6370F50E1386E5FF32C03A950C
:10181000B307F5403E85A28536C83EC6EFE09F8BF4
:1018200092452AC4EFE01F89B2472AC2A2853E85AD
:10183000EFE01F8D124642052243C246637CC5007D
:1018400052479307F3FF3A95636CE508637AC5083E
:1018500079133A9582473306C5403336C000C20734
:10186000B3E767005D8EA682BDB505433303B34081
:1018700091C56D4581458147E34165E29386E6095F
:10188000B316D600B35766003336D000D18F93F627
:10189000770099C693F6F70011466383C600910757
:1018A00013975700634207049A07A5838145F5B350
:1018B000135316001A85A28536C832C61AC4EFE043
:1018C0007F8192452AC0EFE0EFFE3246AA87C246EA
:1018D0007E064182224311B7AE82BE830146DDB34C
:1018E0003E838DBF32C02DB7854581477DB393F4CC
:1018F00012009305F00F81474DB3011122CC135410
:10190000750126CA06CE931495001374F40FA580B2
:101910009356F5014DCC9307F00F630CF40CB70709
:1019200000048E04DD8C130414F88147014613D59E
:101930007501139795001375F50F2583FD814DC52E
:101940001303F00F630D65020E07130515F8370337
:101950000004336767002A9481431305140033C3DE
:10196000B6002AC03D459A826362F5101705000053
:101970001305C5458A07AA979C433E950285130423
:10198000F40F61EB93E727008943C1BF01431307BD
:10199000F00FB7074000F2406244A6075E07A58338
:1019A0001315F301D98FD2445D8D05618280AE821B
:1019B000BA841E8689476306F60A8D47E308F6FC5B
:1019C00085471683631EF61A01478147E9B7B5E0DC
:1019D00013D57501139795001375F50F91470144C1
:1019E00005462583FD8129FD19EB93E71700854303
:1019F000ADB79DE8A1471304F00F09460DBF3A8526
:101A000032C83EC62EC436C23AC05D240247130314
:101A1000B5FF098C331767001304A4F8814392467D
:101A2000A245B247424615BFB1471304F00F0D4619
:101A3000FDBD26852EC236C0A52C9307B5FF130425
:101A4000A0F8B394F400098C814701468246924580
:101A5000F9BD93E737008D4309B78947B682E31E86
:101A6000F6F416831307F00F814735B7C167FD17EA
:101A7000B3F3F400F98FC18041831E85BE85EFE08A
:101A80006FE3AA82BA851E85EFE0CFE2AA83BE8506
:101A90002685EFE02FE2AA87BA852685EFE08FE161
:101AA00013D70201BE93BA9363F4F300C1673E9566
:101AB000C167FD17B3F4F300C204B3F2F200A692BB
:101AC0009394620093D30301B334900093D2A201A4
:101AD000AA93B3E2540093946300B3E45400939741
:101AE000440063D70700024493D714008588DD8C37
:101AF0001307F407635FE00293F7740099C793F745
:101B0000F40091466383D70091049397440063D80F
:101B10000700B70700F8FD17FD8C130704089307AB
:101B2000E00F63CBE70493976400A5831377F70F67
:101B30009DB58547B386E74011C76D46014781478C
:101B4000E34BD6E41304E40933948400B3D7D40000
:101B5000B3348000C58F13F7770019C713F7F70068
:101B600091466303D700910713975700634C070012
:101B70009A07A583014705B51307F00F814721BDDB
:101B80000244BDB70547814739B5370680009357F2
:101B900075011307F6FF93F7F70F9305E007698FB9
:101BA0009356F50163FCF5009305D00963FAF5003F
:101BB000370500801345F5FF369582800145828008
:101BC00093055009518F63CDF50013066009B307E3
:101BD000F640B357F7003305F040F5F23E858280BA
:101BE0009387A7F6B317F700FDB7511106C422C2B9
:101BF00026C00DCD9357F54133C4A7001D8CAA8490
:101C000022857D209307E0093387A7409307600969
:101C1000FD8063CCE702A1469377F70F63D5A6005A
:101C200061153314A4002604258021A08144814736
:101C30000144260413559400A2401244DE07FE041A
:101C40005D8D458D8244310182809307900963DD6B
:101C5000E7009307B5019546B317F400898EB35694
:101C6000D4003334F000558C954763D6A700930712
:101C7000B5FF3314F400B70600FCFD16937774002B
:101C80003376D40085C39377F4009145638CB70015
:101C900011069317560063D707009307F009758E56
:101CA0003387A7401314660025809377F70F51B749
:101CB000C167637CF5029307F00F1307000263EB23
:101CC000A7009707000093876714AA978823330516
:101CD000A740828021819707000093872713AA9746
:101CE000882361473305A7408280B7070001636DF1
:101CF000F50061819707000093874711AA97882311
:101D000021473305A74082804181970700009387D0
:101D1000E70FAA97882341473305A7408280000038
:101D20000000F041000040400000204154312F27C6
:101D3000433A000054322F27433A00002533640011
:101D4000286E756C6C2900005CFAFFFF6EF9FFFFCE
:101D500056FAFFFF76F9FFFF56FAFFFF48F9FFFF3B
:101D600056FAFFFF76F9FFFF6EF9FFFF6EF9FFFFEE
:101D700048F9FFFF76F9FFFF7CF9FFFF7CF9FFFFD1
:101D80007CF9FFFF48F9FFFF2EF9FFFF2EF9FFFF57
:101D900016FAFFFF50FBFFFF16FAFFFF08F9FFFFDF
:101DA00016FAFFFF50FBFFFF2EF9FFFF2EF9FFFF92
:101DB00008F9FFFF50FBFFFF3CF9FFFF3CF9FFFF75
:101DC0003CF9FFFF08F9FFFFA4FCFFFFE8FBFFFF62
:101DD000E8FBFFFFE6FBFFFFECFBFFFFECFBFFFF79
:101DE000C4FBFFFFE6FBFFFFECFBFFFFC4FBFFFFB5
:101DF000ECFBFFFFE6FBFFFF92FCFFFF92FCFFFF07
:101E000092FCFFFFC4FBFFFF000102020303030378
:101E1000040404040404040405050505050505057A
:101E2000050505050505050506060606060606065A
:101E30000606060606060606060606060606060642
:101E4000060606060606060607070707070707072A
:101E50000707070707070707070707070707070712
:101E60000707070707070707070707070707070702
:101E700007070707070707070707070707070707F2
:101E800007070707070707070808080808080808DA
:101E900008080808080808080808080808080808C2
:101EA00008080808080808080808080808080808B2
:101EB00008080808080808080808080808080808A2
:101EC0000808080808080808080808080808080892
:101ED0000808080808080808080808080808080882
:101EE0000808080808080808080808080808080872
:101EF0000808080808080808080808080808080862
:081F0000080808080808080899
:101F08000102030405060708010203040506070881
:101F1800006CDC020204060804080C1008101820E3
:101F280010203040204060800102030405060708A5
:081F380001020304050607087D
:00000001FF
