:100000006F002036000000003201000034010000C3
:1000100000000000000000000000000000000000E0
:1000200000000000000000000000000000000000D0
:100030003601000000000000600300000000000026
:100040006003000060030000600300006003000024
:100050006003000060030000600300006003000014
:100060006003000060030000600300006003000004
:1000700060030000600300006003000060030000F4
:1000800060030000600300006003000060030000E4
:100090006003000060030000600300000000000037
:1000A000511126C022C206C4828282441244A24058
:1000B00031018280634E050263C305042E86AA8542
:1000C0007D5515C285466378B6006356C0000606A6
:1000D0008606E36CB6FE014563E4C500918D558D3F
:1000E00085820582F5FA82808682C93F2E858282CA
:1000F0003305A04063D70500B305B040C1B7B305D1
:10010000B0408682653F3305A0408282868263C705
:100110000500634905005D372E858282B305B04036
:10012000E35B05FE3305A040513F3305B0408282BA
:10013000000001A001A037070020130787011E233C
:100140009306703E8507C207C18363E9F6001EA3CC
:10015000B7F700E023A2070073002030B7070020A4
:100160009387A7012310070098231347F7FF98A34D
:10017000C5B7EFF2FFF2511185451305000202C029
:1001800002C202C4ED2CC1477C8037150140C14733
:100190003EC48A858D47130505403EC2A92431011E
:1001A00029B7B7E700E0056723A0E710B7F700E03D
:1001B000D8437D15799BD8C388CB23A407003D473E
:1001C00098C38280EFF2DFED052AC92C5D370965FF
:1001D000130505F4F937370400200346A401371549
:1001E0000140C14513050540AD2CC5BFEFF25FEBE3
:1001F000371402401C403707FFF8611193E71700DE
:100200001CC05C404145F98F5CC01C403707F7FEBD
:100210007D17F98F1CC01C403707FCFF7D17F98F35
:100220001CC05C4041777D17F98F5CC0B7079F0009
:100230001CC42D2C1C4C3706020093E707021CCC73
:10024000B717014003A70740938607401377F7F0DD
:1002500023A0E74003A707401367070823A0E74050
:1002600089479CCA02C002C21C4C37070140A166E4
:1002700093E717001CCC5C43D58F5CC31C404167DF
:10028000B7160240D98F1CC009679C42F18F3EC24D
:10029000824785073EC0924781E78247E397E7FEA2
:1002A000B71702409C431397E7006355070485473F
:1002B0003EC212478547631DF702B72702409843A5
:1002C000B7160240719B98C3984398C3B717024072
:1002D000D84313670702D8C3D843719BD8C3D84308
:1002E00013671700D8C31147DC42B18BE39EE7FECA
:1002F000210165BB02C275BFEFF29FDA37170240DA
:100300005C43370400209146B18B130404016385DC
:10031000D700A1466380D704B7376E019387076083
:100320001CC0B7160240DC420840918313F7F70067
:10033000B707002093870700BA978C23DC4293F518
:10034000F50F93F707083357B50099E3853B2A87E4
:1003500018C0A1BB5C43B777DC02938707C0C9B75D
:1003600001A0970100209381614B138181FE130549
:10037000404D970500209385E5C817060020130619
:10038000E6C963FAC5008322050023A055001105C4
:100390009105E3EAC5FE17050020130525C89385DE
:1003A00081806377B500232005001105E36DB5FE5C
:1003B000B722000093820288739002308D427390BE
:1003C0004280970200009382E2C393E2320073906E
:1003D0005230EFF0BFE1970200009382E2DE7390AB
:1003E000123473002030944593F7060193F2F6001F
:1003F00081C7DC41B3E2F20083D3050093F7F30F2A
:10040000A5C303230500611122C226C0814713043E
:1004100080029304800405473316F70033F7C300C6
:100420006312E602939527003D473317B700134741
:10043000F7FF33736700B395B20033E36500639D44
:10044000860050C985072147E397E7FC1244232023
:100450006500824421018280E39696FE10C9DDB7D3
:10046000828019C20CC982804CC982803717024031
:100470001C430E0593F777F05D8D08C3828099C504
:10048000371702401C4F5D8D08CF8280B71702409E
:10049000984F1345F5FF798D88CF8280EFF25FC0CA
:1004A000B707002003A50701B7157A00938505203B
:1004B00031311375F50FB7070020238FA70093176D
:1004C0005500898F8A073E950E05B7070020239EA9
:0404D000A700E1BEE2
:1004D40001020304050607080102030405060708D0
:0804E40000127A000000000084
:00000001FF
