:100000006F005006000000005C0400005E04000069
:1000100000000000000000000000000000000000E0
:1000200000000000000000000000000000000000D0
:1000300062080000000000006208000000000000EC
:100040006208000062080000620800006208000008
:1000500062080000620800006208000062080000F8
:1000600062080000620800006208000062080000E8
:1000700062080000620800006208000062080000D8
:1000800060040000620800006208000062080000CE
:100090006208000062080000620800000000000022
:1000A000511126C022C206C4828282441244A24058
:1000B000310182802A86014593F6150091C232955E
:1000C00085810606F5F9828000000000634E050276
:1000D00063C305042E86AA857D5515C285466378BF
:1000E000B6006356C00006068606E36CB6FE014500
:1000F00063E4C500918D558D85820582F5FA828075
:100100008682C93F2E8582823305A04063D70500D1
:10011000B305B040C1B7B305B0408682653F330533
:10012000A0408282868263C70500634905005D376F
:100130002E858282B305B040E35B05FE3305A04007
:10014000513F3305B04082820000EFF27FF5370463
:1001500000201304940308201365450008A085229D
:100160000545EF00103408201375950F08A0812A6B
:100170000545EF00103315BFEFF29FF23704002062
:1001800013049403AA84082093F704FF92043D8982
:100190005D8D08A02D22553F08203D89458D1375A2
:1001A000F50F08A0292A553709B7EFF27FEFB707F7
:1001B000002003C797032A84938797039DC585462C
:1001C0006388D5023707002083468703982385C6B6
:1001D0000546136787006381C6028823CD202285E8
:1001E000613F0545EF00F02BC9B5519B98A3D9BFDE
:1001F00013671700E5BF5D9B98A3C5B7EFF25FEAF1
:100200000547B707002037040020238CE7021304BA
:10021000940391471CA0DD20082055202945EF00BC
:1002200050288145130530034937814513052003C4
:10023000AD3F8145130580028D3F81453145B5377E
:10024000814505459D37814519458537B9BDEFF293
:100250003FE585451375F50F893F81BDEFF25FE4FA
:100260008145054599378145094581373DBDEFF207
:100270003FE389476381F5028D476380F502854737
:100280006390F50213050504136505F881451375A0
:10029000F50F213F19BD5105C5BF13054505EDB744
:1002A000814513650508F5B7EFF29FDF3284C1374A
:1002B0000305040011E1D5BB0504513FD5BFEFF2A2
:1002C0003FDE2A8441201305E004ED2089222285A7
:1002D000D520352A6520D1BBEFF29FDC511199471B
:1002E0007C80D1473EC48A858D47371501403EC288
:1002F00023110100EF00805F310145BBEFF25FDAAF
:1003000085454145EF004078C13F45B3EFF25FD9E5
:100310005111114489478A85371501407C8022C4D8
:10032000231101002312010023130100C123D1472F
:100330003EC48A858D473715014060803EC27D23CB
:100340003101A5B3EFF2DFD5413F894537150140B3
:100350000D25914537150140292D13058002EF0029
:10036000B010894537150140392513058002EF008B
:10037000B00F914537150140FD2B05BBEFF25FD261
:10038000A13F894537150140FD23914537150140AF
:10039000CD2313058002EF00300D8945371501404C
:1003A000C92B914537150140E92313058002EF0061
:1003B000B00BE5B9EFF2DFCEAA84393F914537158E
:1003C0000140552B214493978401E18789453715D6
:1003D000014063DC0702712B5145EF00F0089145A5
:1003E0003715014079235145EF0010089145371525
:1003F000014051237D14860451451374F40F93F486
:10040000F40FEF00700661F04DB1B523F1B7EFF2D4
:100410003FC9D935894537150140A12B2945EF0042
:10042000B004914537150140A92329453D64EF00EB
:10043000B003130414A6D93D8945371501402D2377
:1004400019E53715014091453D23014539A07D143B
:100450004204418075F01D37054581B901A001A016
:10046000611122C2374401409305505213050480A4
:1004700026C0EF00207785476314F5061305048036
:10048000EF006074938441819C20370400201304A2
:10049000C403A29788A337150140C1451305054041
:1004A000D9299C203D47850793F7F70F9CA06368E7
:1004B000F700A29798239307A00F6315F70005474D
:1004C000A38AE180374401409305000213050480AC
:1004D000EF0080709305505213050480EF004074C4
:1004E00012448244210173002030EFF27FBB51118E
:1004F00085451305000202C002C202C47123C14730
:100500007C8037150140C1473EC48A858D4713055D
:1005100005403EC2E12E310149BEEFF27FB81165C0
:100520001301C1FD85451305050202C402C602C8B8
:1005300002CA02CC02CE02D002C002C2B1233714DA
:1005400001408D47930400023EC62C00E14713058D
:10055000044064843EC8592E930700047C842C0018
:100560009147130504403EC851268967374401402E
:10057000938707583ECA4C08B7070C001305048040
:100580003ECE02CC23100102392B05469305505272
:1005900013050480D52B85475C810A8585473EC2BB
:1005A0006480F92E854513050480E123130141027F
:1005B000EDBCEFF2FFAE2A84B304B50063139400E0
:1005C000EDB40C20B747014013850780CD2BB7470A
:1005D0000140938707803E8593050008CD2BB747E0
:1005E00001409387078065D90504C9BFEFF25FAB6F
:1005F000B7B781011111938757A5054502C83EC6BB
:10060000E957A308F10002CA02CC852EED221D2570
:10061000E93D2137E5369931371600001306862E5D
:1006200081450145513199456800613703C75181C2
:1006300049C7370400208346C40313075005130439
:10064000C4037556639CE60214301307A00A63972F
:10065000E60234201307100879566391E60234301D
:100660000D47639DE60074301307A00F7D56639716
:10067000E6000306440058302206598EB7150000E4
:100680009385852F0A85EF00B0430A86854501458D
:10069000213937150140C14513050540D92C9387F1
:1006A0005181232004002322040023240400232654
:1006B0000400238A01802380070013050019D52335
:1006C0009DB7EFF2FF9D371402401C403707FFF83B
:1006D000611193E717001CC05C404145F98F5CC075
:1006E0001C403707F7FE7D17F98F1CC01C403707E9
:1006F000FCFF7D17F98F1CC05C4041777D17F98F97
:100700005CC0B7079F001CC4F1241C4C37060200D4
:1007100093E707021CCCB717014003A70740938655
:1007200007401377F7F023A0E74003A707401367BC
:10073000070823A0E74089479CCA02C002C21C4C9C
:1007400037070140A16693E717001CCC5C43D58FA7
:100750005CC31C404167B7160240D98F1CC00967B3
:100760009C42F18F3EC2824785073EC0924781E797
:100770008247E397E7FEB71702409C431397E700D1
:100780006359070685473EC2124785476310F7063F
:10079000B72702409843C176FD16719B98C39843D2
:1007A0001367170098C3B7170240D843D8C3D8437C
:1007B000758FD8C3D843C166558FD8C39843B70641
:1007C0000001558F98C3984393166700E3DD06FE3A
:1007D000D843B7160240719BD8C3D843136727008C
:1007E000D8C32147DC42B18BE39EE7FE21016FF0C5
:1007F000DF8B02C251BFEFF2BF8A371702405C4362
:10080000370400209146B18B130404016385D7009F
:10081000A1466382D704B7376E01938707601CC077
:10082000B7160240DC420840918313F7F700B70780
:10083000002093870700BA978C23DC4293F5F50FCD
:1008400093F707083357B50081E7EFF0BF882A8791
:1008500018C06FF09F855C43B777DC02938707C0B1
:100860007DBF01A097010020938141FD138181FC90
:1008700017150000130585A997F5FF1F9385857847
:1008800017F6FF1F1306867B63FAC5008322050057
:1008900023A0550011059105E3EAC5FE17F5FF1FDA
:1008A0001305C579938501826377B5002320050080
:1008B0001105E36DB5FEB7220000938202887390A4
:1008C00002308D427390428097F2FFFF93828273D1
:1008D00093E2320073905230EFF0BFDE97020000D7
:1008E000938202D17390123473002030944593F7B1
:1008F000060193F2F60081C7DC41B3E2F20083D334
:10090000050093F7F30FA5C303230500611122C26D
:1009100026C08147130480029304800405473316E0
:10092000F70033F7C3006312E602939527003D47B3
:100930003317B7001347F7FF33736700B395B2005F
:1009400033E36500639D860050C985072147E3971F
:10095000E7FC124423206500824421018280E39653
:1009600096FE10C9DDB7828008456D8D3335A00035
:1009700082800CC982804CC9828023ACA180828095
:1009800083A68181854718216390F6021C31639C00
:10099000D7023C219A0793E707F8B7E600E093F700
:1009A000F70FBA962380F640854693575700339742
:1009B000E600544189CE938707048A07B7E600E032
:1009C000B69798C38280EDF33C219A07F9B79387D5
:1009D0000706E5B7371702401C430E0593F777F07B
:1009E0005D8D08C38280EFF2AFEB371702405C43A6
:1009F00091462A84B18B6385D700A1466380D708CE
:100A0000B7376E01938707601CC0B7160240DC42FF
:100A1000918313F7F700B707002093878702BA97EF
:100A20008C23DC42184093F5F50F93F707083355F4
:100A3000B70081E73A85EFF0EFE948C008C448C441
:100A4000B7170240DC438D46AD83FD8B13D73700CB
:100A50008A07F18BD98F13F6370113F7370063F448
:100A6000C600138747FFB707002093874701BA974F
:100A70008C23EFF02FE608C86FF02FE35C43B777C5
:100A8000DC02938707C049B799C5371702401C4F4E
:100A90005D8D08CF8280B7170240984F1345F5FF50
:100AA000798D88CF8280EFF2AFDF1629F577FD17B9
:100AB000F58FF621DA252111D58F1EA95625FD7750
:100AC0009387379FF58FD6212A842EC0D58F962500
:100AD000D58FB625D58F5EA55E29C207C18393F752
:100AE000F7CF5D8F5AA94800FD3DB7470140938776
:100AF000078082456312F406C2475A2413951700F3
:100B00003E9542070E0541873E958C416358070488
:100B10008605EFF02FDC930540062AC0EFF08FDB4F
:100B2000824793144500930540063E85EFF04FDD64
:100B30005E24C207C18763D507020E0593054006F0
:100B400013052503EFF00FD91D89C98CC204C1809C
:100B500006A461016FF06FD5B24745B78A0555BF4E
:100B600012059305400613052503EFF0AFD63D8926
:100B7000E9BF91C55E250967D98F5EA582805A2598
:100B8000F977FD17F98FD5BF13F7F50F8547158353
:100B9000B395B7006319F7009307C500984301CEDA
:100BA000D98D8CC38280894693074501E318D7FE0F
:100BB00093070501E5B793C5F5FFF98DDDB793F50B
:100BC000F51F4EA182804A211375F51F82800A21EC
:100BD0006D8D3335A000828093C5F5FFC205C181BC
:100BE0000EA1828013F7F50F85461583B397B600E3
:100BF0006311D7025A25F98F1A2101454207418313
:100C000081CB0545A181B315B5006D8F3335E0006B
:100C1000828089466314D7001A29F1BF5A29E1BF9F
:100C2000A1818547B397B70093C7F7FFC207C18378
:100C30001EA18280EFF2CFC6B707002003A50701EF
:100C4000B7157A0093850520EFF0CFC81375F50F1F
:100C5000238FA18093175500898F8A073E950E0533
:100C6000239EA1806FF06FC4EFF28FC337F400E0D2
:100C70005C40AA85F99B5CC003C5E181EFF08FC39E
:100C800008C8232404001C4093E717001CC0B7F7D2
:100C900000E0D843058B75DF9843799B98C36FF0CC
:100CA000CFC0EFF2EFBF37F400E05C40AA85F99BBC
:100CB0005CC003D5C181EFF0EFBF08C82324040056
:100CC0001C4093E717001CC0B7F700E0D843058B22
:100CD00075DF9843799B98C36FF02FBDEFF24FBC3F
:100CE0007111AE840144635DC402B74701401387AC
:100CF00007803A859305000432C0D13DB7470140D3
:100D000013870780024675D5338784008305070063
:100D1000138507800504C205C18155350246E1B738
:100D2000328511016FF06FB8411106C62EC00DCD8E
:100D30001841AA8705C358417D5511CB8546631BD1
:100D4000D70098472300070023A207000545B240BB
:100D5000410182809847824614A39847050798C7A7
:100D6000D8437D17D8C3DDB705468A85853FF9BFCF
:100D7000011122CC2EC206CE26CA2A8481479305B1
:100D80000002634506029245BE95838505008DE508
:100D900063D8C70263D4E702198E1305000293F5E6
:100DA00026002AC089C501E7930500032EC0858A65
:100DB000814495EAB2840DA08507F1B71D8EF1BF7D
:100DC0000146E1BF824522853AC832C63EC4A93FEA
:100DD000A24732464247FD14E34690FEB284635375
:100DE00006008144058E63C7E702A68792463387D3
:100DF000974036978305070095EDB28463449004CD
:100E0000635306000146F2406244D2443305F600C3
:100E1000056182801D8FBA8793050003228532C841
:100E20003EC63AC41137B24722474246FD17EDF796
:100E3000BA9465BF228532C63EC4FD35A24732460C
:100E400085076DB78245228532C43EC2F13DFD144F
:100E50002246924765B7397106DE22DC26DA3EC2A9
:100E600032833A8689ED92469307000301476C0866
:100E7000FC86FD3DF2506254D25421618280AA84E6
:100E80003684AE8791CA294701446317E30063D5CE
:100E90000500B307B04005448646A30901021307C5
:100EA0003103938666FC36C49A853E8532CA3AC8B9
:100EB0001AC63EC0EFF0CFA4A54682473243424750
:100EC000524663D4A600A246369513050503930641
:100ED000F7FFA30FA7FE9A853E8532CC3ACA1AC8FF
:100EE0003EC636C0EFF00F9FB247424352476246BC
:100EF00063F9670401CC29CA9247898BB1C793056E
:100F0000D002268532C40D3522467D169247918B3C
:100F100095C306479307100632C493050003268540
:100F2000631EF7021135930580072685F53B22469F
:100F3000090479161647924682452685153D229565
:100F400015BFAA8702478DB782469307D002014496
:100F5000A38FF6FE9307E7FF3EC04DBFF133930525
:100F60008005E1B70145828001458280130181FD42
:100F700022D026CE06D22AC4AE82328402C6814452
:100F80008385020089EDA24781C781453E85693B83
:100F9000925002542685F244130181028280930705
:100FA00050026388F500224516C88504B53BC2424D
:100FB00039A88387120013871200639CB70022456B
:100FC000930550023AC88D3342478504BA828502A0
:100FD00045BFD5DB9306B0026389D70463C8F6002A
:100FE000930630026386D704814705A09306D0029A
:100FF000638AD70093060003E398D7FE1387220085
:10100000894721A01387220085478306070013061E
:10101000B0026383C6046341D60213063002638BB9
:10102000C602BA820145A54681A0138722006DBF82
:10103000138722009147D1BF1306D0026389C600EF
:1010400013060003E39FC6FC93E7270031A00507C2
:101050008547C1BF93E747000507E1B71316250091
:10106000329506053A95850203860200130706FDB0
:101070009375F70FE3F4B6FE1307E0029946631E7B
:10108000E60085028146A54503860200130606FD9B
:101090001377F60F63F5E50236C6038702001306E1
:1010A000A006630DC70A6343E6021306C004630784
:1010B000C70A13068006630CC70881452DA813973D
:1010C0002600BA968606B29685027DBF13064007B3
:1010D0006306C7081306A0076302C7081306C00605
:1010E0008145631AC700038612008D456314E6002C
:1010F00085029145850203860200930300061307CB
:10110000100663C4C300130710049303700663C47E
:10111000C30693035006635476189303700463C1A7
:10112000C30493055004635CB61613073004E31040
:10113000E6EA18409303440016CA230CE1001EC8D7
:10114000A30C01000147BE862A862C0849A8038605
:1011500012008145E311E6FA890271BF8502B1BF31
:1011600093063006E307D6FC63CFC60693068005D8
:101170006303D602A9BD930630076304D60463CB8C
:10118000C6029306F0066303D60E9306000793E7A4
:101190004700E31ED6E291466390D50C930384008A
:1011A0000C40504016CA3AC23EC01EC8AA8701472A
:1011B000C14681A8930650076309D60693068007A7
:1011C00045BF1840B71600009303440093850630CE
:1011D00011C3BA85324716CA1EC8BE862A86224562
:1011E000EFF01FB90DA091466394D50293038400DC
:1011F0000C40504016CA3AC23EC01EC8AA870547D6
:10120000A94622458533C243AA941E84D242C1B363
:10121000B2460C4016C836C23AC011042A87854629
:10122000294622450D39AA9459B39146639DD500AC
:10123000930384000C40504016CA3AC23EC01EC8F8
:10124000AA87014775BFB2460C4016C836C23AC0DD
:1012500011042A878146E9B7B24616C80C404146B8
:1012600036C23AC011042A87814665BF9146639E03
:10127000D500930384000C40504016CA3AC23EC0C9
:101280001EC8AA870147A146ADBFB2460C4016C88A
:1012900036C23AC011042A878146214659B70C400C
:1012A0001306840040403AC22A87224532C83EC015
:1012B0002286B687A94616CA4539AA944244B9B7C8
:1012C000130141FD32CE3ED42AC67008FD574800B6
:1012D00006CC36D03AD202C23EC432C04139E240D6
:1012E0001301C10282800000546F462052616E6774
:1012F0006520286D6D293A00253464200000000027
:08130000286E756C6C290000D9
:10130800010203040506070801020304050607088D
:10131800006CDC020204060804080C1008101820EF
:1013280010203040204060800102030405060708B1
:08133800010203040506070889
:00000001FF
