:100000006F00606D00000000FE03000000040000AF
:1000100000000000000000000000000000000000E0
:1000200000000000000000000000000000000000D0
:10003000D406000000000000D4060000000000000C
:10004000D4060000D4060000D4060000D406000048
:10005000D4060000D4060000D4060000D406000038
:10006000D4060000D4060000D4060000D406000028
:10007000D4060000D4060000D4060000D406000018
:10008000D4060000D4060000D4060000D406000008
:10009000D406000002040000D406000000000000A6
:1000A000511126C022C206C4828282441244A24058
:1000B000310182802A86014593F6150091C232955E
:1000C00085810606F5F9828000000000634E050276
:1000D00063C305042E86AA857D5515C285466378BF
:1000E000B6006356C00006068606E36CB6FE014500
:1000F00063E4C500918D558D85820582F5FA828075
:100100008682C93F2E8582823305A04063D70500D1
:10011000B305B040C1B7B305B0408682653F330533
:10012000A0408282868263C70500634905005D376F
:100130002E858282B305B040E35B05FE3305A04007
:10014000513F3305B04082820000EFF27FF501118C
:100150002AC08545454502C202C402C602C802CA79
:1001600002CC02CEEF00B013854537052000EF002A
:10017000F0141147F1440D444C00371501407882CA
:1001800026C622C4EF00A05D09474C003715014088
:10019000788226C622C4EF00805C82473754004034
:1001A0000C083EC8B707FFBF3ECAB70700043ECCE5
:1001B000130504409167FC86EF00A062130504401C
:1001C0008545EF002070854513050440EF0040741D
:1001D0000561E1BDEFF2DFEC370400201304840376
:1001E0000C20494593E525020CA0192A0545EF008E
:1001F000903B0C20494593F5F50D0CA011220545C7
:10020000EF00703A5DB5EFF2BFE9AA854D45CD2804
:10021000D13761BDEFF2DFE8B707002083C687035F
:1002200005462A849387870313E726086384C5005D
:1002300013F7F607BA85494598A3D9202285E137F7
:10024000ADB5EFF2FFE56165B70700201305056A5C
:10025000238C0702DD3D51228145130580035D3F5C
:100260002945EF0050348145130580036537294542
:10027000EF007033814513058003693F81453145A7
:10028000513F81450545793781451945613731BD74
:10029000EFF21FE181450545B53F814509459D3F89
:1002A00029B5EFF2FFDF89476381F5028D4763804F
:1002B000F50285476390F50213050504136505F8FB
:1002C00081451375F50FB937CDB35105C5BF13057A
:1002D0004505EDB7814513650508F5B7EFF25FDC1D
:1002E00085451375F50F3D37C9B3EFF27FDB3284D7
:1002F0004D3F0305040011E14DBB0504C537D5BFD3
:10030000EFF21FDAB75700402A84AE849386074085
:100310003685B70502008125B7570040054793860B
:100320000740E307E5FE854536854D2BB7070300FB
:10033000850737570040BE85130507401125B707CD
:1003400003003757004085076DD50146930500042B
:1003500013050740E92BB70707009387270837578E
:100360000040BE8513050740E12BB707070037574C
:1003700000409387270865D5A2851305074075239C
:10038000B70707009387470837540040BE85130519
:1003900004407D23B70707009387470875D5B70545
:1003A00000109385050813050440752385476316DF
:1003B000F500A685130504408D2B370407001304B0
:1003C0004408B7540040A28513850440952B75D985
:1003D0008545138504400523C9B9EFF27FCCE1457B
:1003E0002945393F81450145213F81450545093F63
:1003F00081454945313781454D4519377DB101A0CA
:1004000001A0711122C0373401408945130504C091
:10041000EF00300F19C98145130504C0EF00F00348
:100420008945130504C0EF00500F37340140914552
:10043000130504C0EF00F00C11CD130504C0EF004C
:10044000D00BB7070020239DA7029145130504C0D8
:10045000EF00B00C0244110173002030EFF25FC4D2
:10046000511185451305000202C002C202C4052DC8
:10047000A1477C8037150140C1473EC48A858D471E
:10048000130505403EC2E12C310105B1EFF25FC119
:10049000AA840565130141FD2E8413050582854557
:1004A00002D002D202D402C402C62318010002CA3A
:1004B00002CC231E010002C002C2D52391472310A3
:1004C000F10291473ED4B71701400C101385074045
:1004D0007924B71701401385074091457D14012603
:1004E000E082373401404C08130504C0FD14E48455
:1004F000231D0100231B0100230E010065258544F7
:100500002C00130504C026C602C423180100EF0006
:100510000078930750020A857C80448126C2952981
:100520000546130504C09945CD25130504C0930560
:100530000005ED25130504C09145CD2D130504C01C
:1005400093050008FD2D8545130504C05D251301A5
:10055000C102A1BEEFF2DFB45111054535212922B8
:10056000EF00807DE53D2965A145130505C4393FB0
:10057000C939393B37260000130686888145014575
:10058000AD33B727000083A4478837140140A14545
:100590001305044099242945EF00407DA14513052A
:1005A0000440352CB707002003D5A703EF10C0196E
:1005B000A685EF007063EF10C013B72500002A86F0
:1005C000938545890A85EF00D05F0A8685450145F8
:1005D000293B13058025EF00007D45BFEFF25FAC9E
:1005E000371402401C403707FFF8414593E71700D6
:1005F0001CC05C40F98F5CC01C403707F7FE7D17BC
:10060000F98F1CC01C403707FCFF7D17F98F1CC0F9
:100610005C4041777D17F98F5CC0B7079F001CC411
:10062000E9261C4C93E707021CCCB717014003A72F
:100630000740938607401377F7F023A0E74003A70E
:1006400007401367070823A0E74089479CCAB727DC
:1006500002409843719B98C3984398C35C4093E7CA
:1006600007025CC06FF07FA4EFF29FA33717024030
:100670005C43370400209146B18B13040401638569
:10068000D700A1466382D704B7376E01938707600E
:100690001CC0B7160240DC420840918313F7F700F4
:1006A000B707002093870700BA978C23DC4293F5A5
:1006B000F50F93F707083357B50081E7EFF09FA1D7
:1006C0002A8718C06FF07F9E5C43B777DC02938760
:1006D00007C07DBF01A097010020938121161381DF
:1006E00081FC17150000130525349705002093851C
:1006F0006591170600201306669463FAC5008322ED
:10070000050023A0550011059105E3EAC5FE170574
:1007100000201305A5929385C1806377B50023203F
:1007200005001105E36DB5FEB72200009382028833
:10073000739002308D427390428097020000938242
:10074000628C93E2320073905230EFF03FE99702EF
:100750000000938262E0739012347300203094455D
:1007600093F7060193F2F60081C7DC41B3E2F20091
:1007700083D3050093F7F30FA5C30323050061118D
:1007800022C226C0814713048002930480040547D7
:100790003316F70033F7C3006312E6029395270080
:1007A0003D473317B7001347F7FF33736700B3951F
:1007B000B20033E36500639D860050C98507214779
:1007C000E397E7FC124423206500824421018280E4
:1007D000E39696FE10C9DDB782800CC982804CC9B1
:1007E0008280EFF2FF8B111146212A8428002EC04F
:1007F0003124C246C204C18093F404FCB7450F0003
:10080000938505243685C20436C2C180EFF09F8CE3
:10081000458D420541814AA01E209246C207C183F0
:10082000F99BC207C1831EA082479043E16793876B
:10083000076A9315160063E6C7043685EFF09F89B3
:10084000AA874205418191466373D500914713956C
:10085000070141814AAC1E20024793E717001EA002
:100860001E2056233227C207C183D18E93F757BF6C
:10087000D58F1EA016275E27D58F1EA471016FF09D
:10088000DF828247EA23B167FD176310F502B29554
:100890003685EFF03F84420541819317450199E386
:1008A00013651500A1675D8D75B7B387C5008E0709
:1008B000B385C7003685EFF0FF814205418191671E
:1008C0005D8DE1BF1E2189C593E717001EA18280BF
:1008D000C207C183F99BC207C183CDBF1E2189C551
:1008E00093E707101EA18280C207C18393F7F7EF39
:1008F000C207C183C5BF1E2189C593E707201EA17A
:100900008280C207C18393F7F7DFC207C183C5BFE7
:100910001E2189C593E707401EA18280C207C183BB
:1009200093F7F7BFC207C183C5BF0EA9828093F7B3
:10093000E50F19C293E71500C207C1831EA9828083
:100940005E290A2D42055D8D6D8D220521810D8D5B
:10095000133515008280611102C002C293D7C50110
:100960002AC23EC08247A205A18199CB9247D107F6
:100970003EC29247884321016D8D3335A0008280AD
:100980009247C181E107EDB7B707002023AEA70268
:100990008280B707002083A6C7038547182163908C
:1009A000F6021C31639CD7023C219A0793E707F8B3
:1009B000B7E600E093F7F70FBA962380F640854636
:1009C000935757003397E600544189CE9387070425
:1009D0008A07B7E600E0B69798C38280EDF33C2122
:1009E0009A07F9B793870706E5B7371702401C4304
:1009F0000E0593F777F05D8D08C38280EFF24FEA22
:100A0000371702405C4391462A84B18B6385D70037
:100A1000A1466380D708B7376E01938707601CC073
:100A2000B7160240DC42918313F7F700B7070020A6
:100A300093878702BA978C23DC42184093F5F50F11
:100A400093F707083355B70081E73A85EFF08FE851
:100A500048C008C448C4B7170240DC438D46AD8384
:100A6000FD8B13D737008A07F18BD98F13F6370127
:100A700013F7370063F4C600138747FFB70700205A
:100A800093874701BA978C23EFF0CFE408C86FF043
:100A9000CFE15C43B777DC02938707C049B799C5BC
:100AA000371702401C4F5D8D08CF8280B717024078
:100AB000984F1345F5FF798D88CF828099C53717F8
:100AC00002405C4F5D8D48CF8280B7170240D84FFF
:100AD0001345F5FF798DC8CF82801E319206C2077B
:100AE000C183F99BC207C1831EB11A2D1E31035366
:100AF000850142074183336366001377C7F0558E43
:100B0000518FB7360140C2074207231C6500938608
:100B100006C0C18341836306D500B7060040631950
:100B2000D500F59BCD8F93E717001AAD1EB18280DB
:100B3000D59BCDBF1E3122064206C207C183BD9B95
:100B4000C207C1831EB10353850185679387F7CF21
:100B50001A31B3F76700035385014182B20633634C
:100B60006600558ED18FB73601404207C207231C5D
:100B70006500938606C04183C1836306D500B7062E
:100B80000040631DD50092051377F7FDD98DC2058E
:100B9000C18193E505011EAD0EB182801377F7F593
:100BA000D98DC5BF1E2137370140130707C0C207C3
:100BB000C1836306E500370700406316E500BA21EC
:100BC00093F7F7F8D98FFA2193F7F7CFC207C183CC
:100BD000D98F1EA1DE215EB59E211EB5B73701401B
:100BE000938707C06314F5009C251EB985475EA94D
:100BF00082801E2189C593E717001EA18280C2074B
:100C0000C183F99BC207C183CDBF5E2501C6DD8DBF
:100C10004EA5828093C5F5FFFD8DDDBF1E25C20761
:100C2000C18393F7F7F8DD8D0EA582801E25C207DC
:100C3000C183E19BC207C1831EA51E25DD8D0EA5C4
:100C400082801E25C207C18393F7F7F7C207C183CD
:100C50001EA51E25DD8D0EA582804EB182801E2D23
:100C6000C207C183CD9BC207C1831EAD1E2DDD8D82
:100C70000EAD82801A2DFD779387F73FF98F1EAD59
:100C80001E2DA205DD8DC205C1810EAD8280EFF261
:100C90002FC12E84AE215220854693B715006111D5
:100CA000AA84860705476313D60009470A203AC27B
:100CB0003EC016241DE126850D356E20268545375C
:100CC0001247824716242685BE853A86A5356E20B2
:100CD00026854D3721016FF04FBD2685A13D6E2041
:100CE0002685493F1247824716242685BE853A86C7
:100CF000ED336E202685A537F1BF085D42054181A1
:100D000082801E294A25ED8F4205418189C76D8D5C
:100D10003335A00082800145828093C5F5FFC2056E
:100D2000C1810EA9828093F5F51F4EA182800A2110
:100D30006D8D3335A0008280EFF28FB6B7070020AB
:100D400003A50701B7157A0093850520EFF08FB84A
:100D50001375F50F2385A18093175500898F8A0796
:100D60003E950E052394A1806FF02FB4EFF24FB3A0
:100D700037F400E05C40AA85F99B5CC003C5A18004
:100D8000EFF04FB308C8232404001C4093E717007A
:100D90001CC0B7F700E0D843058B75DF9843799BFB
:100DA00098C36FF08FB0EFF2AFAF37F400E05C4064
:100DB000AA85F99B5CC003D58180EFF0AFAF08C86E
:100DC000232404001C4093E717001CC0B7F700E081
:100DD000D843058B75DF9843799B98C36FF0EFACD0
:100DE000EFF20FAC7111AE840144635DC402B747EA
:100DF0000140138707803A859305000432C0053F00
:100E0000B747014013870780024675D533878400B2
:100E100083050700138507800504C205C1812137BA
:100E20000246E1B7328511016FF02FA8411106C6C5
:100E30002EC00DCD1841AA8705C358417D5511CB51
:100E40008546631BD70098472300070023A20700AD
:100E50000545B240410182809847824614A39847D5
:100E6000050798C7D8437D17D8C3DDB705468A85DF
:100E7000853FF9BF011122CC2EC206CE26CA2A8494
:100E8000814793050002634506029245BE9583851E
:100E900005008DE563D8C70263D4E702198E1305F8
:100EA000000293F526002AC089C501E793050003D7
:100EB0002EC0858A814495EAB2840DA08507F1B7DA
:100EC0001D8EF1BF0146E1BF824522853AC832C678
:100ED0003EC4A93FA24732464247FD14E34690FE76
:100EE000B284635306008144058E63C7E702A68778
:100EF00092463387974036978305070095EDB28475
:100F000063449004635306000146F2406244D244B5
:100F10003305F600056182801D8FBA8793050003B3
:100F2000228532C83EC63AC41137B24722474246EC
:100F3000FD17EDF7BA9465BF228532C63EC4FD3574
:100F4000A247324685076DB78245228532C43EC22C
:100F5000F13DFD142246924765B7397106DE22DC69
:100F600026DA3EC232833A8689ED92469307000321
:100F700001476C08FC86FD3DF2506254D254216159
:100F80008280AA843684AE8791CA294701446317B8
:100F9000E30063D50500B307B04005448646A309C6
:100FA000010213073103938666FC36C49A853E8599
:100FB00032CA3AC81AC63EC0EFF08F94A54682479F
:100FC00032434247524663D4A600A24636951305E3
:100FD00005039306F7FFA30FA7FE9A853E8532CC43
:100FE0003ACA1AC83EC636C0EFF0CF8EB247424367
:100FF0005247624663F9670401CC29CA9247898B3C
:10100000B1C79305D002268532C40D3522467D1620
:101010009247918B95C306479307100632C49305F8
:1010200000032685631EF702113593058007268588
:10103000F53B2246090479161647924682452685D5
:10104000153D229515BFAA8702478DB782469307A3
:10105000D0020144A38FF6FE9307E7FF3EC04DBFC9
:10106000F13393058005E1B7014582800145828017
:10107000130181FD22D026CE06D22AC4AE8232844C
:1010800002C681448385020089EDA24781C781455C
:101090003E85693B925002542685F2441301810239
:1010A0008280930750026388F500224516C88504A4
:1010B000B53BC24239A88387120013871200639C94
:1010C000B7002245930550023AC88D334247850444
:1010D000BA82850245BFD5DB9306B0026389D70487
:1010E00063C8F600930630026386D704814705A0E3
:1010F0009306D002638AD70093060003E398D7FED5
:1011000013872200894721A0138722008547830681
:1011100007001306B0026383C6046341D6021306B8
:101120003002638BC602BA820145A54681A01387AF
:1011300022006DBF138722009147D1BF1306D00252
:101140006389C60013060003E39FC6FC93E72700EC
:1011500031A005078547C1BF93E747000507E1B701
:1011600013162500329506053A958502038602007E
:10117000130706FD9375F70FE3F4B6FE1307E002BD
:101180009946631EE60085028146A5450386020056
:10119000130606FD1377F60F63F5E50236C60387DF
:1011A00002001306A006630DC70A6343E602130696
:1011B000C0046307C70A13068006630CC70881458D
:1011C0002DA813972600BA968606B29685027DBF93
:1011D000130640076306C7081306A0076302C70883
:1011E0001306C0068145631AC700038612008D45A9
:1011F0006314E6008502914585020386020093038D
:1012000000061307100663C4C300130710049303FA
:10121000700663C4C30693035006635376189303A2
:10122000700463C1C30493055004635BB6161307CF
:101230003004E310E6EA18409303440016CA230C76
:10124000E1001EC8A30C01000147BE862A862C08B7
:1012500049A8038612008145E311E6FA890271BFAD
:101260008502B1BF93063006E307D6FC63CEC606FF
:10127000930680056303D602A9BD93063007630475
:10128000D60463CBC6029306F0066302D60E93061D
:10129000000793E74700E31ED6E29146639FD50A15
:1012A000930384000C40504016CA3AC23EC01EC888
:1012B000AA870147C146B9A0930650076308D6061E
:1012C0009306800745BF1840B726000093034400EB
:1012D0009385C68911C3BA85324716CA1EC8BE8611
:1012E0002A862245413E0DA091466394D502930380
:1012F00084000C40504016CA3AC23EC01EC8AA879D
:101300000547A94622458D33C243AA941E84D24282
:10131000C9B3B2460C4016C836C23AC011042A8777
:101320008546294622451539AA9461B39146639DA5
:10133000D500930384000C40504016CA3AC23EC008
:101340001EC8AA87014775BFB2460C4016C836C2F0
:101350003AC011042A878146E9B7B24616C80C4044
:10136000414636C23AC011042A87814665BF91467C
:10137000639ED500930384000C40504016CA3AC2C5
:101380003EC01EC8AA870147A146ADBFB2460C4069
:1013900016C836C23AC011042A878146214659B779
:1013A0000C401306840040403AC22A87224532C8C6
:1013B0003EC02286B687A94616CA4D39AA94424431
:1013C000B9B7130141FD32CE3ED42AC67008FD578D
:1013D000480006CC36D03AD202C23EC432C04939A7
:1013E000E2401301C10282801301C1FD93567501D1
:1013F00026CC131695009354F50106D022CE93F611
:10140000F60F2582A682638B06109307F00F638C7C
:10141000F6100E06B70700045D8E938616F8014499
:10142000814393D775011393950093F7F70F1353E7
:101430009300FD81E5C31307F00F6386E7029387EE
:1014400017F80E03370700049D8E3363E3008147CE
:101450005D8C17050000130525450A042A940040F9
:10146000AD8C22950285938616F06314030C894790
:101470005D8C17050000130525470A042A940323F1
:101480000400AD8C1A95028581449305F00FB707CF
:1014900040001395970082507244939775012581FF
:1014A000FE045D8D458DE244130141028280930567
:1014B000F00F8147F9BF1A86AE82BE8389476384E5
:1014C000F3228D47E382F3FC85476384F30C938515
:1014D000F60793F412006356B0189377760099C715
:1014E0009377F60011456383A70011069317460012
:1014F00063D80700B70700F8FD177D8E93850608AF
:101500009307E00FE3C5B7FA93176600A58393F539
:10151000F50F41B763180304854799BF15E21144DD
:1015200081468543FDBD01EA21449306F00F8943BE
:10153000CDBD8D4731BF31449306F00F8D43D5B5F6
:1015400032852EC432C026C2F92402469307B5FF65
:101550009306A0F83316F600898E01448143924227
:10156000A245C1B51A8536CA16C832C61EC42EC2D7
:101570001AC05524D24602439307B5FFAA963313E7
:10158000F3009386660781479245A2433246C242E2
:10159000C1B593F4120081458147E5BDC1671317BA
:1015A0005300FD17F98F3ACA3EC213540701637DF9
:1015B000660E3285A28536C632C4EFE0BFB19245D1
:1015C0002AC0EFE03FAF2246B246AA873283FD161B
:1015D0000146A2851A8536C83EC632C4EFE05FB226
:1015E0002246B2474205518DC246637FF5005247FD
:1015F00082453A951386F5FF6362E50E6370F50E3A
:101600001386E5FF32C03A95B307F5403E85A285C3
:1016100036C83EC6EFE01FAC92452AC4EFE09FA952
:10162000B2472AC2A2853E85EFE09FAD1246420531
:101630002243C246637CC50052479307F3FF3A95A5
:10164000636CE508637AC50879133A9582473306D7
:10165000C5403336C000C207B3E767005D8EA6827F
:10166000BDB505433303B34091C56D458145814701
:10167000E34165E29386E609B316D600B3576600E8
:101680003336D000D18F93F6770099C693F6F700E2
:1016900011466383C60091071397570063420704FE
:1016A0009A07A5838145F5B3135316001A85A285C1
:1016B00036C832C61AC4EFE0FFA192452AC0EFE057
:1016C0007F9F3246AA87C2467E064182224311B7D7
:1016D000AE82BE830146DDB33E838DBF32C02DB7DF
:1016E000854581477DB393F412009305F00F814740
:1016F0004DB313577501370680009307F6FF137734
:10170000F70F9305E007B3F6A7009357F5010145DE
:1017100063F4E50099C3828082809307E0097D55D8
:10172000E3EBE7FE93055009B3E7C60063D7E50096
:101730001307A7F63395E700828013056009330786
:10174000E54033D5E7008280511106C422C215CD91
:101750002A84D1209307E0093387A74093076009C3
:1017600063C0E704A1469377F70F63D5A600611520
:101770003314A40026042580260413559400A240A7
:101780001244DE075D8D3101828001442604135529
:101790009400A24012448147DE075D8D31018280B2
:1017A0009307900963DDE7009306B5019547B316EB
:1017B000D400898FB336D0003354F400558C95474C
:1017C00063D6A7009307B5FF3314F400B70600FCF7
:1017D000FD16937774003376D40085C39377F400B5
:1017E0009145638CB70011069317560063D7070025
:1017F0009307F009758E3387A74013146600258080
:10180000260413559400A24012449377F70FDE0785
:101810005D8D31018280C167637CF5029307F00F13
:101820001307000263EBA700970700009387C70F19
:10183000AA9788233305A74082802181970700005B
:101840009387870EAA97882361473305A740828034
:10185000B7070001636DF50061819707000093876A
:10186000A70CAA97882321473305A740828041818E
:10187000970700009387470BAA97882341473305B2
:10188000A74082800000684252616E67652F636DD9
:101890003A0000002534642000000000286E756CBA
:1018A0006C290000F8FCFFFF0AFCFFFFF2FCFFFFC1
:1018B00012FCFFFFF2FCFFFFE4FBFFFFF2FCFFFF67
:1018C00012FCFFFF0AFCFFFF0AFCFFFFE4FBFFFF27
:1018D00012FCFFFF18FCFFFF18FCFFFF18FCFFFFC6
:1018E000E4FBFFFFCAFBFFFFCAFBFFFFB2FCFFFFE9
:1018F000ECFDFFFFB2FCFFFFA4FBFFFFB2FCFFFF0C
:10190000ECFDFFFFCAFBFFFFCAFBFFFFA4FBFFFFCD
:10191000ECFDFFFFD8FBFFFFD8FBFFFFD8FBFFFF6D
:10192000A4FBFFFF000102020303030304040404F9
:10193000040404040505050505050505050505055B
:10194000050505050606060606060606060606063B
:101950000606060606060606060606060606060627
:10196000060606060707070707070707070707070B
:1019700007070707070707070707070707070707F7
:1019800007070707070707070707070707070707E7
:1019900007070707070707070707070707070707D7
:1019A00007070707080808080808080808080808BB
:1019B00008080808080808080808080808080808A7
:1019C0000808080808080808080808080808080897
:1019D0000808080808080808080808080808080887
:1019E0000808080808080808080808080808080877
:1019F0000808080808080808080808080808080867
:101A00000808080808080808080808080808080856
:101A10000808080808080808080808080808080846
:041A200008080808A2
:101A2400010203040506070801020304050607086A
:101A340000127A000204060804080C10081018208A
:101A4400102030402040608001020304050607088E
:081A5400010203040506070866
:00000001FF
