:100000006F004043000000004A0100004E01000064
:1000100000000000000000000000000000000000E0
:1000200000000000000000000000000000000000D0
:1000300002040000000000000404000000000000B2
:1000400006040000080400000A0400000C0400007C
:100050000E0400001004000012040000140400004C
:1000600016040000180400001A0400001C0400001C
:100070001E040000200400002204000024040000EC
:1000800026040000280400002A0400002C040000BC
:100090002E040000300400003204000000000000C4
:1000A000511126C022C206C4828282441244A24058
:1000B000310182802A86014593F6150091C232955E
:1000C00085810606F5F9828000000000634E050276
:1000D00063C305042E86AA857D5515C285466378BF
:1000E000B6006356C00006068606E36CB6FE014500
:1000F00063E4C500918D558D85820582F5FA828075
:100100008682C93F2E8582823305A04063D70500D1
:10011000B305B040C1B7B305B0408682653F330533
:10012000A0408282868263C70500634905005D376F
:100130002E858282B305B040E35B05FE3305A04007
:10014000513F3305B040828200007300203001A08F
:10015000EFF21FF551118545414502C002C202C4AC
:10016000C9218545130500026D29371501409926DF
:100170003714014013050440352E85477C808A855D
:1001800093078004371501403EC4852EC1477C800B
:10019000C1473EC48A858547130504403EC2B12E3F
:1001A000310121B7EFF2DFEF1565130555551D2914
:1001B00015452D290565130505772D298121B121C7
:1001C000EDB5EFF2FFED094581291944E9224937E0
:1001D0007921B71401400146C14513850440F52E2D
:1001E000514555290546C14513850440FD267D141A
:1001F000130580071374F40F792961FC1305803E01
:10020000592993840440793F2286C1452685F126E9
:10021000F5261305001941211344F4FF85453715D0
:1002200001401374F40F6D2665F1C92EB717014014
:10023000A944138707403A852286C145792E1305C4
:1002400040069129FD141344F4FFB717014093F4BD
:10025000F40F1374F40F13870740F1FC3A8501463D
:10026000C145A52E1305007D3D2101A0B717024011
:100270009843B706FFFC61111367170098C3D84372
:10028000758FD8C39843B706F7FEFD16758F98C3D0
:100290009843B706FCFFFD16758F98C3D843C17607
:1002A000FD16758FD8C337079F0098C7984F1367FF
:1002B000070298CF371701408326074013060740EF
:1002C00093F6F6F02320D7408326074093E60608EE
:1002D0002320D740094718CA02C002C2984FB70668
:1002E000014021661367170098CFD842518FD8C2BA
:1002F0009843C16637060200558F98C3B71602406F
:1003000009679C42F18F3EC2824785073EC09247F3
:1003100081E78247E397E7FEB71702409C431397B4
:10032000E7006358070685473EC2124785476310BA
:10033000F706B72702409843C176FD16719B98C314
:1003400098431367170098C3B7170240D843D8C320
:10035000D843758FD8C3D843C166558FD8C3984347
:10036000B7060001558F98C3984393166700E3DDE5
:1003700006FED843B7160240719BD8C3D843136713
:100380002700D8C32147DC42B18BE39EE7FE210161
:10039000828002C259BFEFF2BFD0371702405C43E0
:1003A000370400209146B18B130404016385D70004
:1003B000A1466380D704B7376E01938707601CC0DE
:1003C000B7160240DC420840918313F7F700B707E5
:1003D000002093870700BA978C23DC4293F5F50F32
:1003E00093F707083357B50099E3ED312A8718C012
:1003F0006DB95C43B777DC02938707C0C9B701A02A
:1004000001A001A001A001A001A001A001A001A0E4
:1004100001A001A001A001A001A001A001A001A0D4
:1004200001A001A001A001A001A001A001A001A0C4
:1004300001A001A0970100209381413E138181FE1C
:100440001305006D970500209385C5BB1706002096
:100450001306C6BC63FAC5008322050023A055001D
:1004600011059105E3EAC5FE17050020130505BB3C
:10047000938581806377B500232005001105E36D26
:10048000B5FE93020008739002308D427390428053
:1004900097020000938202B793E2320073905230C9
:1004A000EFF0DFDC970200009382E2D17390123408
:1004B00073002030EFF2DFBEB717014013870780CB
:1004C0006319E50085451145A52A814511458D2A09
:1004D000E9BE6318F500854541459D2281454145AA
:1004E000FDB793870740E315F5FE85451305000228
:1004F000812A814513050002D9BF9C45611122C2A2
:1005000026C013F7070113F3F70001C7D84133637F
:10051000E30092211377F60F29C7832305000147D3
:1005200013048002930480048546B395E600B376F5
:10053000B6006392D50293122700BD46B3965600CB
:1005400093C6F6FFB3F37600B3125300B3E3720021
:10055000639787064CC90507A146E317D7FC2320FC
:1005600075001307F00F6378C70483234500A14685
:1005700013048002930480040547B312D700337735
:1005800056006394E202139726000117BD45B39508
:10059000E50093C5F5FFB3F375003317E300B363CC
:1005A000770063928702232A550085064147E39529
:1005B000E6FC232275001244824421018280E39CE0
:1005C00097F80CC949BFE39297FE23285500F1BF65
:1005D00008456D8D3335A000828019C20CC9828018
:1005E0004CC98280B737004088C38280B73700404B
:1005F000C8C38280B737004088C78280AD6737376D
:1006000000409387A7AA1CC38280B5673737004094
:100610009387C7CC1CC38280B707002023ACA700F8
:10062000828099C5371702401C4F5D8D08CF8280AC
:10063000B7170240984F1345F5FF798D88CF828018
:1006400099C5371702405C475D8D48C78280B71750
:100650000240D8471345F5FF798DC8C78280EFF275
:100660003FA4B707002003A50701B7157A009385BB
:1006700005208D341375F50FB7070020238FA700D1
:1006800093175500898F8A073E950E05B7070020FE
:10069000239EA70019BCEFF2BFA037F400E05C4036
:1006A000AA85F99B5CC0B707002003D5C7011934A0
:1006B00008C8232404001C4093E717001CC0B7F7A8
:1006C00000E0D843058B75DF9843799B98C3F1BA56
:1006D00001020304050607080102030405060708D2
:0806E000006CDC0200000000C8
:00000001FF
