:100000006F004048000000004A0100004E0100005F
:1000100000000000000000000000000000000000E0
:1000200000000000000000000000000000000000D0
:100030005204000000000000540400000000000012
:1000400056040000580400005A0400005C0400003C
:100050005E0400006004000062040000640400000C
:1000600066040000680400006A0400006C040000DC
:100070006E040000700400007204000074040000AC
:1000800076040000780400007A0400007C0400007C
:100090007E040000800400008204000000000000D4
:1000A000511126C022C206C4828282441244A24058
:1000B000310182802A86014593F6150091C232955E
:1000C00085810606F5F9828000000000634E050276
:1000D00063C305042E86AA857D5515C285466378BF
:1000E000B6006356C00006068606E36CB6FE014500
:1000F00063E4C500918D558D85820582F5FA828075
:100100008682C93F2E8582823305A04063D70500D1
:10011000B305B040C1B7B305B0408682653F330533
:10012000A0408282868263C70500634905005D376F
:100130002E858282B305B040E35B05FE3305A04007
:10014000513F3305B040828200007300203001A08F
:10015000EFF21FF551118545414502C002C202C4AC
:100160007123854513050002512337150140692E7F
:100170003714014013050440412E85477C808A8551
:1001800093078004371501403EC4D126B1477C80D7
:10019000C1473EC48A858547130504403EC2452EAB
:1001A000310121B7EFF2DFEF0565611185451305D8
:1001B0000580A12B1305F007E92B13050018612317
:1001C0001305F005592B1305F007D92BCD23C14793
:1001D00002C00A855C8085473EC2A52155232101C6
:1001E000E9B5EFF2FFEB71110945B9219944E52A10
:1001F0008537D92337140140014691451305044042
:100200003D210546A1451305044015215145DD2337
:10021000054691451305044019290146A1451305DA
:1002200004403121FD141305800793F4F40FD92302
:10023000F1F01305803E7D2BB537B737004093872B
:1002400007C0DC431304044093F7F7073EC026863B
:1002500091452285E92EB737004083A707C00247A2
:1002600093C4F4FF93F7F70793F4F40F63F5E700F3
:100270001305F007392B13058002AD2B8545371583
:1002800001404D2669F50546A14522854D260945C3
:1002900095230146A1452285592E1945A12B0546D6
:1002A000A145228569260945B1230146A14522853C
:1002B000BD2E194581230145E92951BFB7170240D9
:1002C0009843B706FFFC61111367170098C3D84322
:1002D000758FD8C39843B706F7FEFD16758F98C380
:1002E0009843B706FCFFFD16758F98C3D843C176B7
:1002F000FD16758FD8C337079F0098C7984F1367AF
:10030000070298CF3717014083260740130607409E
:1003100093F6F6F02320D7408326074093E606089D
:100320002320D740094718CA02C002C2984FB70617
:10033000014021661367170098CFD842518FD8C269
:100340009843C16637060200558F98C3B71602401E
:1003500009679C42F18F3EC2824785073EC09247A3
:1003600081E78247E397E7FEB71702409C43139764
:10037000E7006358070685473EC21247854763106A
:10038000F706B72702409843C176FD16719B98C3C4
:1003900098431367170098C3B7170240D843D8C3D0
:1003A000D843758FD8C3D843C166558FD8C39843F7
:1003B000B7060001558F98C3984393166700E3DD95
:1003C00006FED843B7160240719BD8C3D8431367C3
:1003D0002700D8C32147DC42B18BE39EE7FE210111
:1003E000828002C259BFEFF2BFCB371702405C4395
:1003F000370400209146B18B130404016385D700B4
:10040000A1466380D704B7376E01938707601CC08D
:10041000B7160240DC420840918313F7F700B70794
:10042000002093870700BA978C23DC4293F5F50FE1
:1004300093F707083357B50099E369392A8718C03D
:10044000ADB15C43B777DC02938707C0C9B701A0A1
:1004500001A001A001A001A001A001A001A001A094
:1004600001A001A001A001A001A001A001A001A084
:1004700001A001A001A001A001A001A001A001A074
:1004800001A001A09701002093814139138181FED1
:10049000170500001305453A97050020938585B69A
:1004A00017060020130686B763FAC50083220500ED
:1004B00023A0550011059105E3EAC5FE17050020AC
:1004C0001305C5B5938581806377B50023200500AA
:1004D0001105E36DB5FE93020008739002308D4262
:1004E00073904280970200009382C2B193E232007F
:1004F00073905230EFF09FDC970200009382A2CEFF
:100500007390123473002030EFF29FB9B717014097
:10051000138707806319E50085451145312481451E
:100520001145192459B66318F50085454145ED2A52
:1005300081454145FDB793870740E315F5FE8545A5
:1005400013050002D522814513050002D9BF9C4541
:10055000611122C226C013F7070113F3F70001C788
:10056000D8413363E30092211377F60F29C7832321
:100570000500014713048002930480048546B39567
:10058000E600B376B6006392D50293122700BD460B
:10059000B396560093C6F6FFB3F37600B31253003A
:1005A000B3E37200639787064CC90507A146E317BA
:1005B000D7FC232075001307F00F6378C70483234B
:1005C0004500A14613048002930480040547B3123A
:1005D000D700337756006394E20213972600011781
:1005E000BD45B395E50093C5F5FFB3F3750033172B
:1005F000E300B363770063928702232A55008506E0
:100600004147E395E6FC2322750012448244210110
:100610008280E39C97F80CC949BFE39297FE232898
:100620005500F1BF08456D8D3335A000828019C299
:100630000CC982804CC98280B707002023ACA70078
:100640008280B7070020938787019443182181E6B1
:100650003C21920721A894430546639FC6023C2192
:10066000103192076314D60093E707F8B7E600E06D
:1006700093F7F70FBA962380F640854693575700B5
:100680003397E6005441A5C2938707048A07B7E66B
:1006900000E0B69798C382808C4389466391D50267
:1006A00014313C216365D6008A06B6975DB7938600
:1006B000E6038A06B69793F7F70F920775B790434C
:1006C0008D46631CD60014313C216364D600860637
:1006D000E9BF9386C6078606F1BF94439147E39E20
:1006E000F6F81C31BDB7938707064DB799C5371784
:1006F00002401C4F5D8D08CF8280B7170240984F93
:100700001345F5FF798D88CF828099C53717024050
:100710005C4F5D8D48CF8280B7170240D84F13459C
:10072000F5FF798DC8CF828099C5371702405C47A5
:100730005D8D48C78280B7170240D8471345F5FF43
:10074000798DC8C7828037370040832747C093F729
:10075000F7E75D8D2322A7C08280711102C0B737F1
:10076000004003A747C01375F507137707F83AC091
:100770000247598D2AC0024723A2E7C01101828097
:10078000B737004003A747C01367072023A2E7C07D
:1007900082801375F507B737004023A0A7C0828079
:1007A00013650508B737004023A0A7C08280B7377C
:1007B000004023A407C08280EFF29F8EB70700207D
:1007C00003A50701B7157A0093850520EFF09F90E8
:1007D0001375F50FB7070020238FA7009317550057
:1007E000898F8A073E950E05B7070020239EA70034
:1007F0006FF0BF8BEFF2DF8A37F400E05C40AA8530
:10080000F99B5CC0B707002003D5C701EFF09F8AB2
:1008100008C8232404001C4093E717001CC0B7F746
:1008200000E0D843058B75DF9843799B98C36FF040
:04083000DF8700005E
:10083400010203040506070801020304050607086C
:08084400006CDC020000000062
:00000001FF
