:100000006F00302800000000DA070000DC07000065
:1000100000000000000000000000000000000000E0
:1000200000000000000000000000000000000000D0
:10003000800A000000000000800A000000000000AC
:10004000800A0000800A0000800A0000800A000088
:10005000800A0000800A0000800A0000800A000078
:10006000800A0000800A0000800A0000800A000068
:10007000800A0000800A0000800A0000800A000058
:10008000800A0000800A0000800A0000800A000048
:10009000800A0000800A0000800A000000000000C2
:1000A000511126C022C206C4828282441244A24058
:1000B000310182802A86014593F6150091C232955E
:1000C00085810606F5F9828000000000634E050276
:1000D00063C305042E86AA857D5515C285466378BF
:1000E000B6006356C00006068606E36CB6FE014500
:1000F00063E4C500918D558D85820582F5FA828075
:100100008682C93F2E8582823305A04063D70500D1
:10011000B305B040C1B7B305B0408682653F330533
:10012000A0408282868263C70500634905005D376F
:100130002E858282B305B040E35B05FE3305A04007
:10014000513F3305B040828200003D432A876373EC
:10015000C3029377F700BDEFADE5937606FF3D8AC6
:10016000BA960CC34CC30CC74CC74107E36BD7FE10
:1001700011E28280B306C3408A0697020000969679
:100180006780A6002307B700A306B7002306B700C1
:10019000A305B7002305B700A304B7002304B700E5
:1001A000A303B7002303B700A302B7002302B700DD
:1001B000A301B7002301B700A300B7002300B700D5
:1001C000828093F5F50F93968500D58D9396050162
:1001D000D58D61B793962700970200009696868288
:1001E000E78086FA9680C1171D8F3E96E374C3F8A8
:1001F000A5B7EFF2FFEA01112AC08545454502C2C5
:1002000002C402C602C802CA02CC02CEEF00504F9E
:10021000854537052000EF0090501147F1440D440B
:100220004C0037150140788226C622C4EF00301DED
:1002300009474C0037150140788226C622C4EF00DA
:10024000101C8247375400400C083EC8B707FFBF58
:100250003ECAB70700043ECC130504409167FC86F4
:10026000EF003022130504408545EF00B02F85458F
:1002700013050440EF00D033056105BDEFF25FE2E6
:10028000370400201304940308201365450008A0D8
:100290009D220545EF00305E08201375950F08A0DC
:1002A000992A0545EF00305D09B5EFF27FDF37048D
:1002B000002013049403AA84082093F704FF9204F7
:1002C0003D895D8D08A0052A553F08203D89458D53
:1002D0001375F50F08A005225537C1BBEFF25FDC9F
:1002E000B707002003C797032A84938797039DC508
:1002F00085466388D5023707002083468703982305
:1003000085C60546136787006381C6028823E520FA
:100310002285613F0545EF00105641BB519B98A3D4
:10032000D9BF13671700E5BF5D9B98A3C5B7EFF270
:100330003FD70547B7070020370400206165238CAD
:10034000E7021304940391471305056A1CA0553571
:10035000082055202945EF00105281451305300330
:10036000B53F814513052003953F81451305800264
:10037000B537814531459D378145054585378145EF
:100380001945A93F1DB3EFF2BFD185451375F50F90
:10039000B13721BBEFF2DFD081450545813781457B
:1003A00009452D3F19B3EFF2BFCF89476381F502AD
:1003B0008D476380F50285476390F50213050504B8
:1003C000136505F881451375F50F093FF9B9510516
:1003D000C5BF13054505EDB7814513650508F5B79C
:1003E000EFF21FCC3284C1370305040011E175B967
:1003F0000504513FD5BFEFF2BFCA37540040AA846D
:10040000130704403A85B7050200EF00D01E3757A6
:100410000040854713070740E306F5FE1305044037
:10042000854537040300EF0070150504B7570040F9
:1004300013850740A285EF00B01AB75700407DD55D
:1004400001469305E0041385074037040700EF00D9
:10045000101813042408B757004013850740A285DD
:10046000EF001018B75700407DD5A68513850740CB
:1004700037040700EF00701513044408B754004018
:10048000A28513850440EF00B0156DD9854513850D
:100490000440EF00501011B9EFF29FC01165111127
:1004A00085451305150202C002C202C402C602C875
:1004B00002CA02CCEF00D024930700027C803714DC
:1004C00001408D473EC28A85E147130504403EC482
:1004D000EF00E072930700047C808A859147130542
:1004E00004403EC4EF00A071896737440140938700
:1004F00007583EC66C00B7070C00130504803ECABF
:1005000002C8231C0100EF007023854513050480F9
:10051000EF00902F710151BEEFF29FB8130141FD22
:100520001306C00281450A850D3185450545EF005A
:10053000501B3704024013058405C12BB747014007
:10054000938747803EC0B70700209387C7033EC20A
:1005500093070002130700083EC63ED08A858D67C8
:10056000130584053ACA3ED202C402C802CC02CEA8
:1005700002D42D25854513058405A92D1301C1023B
:100580002DB6EFF2FFB1611123110100488113056F
:10059000F50895674C82AA95938727D44C83B74476
:1005A0000140A1817C80CC820144938404803C0082
:1005B000A29783C587FF2685EF0090279305000843
:1005C0002685EF0070277DD905049D47E311F4FED1
:1005D0002945EF00502A2101C9BCEFF27FAC8545C7
:1005E0001305100E793FD1B4EFF29FABB70700208F
:1005F000238E07029387C703A38007002381070088
:10060000A3810700513D093F2945EF00D026F1376E
:1006100013054006EF003026374501400546930597
:10062000000413050580EF00901F13054006EF003E
:100630009024A5BCEFF2DFA63705020075230D4418
:1006400035CD37450140014693050004130505806B
:10065000EF00F01C37050200792BB707002083C696
:10066000C703130720040944639AE6041387C703EA
:1006700014331307D0049387C7036391E604A023C0
:1006800029E8B4337147639BE60281460147794606
:10069000B385D70080218506229742074183E399DD
:1006A000C6FEF02F9356870005446319D600E03F3D
:1006B0001377F70F3307E4403334E0003745014048
:1006C00005469305000413050580EF0050152285AB
:1006D000E9BA0144E5B7EFF2BF9C51112A842EC458
:1006E00032C236C0813F39EDB707002009479387F2
:1006F000C70382461246A2456309E4040D47630E10
:10070000E40605476313E40AB83703C3A7002207CA
:10071000336767001313870021833367E3009AA1CF
:10072000D837CC2722074D8F9315870021834D8F13
:100730001AA2F827FC37A207D98F13978700A18345
:10074000D98F9EA231016FF05F96983B03C30701DA
:100750002207336767001313870021833367E300A1
:100760009AA1B83BAC2B22074D8F931587002183AC
:100770004D8F1AA2D82BDC3B7DBFF83B03C367012A
:100780002207336767001313870021833367E30071
:100790009AA1983F8C2F22074D8F931587002183B4
:1007A0004D8F1AA2B82FBC3F79B7D83303C3470087
:1007B0002207336767001313870021833367E30041
:1007C0009AA1F833EC2322074D8F931587002183DC
:1007D0004D8F1AA298279C37B9BF01A001A0EFF254
:1007E0003F8C511185451305000202C002C202C4AC
:1007F000012FC1477C8037150140C1473EC48A851F
:100800008D47130505403EC2DD2E31016FF0FF8993
:10081000EFF21F8931110545231101002312010058
:10082000231301001125FD22EF00B0014D3F6D3B68
:10083000FD3C8D36371600001306866B8145014559
:100840004536371600001306066D85450145493EBD
:10085000371600001306066E8945014551363716D6
:1008600000001306066F8D4501459D3E37140000BC
:10087000B714014013850440C1451121930661005E
:100880005000930521000145B9351305800CEF0098
:10089000807E3081930504702800EF00905F300067
:1008A00085453945353E3082930504702800EF00B8
:1008B000505E3000894539452536308393050470F4
:1008C0002800EF00105D30008D453945113E13853D
:1008D0000440C1455D2613050019EF00C07949BFEA
:1008E000EFF20FFC371402401C403707FFF861118C
:1008F00093E717001CC05C404145F98F5CC01C4069
:100900003707F7FE7D17F98F1CC01C403707FCFF27
:100910007D17F98F1CC05C4041777D17F98F5CC053
:10092000B7079F001CC421231C4C3706020093E725
:1009300007021CCCB717014003A707409386074066
:100940001377F7F023A0E74003A7074013670708D2
:1009500023A0E74089479CCA02C002C21C4C37074B
:100960000140A16693E717001CCC5C43D58F5CC3A4
:100970001C404167B7160240D98F1CC009679C42D2
:10098000F18F3EC2824785073EC0924781E782478A
:10099000E397E7FEB71702409C431397E7006359BC
:1009A000070685473EC2124785476310F706B727FB
:1009B00002409843C176FD16719B98C39843136714
:1009C000170098C3B7170240D843D8C3D843758FD0
:1009D000D8C3D843C166558FD8C39843B706000122
:1009E000558F98C3984393166700E3DD06FED843FE
:1009F000B7160240719BD8C3D84313672700D8C3EA
:100A00002147DC42B18BE39EE7FE21016FF0EFE965
:100A100002C251BFEFF2CFE8371702405C43370400
:100A200000209146B18B130404016385D700A146D1
:100A30006382D704B7376E01938707601CC0B7166F
:100A40000240DC420840918313F7F700B70700200B
:100A500093870700BA978C23DC4293F5F50F93F741
:100A600007083357B50081E7EFF0CFE62A8718C0B3
:100A70006FF0AFE35C43B777DC02938707C07DBFBD
:100A800001A097010020938161DB138181FC171580
:100A90000000130525C897F5FF1F9385A55617F687
:100AA000FF1F1306A65963FAC5008322050023A081
:100AB000550011059105E3EAC5FE17F5FF1F130563
:100AC000E5579385C1826377B500232005001105A2
:100AD000E36DB5FEB7220000938202887390023066
:100AE0008D427390428097F2FFFF9382A25193E26E
:100AF000320073905230EFF0BFDE97020000938215
:100B000062D173901234730020301C414167791711
:100B1000F98F1CC123200500232205002324050092
:100B2000B707024023260500138787006317E500F7
:100B3000D8431367F700D8C382801387C7016316B1
:100B4000E500D8431367070FFDB713870703631842
:100B5000E500D8438566938606F0558FE9BF138775
:100B600047046315E500D843BD66C5BF13878705F5
:100B70006316E500D843B7060F00C5B71387C7064D
:100B80006316E500D843B706F000C1BF1387070816
:100B9000E314E5FAD843B706000FC1B71841E1776F
:100BA000BD0794517D8F9C45D58F9449D58FD449ED
:100BB000D58F944DD58FD44DD58FD451D58F945595
:100BC000D58FD98F1CC1DC455CC19C411CC5DC4163
:100BD0005CC582801C4189C593E717001CC18280D7
:100BE00041677917F98FDDBFB70702409C437D8DC0
:100BF0003335A0008280B7070240C8C38280944585
:100C000093F7060193F2F60081C7DC41B3E2F200EC
:100C100083D3050093F7F30FA5C3032305006111E8
:100C200022C226C081471304800293048004054732
:100C30003316F70033F7C3006312E60293952700DB
:100C40003D473317B7001347F7FF33736700B3957A
:100C5000B20033E36500639D860050C985072147D4
:100C6000E397E7FC1244232065008244210182803F
:100C7000E39696FE10C9DDB782800CC982804CC90C
:100C80008280EFF2EFC1111146212A8428002EC084
:100C9000452AC246C204C18093F404FCB7450F0044
:100CA000938505243685C20436C2C180EFF08FC219
:100CB000458D420541814AA01E209246C207C1834C
:100CC000F99BC207C1831EA082479043E1679387C7
:100CD000076A9315160063E6C7043685EFF08FBFE9
:100CE000AA874205418191466373D50091471395C8
:100CF000070141814AAC1E20024793E717001EA05E
:100D00001E2056233227C207C183D18E93F757BFC7
:100D1000D58F1EA016275E27D58F1EA471016FF0F8
:100D2000CFB88247EA23B167FD176310F502B29589
:100D30003685EFF02FBA420541819317450199E3BB
:100D400013651500A1675D8D75B7B387C5008E0764
:100D5000B385C7003685EFF0EFB742054181916753
:100D60005D8DE1BF1E2189C593E717001EA182801A
:100D7000C207C183F99BC207C183CDBF1E2189C5AC
:100D800093E707101EA18280C207C18393F7F7EF94
:100D9000C207C183C5BF1E2189C593E707201EA1D5
:100DA0008280C207C18393F7F7DFC207C183C5BF43
:100DB0001E2189C593E707401EA18280C207C18317
:100DC00093F7F7BFC207C183C5BF0EA9828093F70F
:100DD000E50F19C293E71500C207C1831EA98280DF
:100DE0005E290A2D42055D8D6D8D220521810D8DB7
:100DF000133515008280611102C002C293D7C5016C
:100E00002AC23EC08247A205A18199CB9247D10751
:100E10003EC29247884321016D8D3335A000828008
:100E20009247C181E107EDB723A2A18282803717E3
:100E300002401C430E0593F777F05D8D08C3828056
:100E4000EFF20FA6371702405C4391462A84B18B1C
:100E50006385D700A1466380D708B7376E019387B3
:100E600007601CC0B7160240DC42918313F7F700FD
:100E7000B707002093878702BA978C23DC4218407B
:100E800093F5F50F93F707083355B70081E73A85D7
:100E9000EFF04FA448C008C448C4B7170240DC4371
:100EA0008D46AD83FD8B13D737008A07F18BD98F21
:100EB00013F6370113F7370063F4C600138747FFB3
:100EC000B707002093874701BA978C23EFF08FA0D4
:100ED00008C86FF08F9D5C43B777DC02938707C02B
:100EE00049B799C5371702405C4B5D8D48CB82806E
:100EF000B7170240D84B1345F5FF798DC8CB8280D8
:100F000099C5371702401C4F5D8D08CF8280B717F7
:100F10000240984F1345F5FF798D88CF828099C59F
:100F2000371702405C4F5D8D48CF8280B717024073
:100F3000D84F1345F5FF798DC8CF8280EFF24F96D9
:100F40001629F577FD17F58FF621DA252111D58FB2
:100F50001EA95625FD779387379FF58FD6212A84C2
:100F60002EC0D58F9625D58FB625D58F5EA55E2947
:100F7000C207C18393F7F7CF5D8F5AA94800C935DF
:100F8000B74701409387078082456312F406C24742
:100F90005A24139517003E9542070E0541873E954A
:100FA0008C41635807048605EFF0CF929305400605
:100FB0002AC0EFF02F928247931445009305400614
:100FC0003E85EFF0EF935E24C207C18763D5070229
:100FD0000E059305400613052503EFF0AF8F1D891D
:100FE000C98CC204C18006A461016FF00F8CB247A6
:100FF00045B78A0555BF120593054006130525031D
:10100000EFF04F8D3D89E9BF91C55E250967D98F06
:101010005EA582805A25F977FD17F98FD5BF5E2925
:1010200001C6DD8D4EA9828093C5F5FFFD8DDDBF24
:1010300093F5F51F4EA182800A216D8D3335A000F6
:101040008280EFF2EF85B707002003A50701B715EF
:101050007A0093850520EFF0EF871375F50F238550
:10106000A18293175500898F8A073E950E05239418
:10107000A1826FF08F83EFF2AF8237F400E05C4023
:10108000AA85F99B5CC003D58182EFF0AF8208C8C6
:10109000232404001C4093E717001CC0B7F700E0AE
:1010A000D843058B75DF9843799B98C36FE0FFFFAA
:1010B000EFE21FFF7111AE840144635DC402B747C4
:1010C0000140138707803A859305000432C0AD378D
:1010D000B747014013870780024675D533878400E0
:1010E00083050700138507800504C205C181893780
:1010F0000246E1B7328511016FE03FFB411106C6A0
:101100002EC00DCD1841AA8705C358417D5511CB7E
:101110008546631BD70098472300070023A20700DA
:101120000545B240410182809847824614A3984702
:10113000050798C7D8437D17D8C3DDB705468A850C
:10114000853FF9BF011122CC2EC206CE26CA2A84C1
:10115000814793050002634506029245BE9583854B
:1011600005008DE563D8C70263D4E702198E130525
:10117000000293F526002AC089C501E79305000304
:101180002EC0858A814495EAB2840DA08507F1B707
:101190001D8EF1BF0146E1BF824522853AC832C6A5
:1011A0003EC4A93FA24732464247FD14E34690FEA3
:1011B000B284635306008144058E63C7E702A687A5
:1011C00092463387974036978305070095EDB284A2
:1011D00063449004635306000146F2406244D244E3
:1011E0003305F600056182801D8FBA8793050003E1
:1011F000228532C83EC63AC41137B247224742461A
:10120000FD17EDF7BA9465BF228532C63EC4FD35A1
:10121000A247324685076DB78245228532C43EC259
:10122000F13DFD142246924765B7397106DE22DC96
:1012300026DA3EC232833A8689ED9246930700034E
:1012400001476C08FC86FD3DF2506254D254216186
:101250008280AA843684AE8791CA294701446317E5
:10126000E30063D50500B307B04005448646A309F3
:10127000010213073103938666FC36C49A853E85C6
:1012800032CA3AC81AC63EC0EFE09FE7A546824779
:1012900032434247524663D4A600A2463695130510
:1012A00005039306F7FFA30FA7FE9A853E8532CC70
:1012B0003ACA1AC83EC636C0EFE0DFE1B247424341
:1012C0005247624663F9670401CC29CA9247898B69
:1012D000B1C79305D002268532C40D3522467D164E
:1012E0009247918B95C306479307100632C4930526
:1012F00000032685631EF7021135930580072685B6
:10130000F53B224609047916164792468245268502
:10131000153D229515BFAA8702478DB782469307D0
:10132000D0020144A38FF6FE9307E7FF3EC04DBFF6
:10133000F13393058005E1B7014582800145828044
:10134000130181FD22D026CE06D22AC4AE82328479
:1013500002C681448385020089EDA24781C7814589
:101360003E85693B925002542685F2441301810266
:101370008280930750026388F500224516C88504D1
:10138000B53BC24239A88387120013871200639CC1
:10139000B7002245930550023AC88D334247850471
:1013A000BA82850245BFD5DB9306B0026389D704B4
:1013B00063C8F600930630026386D704814705A010
:1013C0009306D002638AD70093060003E398D7FE02
:1013D00013872200894721A01387220085478306AF
:1013E00007001306B0026383C6046341D6021306E6
:1013F0003002638BC602BA820145A54681A01387DD
:1014000022006DBF138722009147D1BF1306D0027F
:101410006389C60013060003E39FC6FC93E7270019
:1014200031A005078547C1BF93E747000507E1B72E
:1014300013162500329506053A95850203860200AB
:10144000130706FD9375F70FE3F4B6FE1307E002EA
:101450009946631EE60085028146A5450386020083
:10146000130606FD1377F60F63F5E50236C603870C
:1014700002001306A006630DC70A6343E6021306C3
:10148000C0046307C70A13068006630CC7088145BA
:101490002DA813972600BA968606B29685027DBFC0
:1014A000130640076306C7081306A0076302C708B0
:1014B0001306C0068145631AC700038612008D45D6
:1014C0006314E600850291458502038602009303BA
:1014D00000061307100663C4C30013071004930328
:1014E000700663C4C30693035006635376189303D0
:1014F000700463C1C30493055004635BB6161307FD
:101500003004E310E6EA18409303440016CA230CA3
:10151000E1001EC8A30C01000147BE862A862C08E4
:1015200049A8038612008145E311E6FA890271BFDA
:101530008502B1BF93063006E307D6FC63CEC6062C
:10154000930680056303D602A9BD930630076304A2
:10155000D60463CBC6029306F0066302D60E93064A
:10156000000793E74700E31ED6E29146639FD50A42
:10157000930384000C40504016CA3AC23EC01EC8B5
:10158000AA870147C146B9A0930650076308D6064B
:101590009306800745BF1840B71600009303440028
:1015A0009385867011C3BA85324716CA1EC8BE8697
:1015B0002A862245413E0DA091466394D5029303AD
:1015C00084000C40504016CA3AC23EC01EC8AA87CA
:1015D0000547A94622458D33C243AA941E84D242B0
:1015E000C9B3B2460C4016C836C23AC011042A87A5
:1015F0008546294622451539AA9461B39146639DD3
:10160000D500930384000C40504016CA3AC23EC035
:101610001EC8AA87014775BFB2460C4016C836C21D
:101620003AC011042A878146E9B7B24616C80C4071
:10163000414636C23AC011042A87814665BF9146A9
:10164000639ED500930384000C40504016CA3AC2F2
:101650003EC01EC8AA870147A146ADBFB2460C4096
:1016600016C836C23AC011042A878146214659B7A6
:101670000C401306840040403AC22A87224532C8F3
:101680003EC02286B687A94616CA4D39AA9442445E
:10169000B9B7130141FD32CE3ED42AC67008FD57BA
:1016A000480006CC36D03AD202C23EC432C04939D4
:1016B000E2401301C1028280504D53373030334D28
:1016C0002053656E736F72204461746100000000E6
:1016D000504D312E302075672F6D333A00000000D9
:1016E000504D322E352075672F6D333A00000000C3
:1016F000504D2031302075672F6D333A00000000C7
:101700002535642000000000286E756C6C290000EF
:101710000102030405060708010203040506070881
:10172000006CDC020204060804080C1008101820E3
:1017300010203040204060800102030405060708A5
:0817400001020304050607087D
:00000001FF
