:100000006F00807700000000D0030000D2030000E2
:1000100000000000000000000000000000000000E0
:1000200000000000000000000000000000000000D0
:1000300076070000000000007607000000000000C6
:1000400076070000760700007607000076070000BC
:1000500076070000760700007607000076070000AC
:10006000760700007607000076070000760700009C
:10007000760700007607000076070000760700008C
:10008000760700007607000076070000760700007C
:100090007607000076070000D4030000000000008F
:1000A000511126C022C206C4828282441244A24058
:1000B000310182802A86014593F6150091C232955E
:1000C00085810606F5F9828000000000634E050276
:1000D00063C305042E86AA857D5515C285466378BF
:1000E000B6006356C00006068606E36CB6FE014500
:1000F00063E4C500918D558D85820582F5FA828075
:100100008682C93F2E8582823305A04063D70500D1
:10011000B305B040C1B7B305B0408682653F330533
:10012000A0408282868263C70500634905005D376F
:100130002E858282B305B040E35B05FE3305A04007
:10014000513F3305B04082820000EFF27FF561112C
:10015000B52A1305C00C752A130540045D2A130542
:10016000E02EEF00F0219D221305C00C5D22130547
:10017000E00B452211242A840124EF10A072B72736
:10018000000003A6079883A64798EF1080132AC0A3
:1001900022852EC2EF10007102469246EF00F02138
:1001A000B727000003A6879883A6C798EF106011B1
:1001B0002A8413058002AE84EF00901CB72700004C
:1001C00003A6079983A647992285A685EF10600F9D
:1001D000EF10C0662101D1BDEFF29FEC2A84930598
:1001E000000837350140EF00700275F9A145371559
:1001F00001400546EF00A06DA28537350140EF00B4
:10020000B000894537350140EF0050007DD90146E7
:10021000A14537150140EF00806B41BDEFF25FE86B
:100220008967938787993E951C2119C293F7F70731
:1002300009671307879A2E970823A2075D8D693FE8
:10024000ADB5EFF2FFE50144A28501461305F00FBD
:10025000F13705041374F40F9147E317F4FEB1B5B9
:10026000EFF21FE4511185451305000237140140D8
:1002700002C002C202C4EF00E06C1305044049232F
:10028000A1477C808A859147130504403EC46D2BAD
:10029000310121BDEFF2DFE0511185451305000268
:1002A0003714014002C002C202C4EF00A069130566
:1002B0000440B923A1477C80D1473EC48A858D473D
:1002C000130504403EC249233101C5B3EFF25FDD9F
:1002D000D137371401400146A14513050440C52B11
:1002E0001305001EEF0030060546A1451305044026
:1002F000F92B1305C003EF0010059D37A145130529
:100300000440C9232A841305001EEF00D003228570
:1003100069BBEFF2FFD8AA840144AD3FB3D7844054
:10032000858B0146A1459DC7B7170140138507403E
:10033000792B0100B7170140138507400546A145F9
:1003400079231305C003EF0010000504A147E3174C
:10035000F4FCA1BBB7170140138507408D2B130593
:10036000C003EF00407EB71701400546A145138545
:100370000740B12B0100D1BFEFF29FD2814401446D
:10038000113FB71701400146A1451385074081235E
:100390000100B717014013850740A1450546052B0D
:1003A000C135B7170140A14513850740212B19C559
:1003B0008547B39797005D8C1374F40F1305C00342
:1003C000EF0060788504A147E39CF4FA2285F1B937
:1003D00001A001A0411185453705004022C626C471
:1003E000EF00E07051C537040020B7070020238CD0
:1003F000070083449401938787013EC293079401C9
:100400003EC00947B70700201384A7016380E402B8
:100410000D476384E40605476399E4063707002027
:100420000355C701A945E93908A005A037070020F1
:100430000355C70193054006E1314205A9454181B5
:1004400051399247054708A098A392470820A685EE
:100450009023E93382470D479C23850793F7F70FD5
:100460006368F70202471CA3854537050040612DEC
:100470003244A24441017300203037070020035565
:10048000C70193054006B93145B7314718A075BF7C
:10049000824723800700C9BFEFF29FC051118545F5
:1004A000414502C002C202C47129A1470D447C80AB
:1004B0008A85C147371501403EC422C27126930781
:1004C0000002E1448A85371501407C8026C422C29F
:1004D000A52E930700048A85371501407C8026C429
:1004E00022C29D263101D1B6EFF29FBB3111854565
:1004F000056502C002C202C402C623180100992188
:10050000B74704013EC08567938707803EC2B7079F
:1005100000023EC4E1473EC68A859D47373501400B
:10052000FC806929854537350140D1215101B5BE8F
:10053000EFF21FB731112A84AE840545854502C408
:1005400002C62318010002C002C22129370500405B
:10055000D92137050040952B814537050040B52B43
:1005600081453705004051237D142C00FD143705CB
:100570000040648460862315010023170100D129FF
:100580000546854537050040052B930760327C8082
:100590008D475C810A8585473EC291268545370592
:1005A0000040FD29510111B6EFF29FAF05452D2600
:1005B000A92A8523D5350D3F930540061305001E56
:1005C000853F37040020B5394936231EA4001305A2
:1005D000803E7D23D5BFEFF2BFAC371402401C40F4
:1005E0003707FFF8611193E717001CC05C404145D5
:1005F000F98F5CC01C403707F7FE7D17F98F1CC0D0
:100600001C403707FCFF7D17F98F1CC05C40417709
:100610007D17F98F5CC0B7079F001CC4192E1C4CB6
:100620003706020093E707021CCCB717014003A767
:100630000740938607401377F7F023A0E74003A70E
:1006400007401367070823A0E74089479CCA02C0F8
:1006500002C21C4C37070140A16693E717001CCC6F
:100660005C43D58F5CC31C404167B7160240D98FED
:100670001CC009679C42F18F3EC2824785073EC07D
:10068000924781E78247E397E7FEB71702409C4312
:100690001397E7006359070685473EC2124785470F
:1006A0006310F706B72702409843C176FD16719B89
:1006B00098C398431367170098C3B7170240D843ED
:1006C000D8C3D843758FD8C3D843C166558FD8C314
:1006D0009843B7060001558F98C398439316670057
:1006E000E3DD06FED843B7160240719BD8C3D8435A
:1006F00013672700D8C32147DC42B18BE39EE7FE96
:1007000021016FF09F9A02C251BFEFF27F99371714
:1007100002405C43370400209146B18B130404016E
:100720006385D700A1466382D704B7376E019387EC
:1007300007601CC0B7160240DC420840918313F7E3
:10074000F700B707002093870700BA978C23DC4295
:1007500093F5F50F93F707083357B50081E7EFF0EE
:100760007F972A8718C06FF05F945C43B777DC02ED
:10077000938707C07DBF01A0970100209381010AE4
:10078000138181FE1715000013058536970500209B
:1007900093854587170600201306468863FAC5002F
:1007A0008322050023A0550011059105E3EAC5FE4B
:1007B0001705002013058586938501816377B500B1
:1007C000232005001105E36DB5FEB72200009382DA
:1007D0000288739002308D4273904280970200002D
:1007E0009382428293E2320073905230EFF0BFDE88
:1007F00097020000938282DB7390123473002030E2
:10080000EFF21F8AB717014013870780631AE500CC
:1008100085451145B522814511459D226FF0FF8820
:100820006318F50085454145A12A81454145F5B745
:1008300093870740E314F5FE8545130500028922DE
:10084000814513050002D1BF944593F7060193F249
:10085000F60081C7DC41B3E2F20083D3050093F7D1
:10086000F30FA5C303230500611122C226C08147EF
:10087000130480029304800405473316F70033F70E
:10088000C3006312E602939527003D473317B70074
:100890001347F7FF33736700B395B20033E3650086
:1008A000639D860050C985072147E397E7FC124402
:1008B00023206500824421018280E39696FE10C9C0
:1008C000DDB7828008456D8D3335A000828019C266
:1008D0000CC982804CC9828023A4A180828083A617
:1008E0008180854718216390F6021C31639CD702F2
:1008F0003C219A0793E707F8B7E600E093F7F70F74
:10090000BA962380F6408546935757003397E60002
:10091000544189CE938707048A07B7E600E0B6976B
:1009200098C38280EDF33C219A07F9B793870706B5
:10093000E5B7371702401C430E0593F777F05D8D3E
:1009400008C3828099C5371702401C4F5D8D08CFC0
:100950008280B7170240984F1345F5FF798D88CFF5
:10096000828099C5371702405C4F5D8D48CF8280E9
:10097000B7170240D84F1345F5FF798DC8CF828055
:1009800099C5371702405C475D8D48C78280B7170D
:100990000240D8471345F5FF798DC8C7828099C5B5
:1009A000371702401C4B5D8D08CB8280B717024081
:1009B000984B1345F5FF798D88CB82801A218D677E
:1009C00093870704B6217D8F9E21D58FD621D58FA1
:1009D000F621D58F9625D58FB625D58FD625D58FDF
:1009E000F625D58FD98F1EA19E291EA982801E2192
:1009F00089C593E707041EA18280C207C18393F7CC
:100A0000F7FBC207C183C5BF4EA582800A256D8D45
:100A10003335A0008280EFF2AFE8B737014093870B
:100A200007C0631DF5000564854513050480893FF3
:100A3000814513050480A9376FF02FE7B707004001
:100A4000E31CF5FE85450545993F81450545813FF8
:100A5000E5B71E2137370140130707C0C207C1831E
:100A60006306E500370700406316E500BA2193F7F7
:100A7000F7F8D98FFA2193F7F7CFC207C183D98F3F
:100A80001EA1DE215EB59E211EB5B73701409387BA
:100A900007C06314F5009C251EB985475EA98280B6
:100AA0001E2189C593E717001EA18280C207C1835A
:100AB000F99BC207C183CDBF5E2501C6DD8D4EA562
:100AC000828093C5F5FFFD8DDDBF1E25C207C18362
:100AD000E19BC207C1831EA582801E25C207C18378
:100AE00093F7F7F8DD8D0EA582804EB182801E2926
:100AF0004A25ED8F4205418189C76D8D3335A000B0
:100B000082800145828093C5F5FFC205C1810EA98F
:100B10008280EFF2EFD8B707002003A50701B715D1
:100B20007A0093850520EFF0EFDA1375F50F238730
:100B3000A18093175500898F8A073E950E0523964D
:100B4000A1806FF08FD6EFF2AFD537F400E05C40B4
:100B5000AA85F99B5CC003C5E180EFF0AFD508C85A
:100B6000232404001C4093E717001CC0B7F700E0E3
:100B7000D843058B75DF9843799B98C36FF0EFD20C
:100B8000EFF20FD237F400E05C40AA85F99B5CC01D
:100B900003D5C180EFF00FD208C8232404001C4005
:100BA00093E717001CC0B7F700E0D843058B75DF4B
:100BB0009843799B98C36FF04FCF370710007D178C
:100BC0003111B377B700758F13D346019352D60115
:100BD00022C626C413D445018E079353D5010E07B0
:100BE00093D4F50106C8FD8233E7E2001374F47F65
:100BF000B3E7F300931535001373F37F93123600B8
:100C00006381D418B3036440635570126304031CFA
:100C1000370680009306F07F518F6303D434930628
:100C2000800363C47630FD4663CC764493060002AD
:100C3000B38676403316D70033D57200B396D20010
:100C4000498EB336D00033577700558E998F33864F
:100C5000C540B3B5C500B383B7409397830063D451
:100C60000724B7078000FD17B3F3F300638D032853
:100C70001E8532C21EC0EF007049824312469306A1
:100C800085FF93070002958FB352F600B397D30008
:100C9000B3E7F2003316D60063CC86243384864053
:100CA000930514007D476349B73A130700020D8F7F
:100CB000B356B6003316E6003397E700558F333648
:100CC000C000598EB3D3B70001449377760081CF2B
:100CD0009377F60011476388E7009307460033B621
:100CE000C700B2933E869397830063DC07520504E6
:100CF0009307F07FA6856308F41EB70780FFFD17F2
:100D0000B3F7F3001395D7010D82A6073363C5002F
:100D1000B1831374F47FB2075204B1839394F50145
:100D2000C240B3E587003244C58D1A85A244510103
:100D30008280639F030A130314001373E37F631B12
:100D4000031EB3E3B70033635700631D044463829B
:100D5000033E630E03403386554033B5C500B3836D
:100D6000E740B383A340139583006355054A338658
:100D7000B240B307F740B3B2C200B3835740B68462
:100D8000A9B7B3066440635DD00C630D030A370353
:100D900080001306F07F336767006304C4381306CE
:100DA0008003634FD6107D46635AD632138606FE03
:100DB000130300023355C700638A6600130600045C
:100DC000B306D6403317D700B3E2E2003336500003
:100DD000498EDDA8B36657006385061A9386F3FF34
:100DE000638506361306F07F638CC316B68305BD94
:100DF000B30383406314042033E5B7006303053075
:100E00001385F3FF630705421304F07F638F831E8E
:100E1000AA8313068003634976287D466340763CA7
:100E200013050002330575403396A70033D47500CF
:100E3000B395A500418EB335B000B3D777004D8E82
:100E40001D8FB5A433665700630A06301386F6FF7C
:100E50006307061C1303F07F6385662CB28681B797
:100E6000639306149306140013F3E67F63190330AB
:100E7000B3E6B7006312042A6388063CB3665700E2
:100E80006387062E33865500BA97B335B600B38311
:100E9000B7009397830063D80700B70780FFFD175B
:100EA000B3F3F300054493777600E39307E213531B
:100EB00036001395D3013363A30093D73300D1A831
:100EC000336757003336E0002E96B335B600B38350
:100ED000F50093978300E3D807FC05049307F07FA0
:100EE000631CF414A6851304F07F8147014325B5E4
:100EF000B70380FFFD13B3F3770093777600158C6B
:100F0000E39807DC6DB732851EC232C0EF001020B7
:100F100093068501FD4702469243E3D4D7D6930753
:100F200085FFB317F600014685BB3367570033369C
:100F3000E00031BB3386554033B5C500B383E7408D
:100F4000B383A34013958300634C05263363760077
:100F5000E31E03D081478144014481A0631C030048
:100F60000E051393D7010D813363A3008D83B367FF
:100F7000F300ADDB81451304F07FB70708000143A0
:100F800059BB0E051393D7010D813363A3008D83E5
:100F90001E841307F07FE30CE4FCB207B1831374E3
:100FA000F47FA6858DBBB3068340630B0410B703A3
:100FB00080001305F07FB3E77700630BA32E1306C1
:100FC00080036349D6207D466343D62A1305000279
:100FD000158D3396A700B3D3D500B395A50033661E
:100FE0007600B335B000B3D7D7004D8E3E97169636
:100FF000B3375600B383E7001A84E1BD370480009D
:101000001305F07FC18FE316A3E00E060D821313C4
:10101000D7013363660093573700B68489BF3386A0
:101020005500BA97B335B600B383B70093978300E2
:101030000544E3DA07E60944B70780FFFD17B3F775
:10104000F30013571600058A598E1393F701336680
:10105000C30093D3170095B9051413070002B3D644
:1010600087006389E50093030004B383B340B3971B
:1010700077005D8E3336C000558E8143014425B51F
:10108000138603FE13050002B356C700638AA3004C
:1010900013060004B303764033177700B3E2E2008F
:1010A00033365000558E65B6CD8F3336F00033861B
:1010B000C240B3B7C200B303F7401A84B68471BE0E
:1010C00033E5B700630B05181385F6FF630A051CAB
:1010D0009303F07F63877612AA86D5B513050002C5
:1010E000158D3316A70033D3D200B392A200336616
:1010F0006600B33250003357D70033665600BA97B4
:10110000E1B30E060D821315D7013363A600935782
:1011100037001E84B684B5BDEDC633675700E31BA8
:1011200007E40E051393D7010D81336365008D83AA
:101130003DBD6305030E0E061313D7010D82336305
:10114000C30093573700B68489BD33865540998FC5
:10115000B3B5C500B383B740054401B60E0513937C
:10116000D7010D81336365008D8336841DB50E056F
:101170001393D7010D813363A3008D8339BD13060B
:10118000F07FE381C6D6AE92B3B5B200BA97AE9700
:101190001396F70193D212003366560093D31700CB
:1011A000368411B3E39C03DA6306030E0E061313B1
:1011B000D7010D823363C30093573700B68445BB14
:1011C0003386B240B307F740B3B2C200B38357408F
:1011D000B68469BCCD8F3336F00011BD138603FE93
:1011E0001304000233D5C70063898300130600048B
:1011F000B3037640B3977700DD8D3336B000498E68
:101200007DB50E060D821313D70133636600935725
:101210003700B1BB33637600E31703C881478144CD
:10122000ADBB0D821393D3013363660093D73300B4
:101230008DB33386B240B307F740B3B2C200B38375
:101240005740B684054411BC0E061313D7010D8216
:101250003363C3009357370089B30E061313D701C6
:101260000D823363C3009357370036841DB3138652
:1012700006FE9303000233D5C70063897600130688
:101280000004B306D640B397D700DD8D3336B000E7
:10129000498EB1BB81451304F07FB7070800A5BC98
:1012A00033865500BA97B3325600B3835700BDBB9F
:1012B0000E061313D7010D823363C3009357370013
:1012C0007DB1130181FC93D3450126D6AA8793945F
:1012D000C50006DA22D813F5F37FB180FD8175C908
:1012E0001307F07F6301E51A13D7D7018E04D98C59
:1012F00037078000458F13943700930715C03AC411
:101300003EC08144014393D346019397C60093F3B3
:10131000F37FB282B183FD82638F03101307F07FE6
:101320006385E3048E071357D6015D8FB7078000EE
:101330005D8F8247938313C0931236009E973EC001
:1013400001458243B3C7D5003E8685033EC21EC613
:10135000BD4763E5971897070000938767658A0480
:10136000BE9483A304009E97828733E7C70002469A
:101370001306F67F32C06314071493E424008142FD
:101380000945C1B702C21307F07FB707080001443F
:101390009246B2072285D25042545207B183FE06CC
:1013A000D98FD58FB254BE851301810382803686D2
:1013B0003AC416842A838947630CF3108D47E303EC
:1013C000F3FC854732C26318F34601478147014465
:1013D000C1B733E7F4003AC471CF36C632C4638D67
:1013E000043626853EC22EC01523824592472246EA
:1013F000B246AA83130755FF7545138483FF198DE1
:10140000B394840033D5A700336795003AC433946E
:1014100087001305D0C0B307754093D346013EC083
:1014200093F3F37F9397C60081440143B282B18363
:10143000FD82E39503EE33E7C7002DC36386072ED5
:101440003E8532CC36CA1AC82EC63EC2C12192474A
:10145000B2454243D2466246AA83130755FF7545FB
:10146000938283FF3307E540B39757003357E60075
:101470005D8FB312560082470145B383774093874F
:10148000D3C03EC07DBD3E84C58F3EC489EF930767
:10149000F07FA14401443EC00943B5B593E4140074
:1014A0008142054579BD9307F07F26C43EC0B14413
:1014B0000D4391BD9144014402C00543A9B593E495
:1014C00034003E870D45B5BD89472E86E318F3EEFF
:1014D00032C21307F07F814701445DBDC16493862A
:1014E000F4FFB377D400B3F6D200B68336D0418090
:1014F00093D202013E85B685EFE0DFBB2A8316C892
:1015000096853E85EFE01FBBAA829E852285EFE08F
:101510007FBAAA83C2452285EFE0DFB99356030163
:101520009E92B6922ACC63F57200B306950036CC33
:10153000C1639384F3FFB3F6920033739300C20642
:10154000F98C9A96418393D2020136CE3A833E8536
:10155000A685EFE03FB62A871ACA9A853E85EFE056
:101560007FB5AA87A6852285EFE0DFB42A83D2451E
:101570002285EFE03FB4935607019A97B69763F33D
:1015800067001E9541641306F4FFB3F5C700718F21
:10159000C20593D60701B387E500A2458253AA96F8
:1015A00033F7C5003ED496973EC436D293D7050193
:1015B0003A859E85EFE01FB02A83C2453A85EFE069
:1015C0007FAFAA829E853E85EFE0DFAEAA83C2454B
:1015D0003E85EFE03FAE935603019E92B69263F3D1
:1015E00072002295C166FD16B3F3D2003373D300A7
:1015F00093D20201C2033384A2009A933A85A6854E
:10160000EFE05FAB2A83D2453A85EFE0BFAA2A8795
:10161000A6853E85EFE01FAAAA82D2453E85EFE06F
:101620007FA99357030116973E9763745700C166CD
:101630003695C166FD16B377D700C207B376D300DF
:101640002246E2451253BE96A2572E969A96B3347E
:10165000F600B38796001E96B3858700B3337600F5
:10166000B3827500B3B66600B3B79700DD8EB3B52D
:101670008500B3B372004183F247BA96B3E37500B5
:101680009E961313960036953364F300260593D780
:101690007201B366F500333480005D82518CA6027E
:1016A00036C4939776003364540063DE0700935783
:1016B000140005885D8C93D716003EC4B24713977B
:1016C000F601598C3EC082471387F73F635BE00AFF
:1016D0009377740091CF9377F4009146638AD70093
:1016E000A2469307440033B48700A29636C43E84D2
:1016F000A2469397760063DA0700B70700FFFD174D
:10170000F58F3EC48247138707409307E07F63CF7E
:10171000E710A247935634001377F77F1394D7014D
:10172000A607558CB183ADB132853ECC36CA1AC8F6
:101730002EC632C2E12A13075501F1429303050276
:101740001246B2454243D246E247E3DAE2D061159F
:101750003317A600814205B33E852EC23EC07D22CE
:1017600013075501714393030502824792452246B0
:10177000B246E353E3C86115B397A7003EC40144E2
:1017800049B98547998F39E7024722461305E74152
:101790003317A4003315A6003354F4003337E000A8
:1017A000498C598C937674003357F60081CE937729
:1017B000F40091466388D7009307440033B4870050
:1017C00022973E849317870063DA07040547814711
:1017D00001447DBE93068003E3C9F6BEFD46E3D512
:1017E000F6FA224685563387E640930600023357C1
:1017F000E6006388D70082479387E743B317F60074
:101800005D8C33348000598C13777400814719CB79
:101810009377F40091460147E390D7FA9317970026
:10182000B18376070D80598C01479DB61307F07F71
:1018300081470144B1BEB2473EC071B593D745015F
:10184000370610001307F6FF93F7F77F9306E03F84
:101850006D8FFD8163DCF6009306D04163DAF600FC
:10186000370500801345F5FF2E9582800145828063
:10187000930630439D8E7D43518F635DD300930665
:101880003041B387F6403357F7003305E040E5F1C8
:101890003A8582809387D7BE3317F7003355D5003A
:1018A000498FE5B71DCD511122C206C42A84B9283B
:1018B0009306E041898EA94793F6F67F63DDA70280
:1018C000930755FFB317F400B207B1830147A24055
:1018D0001244B207D206B183D58F3A85BE85310155
:1018E000828081478146B207D206B1830147D58FF6
:1018F0003A85BE8582802D47098FB357E4001306D1
:101900005501B2073317C400B183D1B7C167637CF7
:10191000F5029307F00F1307000263EBA700970788
:1019200000009387E70CAA9788233305A74082809D
:101930002181970700009387A70BAA978823614707
:101940003305A7408280B7070001636DF500618110
:10195000970700009387C709AA9788232147330573
:10196000A740828041819707000093876708AA9764
:10197000882341473305A740828000000000000013
:101980000000000000007040000000000000244043
:10199000000000000000B03FC0F9A4B0999282F8A6
:1019A00080908883C6A1868E0102040830FBFFFF69
:1019B00004FAFFFF04FAFFFF02FAFFFF0AFAFFFF33
:1019C0000AFAFFFFD8F9FFFF02FAFFFF0AFAFFFF4A
:1019D000D8F9FFFF0AFAFFFF02FAFFFF1CFBFFFF27
:1019E0001CFBFFFF1CFBFFFFD8F9FFFF00010202F9
:1019F00003030303040404040404040405050505A7
:101A00000505050505050505050505050606060682
:101A10000606060606060606060606060606060666
:101A20000606060606060606060606060707070752
:101A30000707070707070707070707070707070736
:101A40000707070707070707070707070707070726
:101A50000707070707070707070707070707070716
:101A60000707070707070707070707070808080802
:101A700008080808080808080808080808080808E6
:101A800008080808080808080808080808080808D6
:101A900008080808080808080808080808080808C6
:101AA00008080808080808080808080808080808B6
:101AB00008080808080808080808080808080808A6
:101AC0000808080808080808080808080808080896
:101AD0000808080808080808080808080808080886
:0C1AE0000808080808080808080808089A
:101AEC0001020304050607080102030405060708A2
:081AFC00006CDC020000000098
:00000001FF
